{
	"contracts/ERC20.sol": {
		"MillerToken": {
			"abi": [
				{
					"inputs": [],
					"stateMutability": "nonpayable",
					"type": "constructor"
				},
				{
					"anonymous": false,
					"inputs": [
						{
							"indexed": true,
							"internalType": "address",
							"name": "_owner",
							"type": "address"
						},
						{
							"indexed": true,
							"internalType": "address",
							"name": "_spender",
							"type": "address"
						},
						{
							"indexed": false,
							"internalType": "uint256",
							"name": "_value",
							"type": "uint256"
						}
					],
					"name": "Approval",
					"type": "event"
				},
				{
					"anonymous": false,
					"inputs": [
						{
							"indexed": true,
							"internalType": "address",
							"name": "_from",
							"type": "address"
						},
						{
							"indexed": true,
							"internalType": "address",
							"name": "_to",
							"type": "address"
						},
						{
							"indexed": false,
							"internalType": "uint256",
							"name": "_value",
							"type": "uint256"
						}
					],
					"name": "Transfer",
					"type": "event"
				},
				{
					"inputs": [
						{
							"internalType": "address",
							"name": "_owner",
							"type": "address"
						},
						{
							"internalType": "address",
							"name": "_spender",
							"type": "address"
						}
					],
					"name": "allowance",
					"outputs": [
						{
							"internalType": "uint256",
							"name": "remaining",
							"type": "uint256"
						}
					],
					"stateMutability": "view",
					"type": "function"
				},
				{
					"inputs": [
						{
							"internalType": "address",
							"name": "_spender",
							"type": "address"
						},
						{
							"internalType": "uint256",
							"name": "_value",
							"type": "uint256"
						}
					],
					"name": "approve",
					"outputs": [
						{
							"internalType": "bool",
							"name": "success",
							"type": "bool"
						}
					],
					"stateMutability": "nonpayable",
					"type": "function"
				},
				{
					"inputs": [
						{
							"internalType": "address",
							"name": "_spender",
							"type": "address"
						},
						{
							"internalType": "uint256",
							"name": "_value",
							"type": "uint256"
						},
						{
							"internalType": "bytes",
							"name": "_extraData",
							"type": "bytes"
						}
					],
					"name": "approveAndCall",
					"outputs": [
						{
							"internalType": "bool",
							"name": "success",
							"type": "bool"
						}
					],
					"stateMutability": "nonpayable",
					"type": "function"
				},
				{
					"inputs": [
						{
							"internalType": "address",
							"name": "_owner",
							"type": "address"
						}
					],
					"name": "balanceOf",
					"outputs": [
						{
							"internalType": "uint256",
							"name": "balance",
							"type": "uint256"
						}
					],
					"stateMutability": "view",
					"type": "function"
				},
				{
					"inputs": [],
					"name": "decimals",
					"outputs": [
						{
							"internalType": "uint8",
							"name": "",
							"type": "uint8"
						}
					],
					"stateMutability": "view",
					"type": "function"
				},
				{
					"inputs": [],
					"name": "fundsWallet",
					"outputs": [
						{
							"internalType": "address",
							"name": "",
							"type": "address"
						}
					],
					"stateMutability": "view",
					"type": "function"
				},
				{
					"inputs": [],
					"name": "name",
					"outputs": [
						{
							"internalType": "string",
							"name": "",
							"type": "string"
						}
					],
					"stateMutability": "view",
					"type": "function"
				},
				{
					"inputs": [],
					"name": "symbol",
					"outputs": [
						{
							"internalType": "string",
							"name": "",
							"type": "string"
						}
					],
					"stateMutability": "view",
					"type": "function"
				},
				{
					"inputs": [],
					"name": "totalEthInWei",
					"outputs": [
						{
							"internalType": "uint256",
							"name": "",
							"type": "uint256"
						}
					],
					"stateMutability": "view",
					"type": "function"
				},
				{
					"inputs": [],
					"name": "totalSupply",
					"outputs": [
						{
							"internalType": "uint256",
							"name": "supply",
							"type": "uint256"
						}
					],
					"stateMutability": "view",
					"type": "function"
				},
				{
					"inputs": [
						{
							"internalType": "address",
							"name": "_to",
							"type": "address"
						},
						{
							"internalType": "uint256",
							"name": "_value",
							"type": "uint256"
						}
					],
					"name": "transfer",
					"outputs": [
						{
							"internalType": "bool",
							"name": "success",
							"type": "bool"
						}
					],
					"stateMutability": "nonpayable",
					"type": "function"
				},
				{
					"inputs": [
						{
							"internalType": "address",
							"name": "_from",
							"type": "address"
						},
						{
							"internalType": "address",
							"name": "_to",
							"type": "address"
						},
						{
							"internalType": "uint256",
							"name": "_value",
							"type": "uint256"
						}
					],
					"name": "transferFrom",
					"outputs": [
						{
							"internalType": "bool",
							"name": "success",
							"type": "bool"
						}
					],
					"stateMutability": "nonpayable",
					"type": "function"
				},
				{
					"inputs": [],
					"name": "unitsOneEthCanBuy",
					"outputs": [
						{
							"internalType": "uint256",
							"name": "",
							"type": "uint256"
						}
					],
					"stateMutability": "view",
					"type": "function"
				},
				{
					"stateMutability": "payable",
					"type": "receive"
				}
			],
			"devdoc": {
				"kind": "dev",
				"methods": {
					"allowance(address,address)": {
						"params": {
							"_owner": "The address of the account owning tokens",
							"_spender": "The address of the account able to transfer the tokens"
						},
						"returns": {
							"remaining": "Amount of remaining tokens allowed to spent"
						}
					},
					"approve(address,uint256)": {
						"params": {
							"_spender": "The address of the account able to transfer the tokens",
							"_value": "The amount of wei to be approved for transfer"
						},
						"returns": {
							"success": "Whether the approval was successful or not"
						}
					},
					"balanceOf(address)": {
						"params": {
							"_owner": "The address from which the balance will be retrived"
						},
						"returns": {
							"balance": "the balance"
						}
					},
					"totalSupply()": {
						"returns": {
							"supply": "total amount of token"
						}
					},
					"transfer(address,uint256)": {
						"params": {
							"_to": "The address of the recipient",
							"_value": "The amount of token to be transferred"
						},
						"returns": {
							"success": "Whether the transfer as successful or not"
						}
					},
					"transferFrom(address,address,uint256)": {
						"params": {
							"_from": "The address of the sender",
							"_to": "The address of the recipient",
							"_value": "The amount of token to be transferred"
						},
						"returns": {
							"success": "Whether the transfer was successful or not"
						}
					}
				},
				"version": 1
			},
			"evm": {
				"assembly": "    /* \"contracts/ERC20.sol\":4091:6748  contract MillerToken is StandardToken{... */\n  mstore(0x40, 0x80)\n    /* \"contracts/ERC20.sol\":4810:5818  constructor() {... */\n  callvalue\n  dup1\n  iszero\n  tag_1\n  jumpi\n  0x00\n  dup1\n  revert\ntag_1:\n  pop\n    /* \"contracts/ERC20.sol\":4857:4869  100000000000 */\n  0x174876e800\n    /* \"contracts/ERC20.sol\":4834:4842  balances */\n  0x00\n    /* \"contracts/ERC20.sol\":4834:4854  balances[msg.sender] */\n  dup1\n    /* \"contracts/ERC20.sol\":4843:4853  msg.sender */\n  caller\n    /* \"contracts/ERC20.sol\":4834:4854  balances[msg.sender] */\n  0xffffffffffffffffffffffffffffffffffffffff\n  and\n  0xffffffffffffffffffffffffffffffffffffffff\n  and\n  dup2\n  mstore\n  0x20\n  add\n  swap1\n  dup2\n  mstore\n  0x20\n  add\n  0x00\n  keccak256\n    /* \"contracts/ERC20.sol\":4834:4869  balances[msg.sender] = 100000000000 */\n  dup2\n  swap1\n  sstore\n  pop\n    /* \"contracts/ERC20.sol\":5154:5166  100000000000 */\n  0x174876e800\n    /* \"contracts/ERC20.sol\":5140:5151  totalSupply */\n  0x02\n    /* \"contracts/ERC20.sol\":5140:5166  totalSupply = 100000000000 */\n  dup2\n  swap1\n  sstore\n  pop\n    /* \"contracts/ERC20.sol\":5249:5269  name = \"MillerToken\" */\n  mload(0x40)\n  dup1\n  0x40\n  add\n  0x40\n  mstore\n  dup1\n  0x0b\n  dup2\n  mstore\n  0x20\n  add\n  0x4d696c6c6572546f6b656e000000000000000000000000000000000000000000\n  dup2\n  mstore\n  pop\n    /* \"contracts/ERC20.sol\":5249:5253  name */\n  0x03\n    /* \"contracts/ERC20.sol\":5249:5269  name = \"MillerToken\" */\n  swap1\n  dup2\n  tag_4\n  swap2\n  swap1\n  tag_5\n  jump\t// in\ntag_4:\n  pop\n    /* \"contracts/ERC20.sol\":5380:5382  18 */\n  0x12\n    /* \"contracts/ERC20.sol\":5369:5377  decimals */\n  0x04\n  0x00\n    /* \"contracts/ERC20.sol\":5369:5382  decimals = 18 */\n  0x0100\n  exp\n  dup2\n  sload\n  dup2\n  0xff\n  mul\n  not\n  and\n  swap1\n  dup4\n  0xff\n  and\n  mul\n  or\n  swap1\n  sstore\n  pop\n    /* \"contracts/ERC20.sol\":5493:5509  symbol = \"MCOKN\" */\n  mload(0x40)\n  dup1\n  0x40\n  add\n  0x40\n  mstore\n  dup1\n  0x05\n  dup2\n  mstore\n  0x20\n  add\n  0x4d434f4b4e000000000000000000000000000000000000000000000000000000\n  dup2\n  mstore\n  pop\n    /* \"contracts/ERC20.sol\":5493:5499  symbol */\n  0x05\n    /* \"contracts/ERC20.sol\":5493:5509  symbol = \"MCOKN\" */\n  swap1\n  dup2\n  tag_6\n  swap2\n  swap1\n  tag_5\n  jump\t// in\ntag_6:\n  pop\n    /* \"contracts/ERC20.sol\":5634:5636  10 */\n  0x0a\n    /* \"contracts/ERC20.sol\":5614:5631  unitsOneEthCanBuy */\n  0x06\n    /* \"contracts/ERC20.sol\":5614:5636  unitsOneEthCanBuy = 10 */\n  dup2\n  swap1\n  sstore\n  pop\n    /* \"contracts/ERC20.sol\":5730:5740  msg.sender */\n  caller\n    /* \"contracts/ERC20.sol\":5716:5727  fundsWallet */\n  0x08\n  0x00\n    /* \"contracts/ERC20.sol\":5716:5740  fundsWallet = msg.sender */\n  0x0100\n  exp\n  dup2\n  sload\n  dup2\n  0xffffffffffffffffffffffffffffffffffffffff\n  mul\n  not\n  and\n  swap1\n  dup4\n  0xffffffffffffffffffffffffffffffffffffffff\n  and\n  mul\n  or\n  swap1\n  sstore\n  pop\n    /* \"contracts/ERC20.sol\":4091:6748  contract MillerToken is StandardToken{... */\n  jump(tag_7)\n    /* \"#utility.yul\":7:106   */\ntag_8:\n    /* \"#utility.yul\":59:65   */\n  0x00\n    /* \"#utility.yul\":93:98   */\n  dup2\n    /* \"#utility.yul\":87:99   */\n  mload\n    /* \"#utility.yul\":77:99   */\n  swap1\n  pop\n    /* \"#utility.yul\":7:106   */\n  swap2\n  swap1\n  pop\n  jump\t// out\n    /* \"#utility.yul\":112:292   */\ntag_9:\n    /* \"#utility.yul\":160:237   */\n  0x4e487b7100000000000000000000000000000000000000000000000000000000\n    /* \"#utility.yul\":157:158   */\n  0x00\n    /* \"#utility.yul\":150:238   */\n  mstore\n    /* \"#utility.yul\":257:261   */\n  0x41\n    /* \"#utility.yul\":254:255   */\n  0x04\n    /* \"#utility.yul\":247:262   */\n  mstore\n    /* \"#utility.yul\":281:285   */\n  0x24\n    /* \"#utility.yul\":278:279   */\n  0x00\n    /* \"#utility.yul\":271:286   */\n  revert\n    /* \"#utility.yul\":298:478   */\ntag_10:\n    /* \"#utility.yul\":346:423   */\n  0x4e487b7100000000000000000000000000000000000000000000000000000000\n    /* \"#utility.yul\":343:344   */\n  0x00\n    /* \"#utility.yul\":336:424   */\n  mstore\n    /* \"#utility.yul\":443:447   */\n  0x22\n    /* \"#utility.yul\":440:441   */\n  0x04\n    /* \"#utility.yul\":433:448   */\n  mstore\n    /* \"#utility.yul\":467:471   */\n  0x24\n    /* \"#utility.yul\":464:465   */\n  0x00\n    /* \"#utility.yul\":457:472   */\n  revert\n    /* \"#utility.yul\":484:804   */\ntag_11:\n    /* \"#utility.yul\":528:534   */\n  0x00\n    /* \"#utility.yul\":565:566   */\n  0x02\n    /* \"#utility.yul\":559:563   */\n  dup3\n    /* \"#utility.yul\":555:567   */\n  div\n    /* \"#utility.yul\":545:567   */\n  swap1\n  pop\n    /* \"#utility.yul\":612:613   */\n  0x01\n    /* \"#utility.yul\":606:610   */\n  dup3\n    /* \"#utility.yul\":602:614   */\n  and\n    /* \"#utility.yul\":633:651   */\n  dup1\n    /* \"#utility.yul\":623:704   */\n  tag_33\n  jumpi\n    /* \"#utility.yul\":689:693   */\n  0x7f\n    /* \"#utility.yul\":681:687   */\n  dup3\n    /* \"#utility.yul\":677:694   */\n  and\n    /* \"#utility.yul\":667:694   */\n  swap2\n  pop\n    /* \"#utility.yul\":623:704   */\ntag_33:\n    /* \"#utility.yul\":751:753   */\n  0x20\n    /* \"#utility.yul\":743:749   */\n  dup3\n    /* \"#utility.yul\":740:754   */\n  lt\n    /* \"#utility.yul\":720:738   */\n  dup2\n    /* \"#utility.yul\":717:755   */\n  sub\n    /* \"#utility.yul\":714:798   */\n  tag_34\n  jumpi\n    /* \"#utility.yul\":770:788   */\n  tag_35\n  tag_10\n  jump\t// in\ntag_35:\n    /* \"#utility.yul\":714:798   */\ntag_34:\n    /* \"#utility.yul\":535:804   */\n  pop\n    /* \"#utility.yul\":484:804   */\n  swap2\n  swap1\n  pop\n  jump\t// out\n    /* \"#utility.yul\":810:951   */\ntag_12:\n    /* \"#utility.yul\":859:863   */\n  0x00\n    /* \"#utility.yul\":882:885   */\n  dup2\n    /* \"#utility.yul\":874:885   */\n  swap1\n  pop\n    /* \"#utility.yul\":905:908   */\n  dup2\n    /* \"#utility.yul\":902:903   */\n  0x00\n    /* \"#utility.yul\":895:909   */\n  mstore\n    /* \"#utility.yul\":939:943   */\n  0x20\n    /* \"#utility.yul\":936:937   */\n  0x00\n    /* \"#utility.yul\":926:944   */\n  keccak256\n    /* \"#utility.yul\":918:944   */\n  swap1\n  pop\n    /* \"#utility.yul\":810:951   */\n  swap2\n  swap1\n  pop\n  jump\t// out\n    /* \"#utility.yul\":957:1050   */\ntag_13:\n    /* \"#utility.yul\":994:1000   */\n  0x00\n    /* \"#utility.yul\":1041:1043   */\n  0x20\n    /* \"#utility.yul\":1036:1038   */\n  0x1f\n    /* \"#utility.yul\":1029:1034   */\n  dup4\n    /* \"#utility.yul\":1025:1039   */\n  add\n    /* \"#utility.yul\":1021:1044   */\n  div\n    /* \"#utility.yul\":1011:1044   */\n  swap1\n  pop\n    /* \"#utility.yul\":957:1050   */\n  swap2\n  swap1\n  pop\n  jump\t// out\n    /* \"#utility.yul\":1056:1163   */\ntag_14:\n    /* \"#utility.yul\":1100:1108   */\n  0x00\n    /* \"#utility.yul\":1150:1155   */\n  dup3\n    /* \"#utility.yul\":1144:1148   */\n  dup3\n    /* \"#utility.yul\":1140:1156   */\n  shl\n    /* \"#utility.yul\":1119:1156   */\n  swap1\n  pop\n    /* \"#utility.yul\":1056:1163   */\n  swap3\n  swap2\n  pop\n  pop\n  jump\t// out\n    /* \"#utility.yul\":1169:1562   */\ntag_15:\n    /* \"#utility.yul\":1238:1244   */\n  0x00\n    /* \"#utility.yul\":1288:1289   */\n  0x08\n    /* \"#utility.yul\":1276:1286   */\n  dup4\n    /* \"#utility.yul\":1272:1290   */\n  mul\n    /* \"#utility.yul\":1311:1408   */\n  tag_40\n    /* \"#utility.yul\":1341:1407   */\n  0xffffffffffffffffffffffffffffffffffffffffffffffffffffffffffffffff\n    /* \"#utility.yul\":1330:1339   */\n  dup3\n    /* \"#utility.yul\":1311:1408   */\n  tag_14\n  jump\t// in\ntag_40:\n    /* \"#utility.yul\":1429:1468   */\n  tag_41\n    /* \"#utility.yul\":1459:1467   */\n  dup7\n    /* \"#utility.yul\":1448:1457   */\n  dup4\n    /* \"#utility.yul\":1429:1468   */\n  tag_14\n  jump\t// in\ntag_41:\n    /* \"#utility.yul\":1417:1468   */\n  swap6\n  pop\n    /* \"#utility.yul\":1501:1505   */\n  dup1\n    /* \"#utility.yul\":1497:1506   */\n  not\n    /* \"#utility.yul\":1490:1495   */\n  dup5\n    /* \"#utility.yul\":1486:1507   */\n  and\n    /* \"#utility.yul\":1477:1507   */\n  swap4\n  pop\n    /* \"#utility.yul\":1550:1554   */\n  dup1\n    /* \"#utility.yul\":1540:1548   */\n  dup7\n    /* \"#utility.yul\":1536:1555   */\n  and\n    /* \"#utility.yul\":1529:1534   */\n  dup5\n    /* \"#utility.yul\":1526:1556   */\n  or\n    /* \"#utility.yul\":1516:1556   */\n  swap3\n  pop\n    /* \"#utility.yul\":1245:1562   */\n  pop\n  pop\n    /* \"#utility.yul\":1169:1562   */\n  swap4\n  swap3\n  pop\n  pop\n  pop\n  jump\t// out\n    /* \"#utility.yul\":1568:1645   */\ntag_16:\n    /* \"#utility.yul\":1605:1612   */\n  0x00\n    /* \"#utility.yul\":1634:1639   */\n  dup2\n    /* \"#utility.yul\":1623:1639   */\n  swap1\n  pop\n    /* \"#utility.yul\":1568:1645   */\n  swap2\n  swap1\n  pop\n  jump\t// out\n    /* \"#utility.yul\":1651:1711   */\ntag_17:\n    /* \"#utility.yul\":1679:1682   */\n  0x00\n    /* \"#utility.yul\":1700:1705   */\n  dup2\n    /* \"#utility.yul\":1693:1705   */\n  swap1\n  pop\n    /* \"#utility.yul\":1651:1711   */\n  swap2\n  swap1\n  pop\n  jump\t// out\n    /* \"#utility.yul\":1717:1859   */\ntag_18:\n    /* \"#utility.yul\":1767:1776   */\n  0x00\n    /* \"#utility.yul\":1800:1853   */\n  tag_45\n    /* \"#utility.yul\":1818:1852   */\n  tag_46\n    /* \"#utility.yul\":1827:1851   */\n  tag_47\n    /* \"#utility.yul\":1845:1850   */\n  dup5\n    /* \"#utility.yul\":1827:1851   */\n  tag_16\n  jump\t// in\ntag_47:\n    /* \"#utility.yul\":1818:1852   */\n  tag_17\n  jump\t// in\ntag_46:\n    /* \"#utility.yul\":1800:1853   */\n  tag_16\n  jump\t// in\ntag_45:\n    /* \"#utility.yul\":1787:1853   */\n  swap1\n  pop\n    /* \"#utility.yul\":1717:1859   */\n  swap2\n  swap1\n  pop\n  jump\t// out\n    /* \"#utility.yul\":1865:1940   */\ntag_19:\n    /* \"#utility.yul\":1908:1911   */\n  0x00\n    /* \"#utility.yul\":1929:1934   */\n  dup2\n    /* \"#utility.yul\":1922:1934   */\n  swap1\n  pop\n    /* \"#utility.yul\":1865:1940   */\n  swap2\n  swap1\n  pop\n  jump\t// out\n    /* \"#utility.yul\":1946:2215   */\ntag_20:\n    /* \"#utility.yul\":2056:2095   */\n  tag_50\n    /* \"#utility.yul\":2087:2094   */\n  dup4\n    /* \"#utility.yul\":2056:2095   */\n  tag_18\n  jump\t// in\ntag_50:\n    /* \"#utility.yul\":2117:2208   */\n  tag_51\n    /* \"#utility.yul\":2166:2207   */\n  tag_52\n    /* \"#utility.yul\":2190:2206   */\n  dup3\n    /* \"#utility.yul\":2166:2207   */\n  tag_19\n  jump\t// in\ntag_52:\n    /* \"#utility.yul\":2158:2164   */\n  dup5\n    /* \"#utility.yul\":2151:2155   */\n  dup5\n    /* \"#utility.yul\":2145:2156   */\n  sload\n    /* \"#utility.yul\":2117:2208   */\n  tag_15\n  jump\t// in\ntag_51:\n    /* \"#utility.yul\":2111:2115   */\n  dup3\n    /* \"#utility.yul\":2104:2209   */\n  sstore\n    /* \"#utility.yul\":2022:2215   */\n  pop\n    /* \"#utility.yul\":1946:2215   */\n  pop\n  pop\n  pop\n  jump\t// out\n    /* \"#utility.yul\":2221:2294   */\ntag_21:\n    /* \"#utility.yul\":2266:2269   */\n  0x00\n    /* \"#utility.yul\":2221:2294   */\n  swap1\n  jump\t// out\n    /* \"#utility.yul\":2300:2489   */\ntag_22:\n    /* \"#utility.yul\":2377:2409   */\n  tag_55\n  tag_21\n  jump\t// in\ntag_55:\n    /* \"#utility.yul\":2418:2483   */\n  tag_56\n    /* \"#utility.yul\":2476:2482   */\n  dup2\n    /* \"#utility.yul\":2468:2474   */\n  dup5\n    /* \"#utility.yul\":2462:2466   */\n  dup5\n    /* \"#utility.yul\":2418:2483   */\n  tag_20\n  jump\t// in\ntag_56:\n    /* \"#utility.yul\":2353:2489   */\n  pop\n    /* \"#utility.yul\":2300:2489   */\n  pop\n  pop\n  jump\t// out\n    /* \"#utility.yul\":2495:2681   */\ntag_23:\n    /* \"#utility.yul\":2555:2675   */\ntag_58:\n    /* \"#utility.yul\":2572:2575   */\n  dup2\n    /* \"#utility.yul\":2565:2570   */\n  dup2\n    /* \"#utility.yul\":2562:2576   */\n  lt\n    /* \"#utility.yul\":2555:2675   */\n  iszero\n  tag_60\n  jumpi\n    /* \"#utility.yul\":2626:2665   */\n  tag_61\n    /* \"#utility.yul\":2663:2664   */\n  0x00\n    /* \"#utility.yul\":2656:2661   */\n  dup3\n    /* \"#utility.yul\":2626:2665   */\n  tag_22\n  jump\t// in\ntag_61:\n    /* \"#utility.yul\":2599:2600   */\n  0x01\n    /* \"#utility.yul\":2592:2597   */\n  dup2\n    /* \"#utility.yul\":2588:2601   */\n  add\n    /* \"#utility.yul\":2579:2601   */\n  swap1\n  pop\n    /* \"#utility.yul\":2555:2675   */\n  jump(tag_58)\ntag_60:\n    /* \"#utility.yul\":2495:2681   */\n  pop\n  pop\n  jump\t// out\n    /* \"#utility.yul\":2687:3230   */\ntag_24:\n    /* \"#utility.yul\":2788:2790   */\n  0x1f\n    /* \"#utility.yul\":2783:2786   */\n  dup3\n    /* \"#utility.yul\":2780:2791   */\n  gt\n    /* \"#utility.yul\":2777:3223   */\n  iszero\n  tag_63\n  jumpi\n    /* \"#utility.yul\":2822:2860   */\n  tag_64\n    /* \"#utility.yul\":2854:2859   */\n  dup2\n    /* \"#utility.yul\":2822:2860   */\n  tag_12\n  jump\t// in\ntag_64:\n    /* \"#utility.yul\":2906:2935   */\n  tag_65\n    /* \"#utility.yul\":2924:2934   */\n  dup5\n    /* \"#utility.yul\":2906:2935   */\n  tag_13\n  jump\t// in\ntag_65:\n    /* \"#utility.yul\":2896:2904   */\n  dup2\n    /* \"#utility.yul\":2892:2936   */\n  add\n    /* \"#utility.yul\":3089:3091   */\n  0x20\n    /* \"#utility.yul\":3077:3087   */\n  dup6\n    /* \"#utility.yul\":3074:3092   */\n  lt\n    /* \"#utility.yul\":3071:3120   */\n  iszero\n  tag_66\n  jumpi\n    /* \"#utility.yul\":3110:3118   */\n  dup2\n    /* \"#utility.yul\":3095:3118   */\n  swap1\n  pop\n    /* \"#utility.yul\":3071:3120   */\ntag_66:\n    /* \"#utility.yul\":3133:3213   */\n  tag_67\n    /* \"#utility.yul\":3189:3211   */\n  tag_68\n    /* \"#utility.yul\":3207:3210   */\n  dup6\n    /* \"#utility.yul\":3189:3211   */\n  tag_13\n  jump\t// in\ntag_68:\n    /* \"#utility.yul\":3179:3187   */\n  dup4\n    /* \"#utility.yul\":3175:3212   */\n  add\n    /* \"#utility.yul\":3162:3173   */\n  dup3\n    /* \"#utility.yul\":3133:3213   */\n  tag_23\n  jump\t// in\ntag_67:\n    /* \"#utility.yul\":2792:3223   */\n  pop\n  pop\n    /* \"#utility.yul\":2777:3223   */\ntag_63:\n    /* \"#utility.yul\":2687:3230   */\n  pop\n  pop\n  pop\n  jump\t// out\n    /* \"#utility.yul\":3236:3353   */\ntag_25:\n    /* \"#utility.yul\":3290:3298   */\n  0x00\n    /* \"#utility.yul\":3340:3345   */\n  dup3\n    /* \"#utility.yul\":3334:3338   */\n  dup3\n    /* \"#utility.yul\":3330:3346   */\n  shr\n    /* \"#utility.yul\":3309:3346   */\n  swap1\n  pop\n    /* \"#utility.yul\":3236:3353   */\n  swap3\n  swap2\n  pop\n  pop\n  jump\t// out\n    /* \"#utility.yul\":3359:3528   */\ntag_26:\n    /* \"#utility.yul\":3403:3409   */\n  0x00\n    /* \"#utility.yul\":3436:3487   */\n  tag_71\n    /* \"#utility.yul\":3484:3485   */\n  0x00\n    /* \"#utility.yul\":3480:3486   */\n  not\n    /* \"#utility.yul\":3472:3477   */\n  dup5\n    /* \"#utility.yul\":3469:3470   */\n  0x08\n    /* \"#utility.yul\":3465:3478   */\n  mul\n    /* \"#utility.yul\":3436:3487   */\n  tag_25\n  jump\t// in\ntag_71:\n    /* \"#utility.yul\":3432:3488   */\n  not\n    /* \"#utility.yul\":3517:3521   */\n  dup1\n    /* \"#utility.yul\":3511:3515   */\n  dup4\n    /* \"#utility.yul\":3507:3522   */\n  and\n    /* \"#utility.yul\":3497:3522   */\n  swap2\n  pop\n    /* \"#utility.yul\":3410:3528   */\n  pop\n    /* \"#utility.yul\":3359:3528   */\n  swap3\n  swap2\n  pop\n  pop\n  jump\t// out\n    /* \"#utility.yul\":3533:3828   */\ntag_27:\n    /* \"#utility.yul\":3609:3613   */\n  0x00\n    /* \"#utility.yul\":3755:3784   */\n  tag_73\n    /* \"#utility.yul\":3780:3783   */\n  dup4\n    /* \"#utility.yul\":3774:3778   */\n  dup4\n    /* \"#utility.yul\":3755:3784   */\n  tag_26\n  jump\t// in\ntag_73:\n    /* \"#utility.yul\":3747:3784   */\n  swap2\n  pop\n    /* \"#utility.yul\":3817:3820   */\n  dup3\n    /* \"#utility.yul\":3814:3815   */\n  0x02\n    /* \"#utility.yul\":3810:3821   */\n  mul\n    /* \"#utility.yul\":3804:3808   */\n  dup3\n    /* \"#utility.yul\":3801:3822   */\n  or\n    /* \"#utility.yul\":3793:3822   */\n  swap1\n  pop\n    /* \"#utility.yul\":3533:3828   */\n  swap3\n  swap2\n  pop\n  pop\n  jump\t// out\n    /* \"#utility.yul\":3833:5228   */\ntag_5:\n    /* \"#utility.yul\":3950:3987   */\n  tag_75\n    /* \"#utility.yul\":3983:3986   */\n  dup3\n    /* \"#utility.yul\":3950:3987   */\n  tag_8\n  jump\t// in\ntag_75:\n    /* \"#utility.yul\":4052:4070   */\n  0xffffffffffffffff\n    /* \"#utility.yul\":4044:4050   */\n  dup2\n    /* \"#utility.yul\":4041:4071   */\n  gt\n    /* \"#utility.yul\":4038:4094   */\n  iszero\n  tag_76\n  jumpi\n    /* \"#utility.yul\":4074:4092   */\n  tag_77\n  tag_9\n  jump\t// in\ntag_77:\n    /* \"#utility.yul\":4038:4094   */\ntag_76:\n    /* \"#utility.yul\":4118:4156   */\n  tag_78\n    /* \"#utility.yul\":4150:4154   */\n  dup3\n    /* \"#utility.yul\":4144:4155   */\n  sload\n    /* \"#utility.yul\":4118:4156   */\n  tag_11\n  jump\t// in\ntag_78:\n    /* \"#utility.yul\":4203:4270   */\n  tag_79\n    /* \"#utility.yul\":4263:4269   */\n  dup3\n    /* \"#utility.yul\":4255:4261   */\n  dup3\n    /* \"#utility.yul\":4249:4253   */\n  dup6\n    /* \"#utility.yul\":4203:4270   */\n  tag_24\n  jump\t// in\ntag_79:\n    /* \"#utility.yul\":4297:4298   */\n  0x00\n    /* \"#utility.yul\":4321:4325   */\n  0x20\n    /* \"#utility.yul\":4308:4325   */\n  swap1\n  pop\n    /* \"#utility.yul\":4353:4355   */\n  0x1f\n    /* \"#utility.yul\":4345:4351   */\n  dup4\n    /* \"#utility.yul\":4342:4356   */\n  gt\n    /* \"#utility.yul\":4370:4371   */\n  0x01\n    /* \"#utility.yul\":4365:4983   */\n  dup2\n  eq\n  tag_81\n  jumpi\n    /* \"#utility.yul\":5027:5028   */\n  0x00\n    /* \"#utility.yul\":5044:5050   */\n  dup5\n    /* \"#utility.yul\":5041:5118   */\n  iszero\n  tag_82\n  jumpi\n    /* \"#utility.yul\":5093:5102   */\n  dup3\n    /* \"#utility.yul\":5088:5091   */\n  dup8\n    /* \"#utility.yul\":5084:5103   */\n  add\n    /* \"#utility.yul\":5078:5104   */\n  mload\n    /* \"#utility.yul\":5069:5104   */\n  swap1\n  pop\n    /* \"#utility.yul\":5041:5118   */\ntag_82:\n    /* \"#utility.yul\":5144:5211   */\n  tag_83\n    /* \"#utility.yul\":5204:5210   */\n  dup6\n    /* \"#utility.yul\":5197:5202   */\n  dup3\n    /* \"#utility.yul\":5144:5211   */\n  tag_27\n  jump\t// in\ntag_83:\n    /* \"#utility.yul\":5138:5142   */\n  dup7\n    /* \"#utility.yul\":5131:5212   */\n  sstore\n    /* \"#utility.yul\":5000:5222   */\n  pop\n    /* \"#utility.yul\":4335:5222   */\n  jump(tag_80)\n    /* \"#utility.yul\":4365:4983   */\ntag_81:\n    /* \"#utility.yul\":4417:4421   */\n  0x1f\n    /* \"#utility.yul\":4413:4422   */\n  not\n    /* \"#utility.yul\":4405:4411   */\n  dup5\n    /* \"#utility.yul\":4401:4423   */\n  and\n    /* \"#utility.yul\":4451:4488   */\n  tag_84\n    /* \"#utility.yul\":4483:4487   */\n  dup7\n    /* \"#utility.yul\":4451:4488   */\n  tag_12\n  jump\t// in\ntag_84:\n    /* \"#utility.yul\":4510:4511   */\n  0x00\n    /* \"#utility.yul\":4524:4732   */\ntag_85:\n    /* \"#utility.yul\":4538:4545   */\n  dup3\n    /* \"#utility.yul\":4535:4536   */\n  dup2\n    /* \"#utility.yul\":4532:4546   */\n  lt\n    /* \"#utility.yul\":4524:4732   */\n  iszero\n  tag_87\n  jumpi\n    /* \"#utility.yul\":4617:4626   */\n  dup5\n    /* \"#utility.yul\":4612:4615   */\n  dup10\n    /* \"#utility.yul\":4608:4627   */\n  add\n    /* \"#utility.yul\":4602:4628   */\n  mload\n    /* \"#utility.yul\":4594:4600   */\n  dup3\n    /* \"#utility.yul\":4587:4629   */\n  sstore\n    /* \"#utility.yul\":4668:4669   */\n  0x01\n    /* \"#utility.yul\":4660:4666   */\n  dup3\n    /* \"#utility.yul\":4656:4670   */\n  add\n    /* \"#utility.yul\":4646:4670   */\n  swap2\n  pop\n    /* \"#utility.yul\":4715:4717   */\n  0x20\n    /* \"#utility.yul\":4704:4713   */\n  dup6\n    /* \"#utility.yul\":4700:4718   */\n  add\n    /* \"#utility.yul\":4687:4718   */\n  swap5\n  pop\n    /* \"#utility.yul\":4561:4565   */\n  0x20\n    /* \"#utility.yul\":4558:4559   */\n  dup2\n    /* \"#utility.yul\":4554:4566   */\n  add\n    /* \"#utility.yul\":4549:4566   */\n  swap1\n  pop\n    /* \"#utility.yul\":4524:4732   */\n  jump(tag_85)\ntag_87:\n    /* \"#utility.yul\":4760:4766   */\n  dup7\n    /* \"#utility.yul\":4751:4758   */\n  dup4\n    /* \"#utility.yul\":4748:4767   */\n  lt\n    /* \"#utility.yul\":4745:4924   */\n  iszero\n  tag_88\n  jumpi\n    /* \"#utility.yul\":4818:4827   */\n  dup5\n    /* \"#utility.yul\":4813:4816   */\n  dup10\n    /* \"#utility.yul\":4809:4828   */\n  add\n    /* \"#utility.yul\":4803:4829   */\n  mload\n    /* \"#utility.yul\":4861:4909   */\n  tag_89\n    /* \"#utility.yul\":4903:4907   */\n  0x1f\n    /* \"#utility.yul\":4895:4901   */\n  dup10\n    /* \"#utility.yul\":4891:4908   */\n  and\n    /* \"#utility.yul\":4880:4889   */\n  dup3\n    /* \"#utility.yul\":4861:4909   */\n  tag_26\n  jump\t// in\ntag_89:\n    /* \"#utility.yul\":4853:4859   */\n  dup4\n    /* \"#utility.yul\":4846:4910   */\n  sstore\n    /* \"#utility.yul\":4768:4924   */\n  pop\n    /* \"#utility.yul\":4745:4924   */\ntag_88:\n    /* \"#utility.yul\":4970:4971   */\n  0x01\n    /* \"#utility.yul\":4966:4967   */\n  0x02\n    /* \"#utility.yul\":4958:4964   */\n  dup9\n    /* \"#utility.yul\":4954:4968   */\n  mul\n    /* \"#utility.yul\":4950:4972   */\n  add\n    /* \"#utility.yul\":4944:4948   */\n  dup9\n    /* \"#utility.yul\":4937:4973   */\n  sstore\n    /* \"#utility.yul\":4372:4983   */\n  pop\n  pop\n  pop\n    /* \"#utility.yul\":4335:5222   */\ntag_80:\n  pop\n    /* \"#utility.yul\":3925:5228   */\n  pop\n  pop\n  pop\n    /* \"#utility.yul\":3833:5228   */\n  pop\n  pop\n  jump\t// out\n    /* \"contracts/ERC20.sol\":4091:6748  contract MillerToken is StandardToken{... */\ntag_7:\n  dataSize(sub_0)\n  dup1\n  dataOffset(sub_0)\n  0x00\n  codecopy\n  0x00\n  return\nstop\n\nsub_0: assembly {\n        /* \"contracts/ERC20.sol\":4091:6748  contract MillerToken is StandardToken{... */\n      mstore(0x40, 0x80)\n      jumpi(tag_1, lt(calldatasize, 0x04))\n      shr(0xe0, calldataload(0x00))\n      dup1\n      0x65f2bc2e\n      gt\n      tag_16\n      jumpi\n      dup1\n      0x95d89b41\n      gt\n      tag_17\n      jumpi\n      dup1\n      0x95d89b41\n      eq\n      tag_12\n      jumpi\n      dup1\n      0xa9059cbb\n      eq\n      tag_13\n      jumpi\n      dup1\n      0xcae9ca51\n      eq\n      tag_14\n      jumpi\n      dup1\n      0xdd62ed3e\n      eq\n      tag_15\n      jumpi\n      jump(tag_2)\n    tag_17:\n      dup1\n      0x65f2bc2e\n      eq\n      tag_9\n      jumpi\n      dup1\n      0x70a08231\n      eq\n      tag_10\n      jumpi\n      dup1\n      0x933ba413\n      eq\n      tag_11\n      jumpi\n      jump(tag_2)\n    tag_16:\n      dup1\n      0x06fdde03\n      eq\n      tag_3\n      jumpi\n      dup1\n      0x095ea7b3\n      eq\n      tag_4\n      jumpi\n      dup1\n      0x18160ddd\n      eq\n      tag_5\n      jumpi\n      dup1\n      0x2194f3a2\n      eq\n      tag_6\n      jumpi\n      dup1\n      0x23b872dd\n      eq\n      tag_7\n      jumpi\n      dup1\n      0x313ce567\n      eq\n      tag_8\n      jumpi\n      jump(tag_2)\n    tag_1:\n      jumpi(tag_2, calldatasize)\n        /* \"contracts/ERC20.sol\":5878:5887  msg.value */\n      callvalue\n        /* \"contracts/ERC20.sol\":5861:5874  totalEthInWei */\n      0x07\n      0x00\n        /* \"contracts/ERC20.sol\":5861:5887  totalEthInWei += msg.value */\n      dup3\n      dup3\n      sload\n      tag_20\n      swap2\n      swap1\n      tag_21\n      jump\t// in\n    tag_20:\n      swap3\n      pop\n      pop\n      dup2\n      swap1\n      sstore\n      pop\n        /* \"contracts/ERC20.sol\":5897:5911  uint256 amount */\n      0x00\n        /* \"contracts/ERC20.sol\":5926:5943  unitsOneEthCanBuy */\n      sload(0x06)\n        /* \"contracts/ERC20.sol\":5914:5923  msg.value */\n      callvalue\n        /* \"contracts/ERC20.sol\":5914:5943  msg.value * unitsOneEthCanBuy */\n      tag_22\n      swap2\n      swap1\n      tag_23\n      jump\t// in\n    tag_22:\n        /* \"contracts/ERC20.sol\":5897:5943  uint256 amount = msg.value * unitsOneEthCanBuy */\n      swap1\n      pop\n        /* \"contracts/ERC20.sol\":5986:5992  amount */\n      dup1\n        /* \"contracts/ERC20.sol\":5961:5969  balances */\n      0x00\n        /* \"contracts/ERC20.sol\":5961:5982  balances[fundsWallet] */\n      dup1\n        /* \"contracts/ERC20.sol\":5970:5981  fundsWallet */\n      0x08\n      0x00\n      swap1\n      sload\n      swap1\n      0x0100\n      exp\n      swap1\n      div\n      0xffffffffffffffffffffffffffffffffffffffff\n      and\n        /* \"contracts/ERC20.sol\":5961:5982  balances[fundsWallet] */\n      0xffffffffffffffffffffffffffffffffffffffff\n      and\n      0xffffffffffffffffffffffffffffffffffffffff\n      and\n      dup2\n      mstore\n      0x20\n      add\n      swap1\n      dup2\n      mstore\n      0x20\n      add\n      0x00\n      keccak256\n      sload\n        /* \"contracts/ERC20.sol\":5961:5992  balances[fundsWallet] >= amount */\n      lt\n      iszero\n        /* \"contracts/ERC20.sol\":5953:6033  require(balances[fundsWallet] >= amount, \"Not enough tokens in the fund wallet\") */\n      tag_24\n      jumpi\n      mload(0x40)\n      0x08c379a000000000000000000000000000000000000000000000000000000000\n      dup2\n      mstore\n      0x04\n      add\n      tag_25\n      swap1\n      tag_26\n      jump\t// in\n    tag_25:\n      mload(0x40)\n      dup1\n      swap2\n      sub\n      swap1\n      revert\n    tag_24:\n        /* \"contracts/ERC20.sol\":6069:6075  amount */\n      dup1\n        /* \"contracts/ERC20.sol\":6044:6052  balances */\n      0x00\n        /* \"contracts/ERC20.sol\":6044:6065  balances[fundsWallet] */\n      dup1\n        /* \"contracts/ERC20.sol\":6053:6064  fundsWallet */\n      0x08\n      0x00\n      swap1\n      sload\n      swap1\n      0x0100\n      exp\n      swap1\n      div\n      0xffffffffffffffffffffffffffffffffffffffff\n      and\n        /* \"contracts/ERC20.sol\":6044:6065  balances[fundsWallet] */\n      0xffffffffffffffffffffffffffffffffffffffff\n      and\n      0xffffffffffffffffffffffffffffffffffffffff\n      and\n      dup2\n      mstore\n      0x20\n      add\n      swap1\n      dup2\n      mstore\n      0x20\n      add\n      0x00\n      keccak256\n      0x00\n        /* \"contracts/ERC20.sol\":6044:6075  balances[fundsWallet] -= amount */\n      dup3\n      dup3\n      sload\n      tag_27\n      swap2\n      swap1\n      tag_28\n      jump\t// in\n    tag_27:\n      swap3\n      pop\n      pop\n      dup2\n      swap1\n      sstore\n      pop\n        /* \"contracts/ERC20.sol\":6109:6115  amount */\n      dup1\n        /* \"contracts/ERC20.sol\":6085:6093  balances */\n      0x00\n        /* \"contracts/ERC20.sol\":6085:6105  balances[msg.sender] */\n      dup1\n        /* \"contracts/ERC20.sol\":6094:6104  msg.sender */\n      caller\n        /* \"contracts/ERC20.sol\":6085:6105  balances[msg.sender] */\n      0xffffffffffffffffffffffffffffffffffffffff\n      and\n      0xffffffffffffffffffffffffffffffffffffffff\n      and\n      dup2\n      mstore\n      0x20\n      add\n      swap1\n      dup2\n      mstore\n      0x20\n      add\n      0x00\n      keccak256\n      0x00\n        /* \"contracts/ERC20.sol\":6085:6115  balances[msg.sender] += amount */\n      dup3\n      dup3\n      sload\n      tag_29\n      swap2\n      swap1\n      tag_21\n      jump\t// in\n    tag_29:\n      swap3\n      pop\n      pop\n      dup2\n      swap1\n      sstore\n      pop\n        /* \"contracts/ERC20.sol\":6153:6163  msg.sender */\n      caller\n        /* \"contracts/ERC20.sol\":6131:6172  Transfer(fundsWallet, msg.sender, amount) */\n      0xffffffffffffffffffffffffffffffffffffffff\n      and\n        /* \"contracts/ERC20.sol\":6140:6151  fundsWallet */\n      0x08\n      0x00\n      swap1\n      sload\n      swap1\n      0x0100\n      exp\n      swap1\n      div\n      0xffffffffffffffffffffffffffffffffffffffff\n      and\n        /* \"contracts/ERC20.sol\":6131:6172  Transfer(fundsWallet, msg.sender, amount) */\n      0xffffffffffffffffffffffffffffffffffffffff\n      and\n      0xddf252ad1be2c89b69c2b068fc378daa952ba7f163c4a11628f55a4df523b3ef\n        /* \"contracts/ERC20.sol\":6165:6171  amount */\n      dup4\n        /* \"contracts/ERC20.sol\":6131:6172  Transfer(fundsWallet, msg.sender, amount) */\n      mload(0x40)\n      tag_30\n      swap2\n      swap1\n      tag_31\n      jump\t// in\n    tag_30:\n      mload(0x40)\n      dup1\n      swap2\n      sub\n      swap1\n      log3\n        /* \"contracts/ERC20.sol\":6191:6202  fundsWallet */\n      0x08\n      0x00\n      swap1\n      sload\n      swap1\n      0x0100\n      exp\n      swap1\n      div\n      0xffffffffffffffffffffffffffffffffffffffff\n      and\n        /* \"contracts/ERC20.sol\":6183:6212  payable(fundsWallet).transfer */\n      0xffffffffffffffffffffffffffffffffffffffff\n      and\n        /* \"contracts/ERC20.sol\":6183:6223  payable(fundsWallet).transfer(msg.value) */\n      0x08fc\n        /* \"contracts/ERC20.sol\":6213:6222  msg.value */\n      callvalue\n        /* \"contracts/ERC20.sol\":6183:6223  payable(fundsWallet).transfer(msg.value) */\n      swap1\n      dup2\n      iszero\n      mul\n      swap1\n      mload(0x40)\n      0x00\n      mload(0x40)\n      dup1\n      dup4\n      sub\n      dup2\n      dup6\n      dup9\n      dup9\n      call\n      swap4\n      pop\n      pop\n      pop\n      pop\n      iszero\n      dup1\n      iszero\n      tag_33\n      jumpi\n      returndatasize\n      0x00\n      dup1\n      returndatacopy\n      revert(0x00, returndatasize)\n    tag_33:\n      stop\n        /* \"contracts/ERC20.sol\":4091:6748  contract MillerToken is StandardToken{... */\n    tag_2:\n      0x00\n      dup1\n      revert\n        /* \"contracts/ERC20.sol\":4134:4152  string public name */\n    tag_3:\n      callvalue\n      dup1\n      iszero\n      tag_34\n      jumpi\n      0x00\n      dup1\n      revert\n    tag_34:\n      pop\n      tag_35\n      tag_36\n      jump\t// in\n    tag_35:\n      mload(0x40)\n      tag_37\n      swap2\n      swap1\n      tag_38\n      jump\t// in\n    tag_37:\n      mload(0x40)\n      dup1\n      swap2\n      sub\n      swap1\n      return\n        /* \"contracts/ERC20.sol\":3708:3929  function approve(address _spender, uint256 _value) external override returns (bool success) {... */\n    tag_4:\n      callvalue\n      dup1\n      iszero\n      tag_39\n      jumpi\n      0x00\n      dup1\n      revert\n    tag_39:\n      pop\n      tag_40\n      0x04\n      dup1\n      calldatasize\n      sub\n      dup2\n      add\n      swap1\n      tag_41\n      swap2\n      swap1\n      tag_42\n      jump\t// in\n    tag_41:\n      tag_43\n      jump\t// in\n    tag_40:\n      mload(0x40)\n      tag_44\n      swap2\n      swap1\n      tag_45\n      jump\t// in\n    tag_44:\n      mload(0x40)\n      dup1\n      swap2\n      sub\n      swap1\n      return\n        /* \"contracts/ERC20.sol\":136:200  function totalSupply() external view returns (uint256 supply) {} */\n    tag_5:\n      callvalue\n      dup1\n      iszero\n      tag_46\n      jumpi\n      0x00\n      dup1\n      revert\n    tag_46:\n      pop\n      tag_47\n      tag_48\n      jump\t// in\n    tag_47:\n      mload(0x40)\n      tag_49\n      swap2\n      swap1\n      tag_31\n      jump\t// in\n    tag_49:\n      mload(0x40)\n      dup1\n      swap2\n      sub\n      swap1\n      return\n        /* \"contracts/ERC20.sol\":4601:4627  address public fundsWallet */\n    tag_6:\n      callvalue\n      dup1\n      iszero\n      tag_50\n      jumpi\n      0x00\n      dup1\n      revert\n    tag_50:\n      pop\n      tag_51\n      tag_52\n      jump\t// in\n    tag_51:\n      mload(0x40)\n      tag_53\n      swap2\n      swap1\n      tag_54\n      jump\t// in\n    tag_53:\n      mload(0x40)\n      dup1\n      swap2\n      sub\n      swap1\n      return\n        /* \"contracts/ERC20.sol\":2898:3572  function transferFrom(address _from, address _to, uint256 _value) external override returns (bool success) {... */\n    tag_7:\n      callvalue\n      dup1\n      iszero\n      tag_55\n      jumpi\n      0x00\n      dup1\n      revert\n    tag_55:\n      pop\n      tag_56\n      0x04\n      dup1\n      calldatasize\n      sub\n      dup2\n      add\n      swap1\n      tag_57\n      swap2\n      swap1\n      tag_58\n      jump\t// in\n    tag_57:\n      tag_59\n      jump\t// in\n    tag_56:\n      mload(0x40)\n      tag_60\n      swap2\n      swap1\n      tag_45\n      jump\t// in\n    tag_60:\n      mload(0x40)\n      dup1\n      swap2\n      sub\n      swap1\n      return\n        /* \"contracts/ERC20.sol\":4190:4211  uint8 public decimals */\n    tag_8:\n      callvalue\n      dup1\n      iszero\n      tag_61\n      jumpi\n      0x00\n      dup1\n      revert\n    tag_61:\n      pop\n      tag_62\n      tag_63\n      jump\t// in\n    tag_62:\n      mload(0x40)\n      tag_64\n      swap2\n      swap1\n      tag_65\n      jump\t// in\n    tag_64:\n      mload(0x40)\n      dup1\n      swap2\n      sub\n      swap1\n      return\n        /* \"contracts/ERC20.sol\":4377:4409  uint256 public unitsOneEthCanBuy */\n    tag_9:\n      callvalue\n      dup1\n      iszero\n      tag_66\n      jumpi\n      0x00\n      dup1\n      revert\n    tag_66:\n      pop\n      tag_67\n      tag_68\n      jump\t// in\n    tag_67:\n      mload(0x40)\n      tag_69\n      swap2\n      swap1\n      tag_31\n      jump\t// in\n    tag_69:\n      mload(0x40)\n      dup1\n      swap2\n      sub\n      swap1\n      return\n        /* \"contracts/ERC20.sol\":3578:3702  function balanceOf(address _owner) external view override returns (uint256 balance) {... */\n    tag_10:\n      callvalue\n      dup1\n      iszero\n      tag_70\n      jumpi\n      0x00\n      dup1\n      revert\n    tag_70:\n      pop\n      tag_71\n      0x04\n      dup1\n      calldatasize\n      sub\n      dup2\n      add\n      swap1\n      tag_72\n      swap2\n      swap1\n      tag_73\n      jump\t// in\n    tag_72:\n      tag_74\n      jump\t// in\n    tag_71:\n      mload(0x40)\n      tag_75\n      swap2\n      swap1\n      tag_31\n      jump\t// in\n    tag_75:\n      mload(0x40)\n      dup1\n      swap2\n      sub\n      swap1\n      return\n        /* \"contracts/ERC20.sol\":4505:4533  uint256 public totalEthInWei */\n    tag_11:\n      callvalue\n      dup1\n      iszero\n      tag_76\n      jumpi\n      0x00\n      dup1\n      revert\n    tag_76:\n      pop\n      tag_77\n      tag_78\n      jump\t// in\n    tag_77:\n      mload(0x40)\n      tag_79\n      swap2\n      swap1\n      tag_31\n      jump\t// in\n    tag_79:\n      mload(0x40)\n      dup1\n      swap2\n      sub\n      swap1\n      return\n        /* \"contracts/ERC20.sol\":4299:4319  string public symbol */\n    tag_12:\n      callvalue\n      dup1\n      iszero\n      tag_80\n      jumpi\n      0x00\n      dup1\n      revert\n    tag_80:\n      pop\n      tag_81\n      tag_82\n      jump\t// in\n    tag_81:\n      mload(0x40)\n      tag_83\n      swap2\n      swap1\n      tag_38\n      jump\t// in\n    tag_83:\n      mload(0x40)\n      dup1\n      swap2\n      sub\n      swap1\n      return\n        /* \"contracts/ERC20.sol\":2210:2891  function transfer(address _to, uint256 _value) external override returns (bool success) {... */\n    tag_13:\n      callvalue\n      dup1\n      iszero\n      tag_84\n      jumpi\n      0x00\n      dup1\n      revert\n    tag_84:\n      pop\n      tag_85\n      0x04\n      dup1\n      calldatasize\n      sub\n      dup2\n      add\n      swap1\n      tag_86\n      swap2\n      swap1\n      tag_42\n      jump\t// in\n    tag_86:\n      tag_87\n      jump\t// in\n    tag_85:\n      mload(0x40)\n      tag_88\n      swap2\n      swap1\n      tag_45\n      jump\t// in\n    tag_88:\n      mload(0x40)\n      dup1\n      swap2\n      sub\n      swap1\n      return\n        /* \"contracts/ERC20.sol\":6236:6745  function approveAndCall(address _spender, uint256 _value, bytes calldata _extraData) external returns (bool success) {... */\n    tag_14:\n      callvalue\n      dup1\n      iszero\n      tag_89\n      jumpi\n      0x00\n      dup1\n      revert\n    tag_89:\n      pop\n      tag_90\n      0x04\n      dup1\n      calldatasize\n      sub\n      dup2\n      add\n      swap1\n      tag_91\n      swap2\n      swap1\n      tag_92\n      jump\t// in\n    tag_91:\n      tag_93\n      jump\t// in\n    tag_90:\n      mload(0x40)\n      tag_94\n      swap2\n      swap1\n      tag_45\n      jump\t// in\n    tag_94:\n      mload(0x40)\n      dup1\n      swap2\n      sub\n      swap1\n      return\n        /* \"contracts/ERC20.sol\":3935:4086  function allowance(address _owner, address _spender) external view override returns (uint256 remaining) {... */\n    tag_15:\n      callvalue\n      dup1\n      iszero\n      tag_95\n      jumpi\n      0x00\n      dup1\n      revert\n    tag_95:\n      pop\n      tag_96\n      0x04\n      dup1\n      calldatasize\n      sub\n      dup2\n      add\n      swap1\n      tag_97\n      swap2\n      swap1\n      tag_98\n      jump\t// in\n    tag_97:\n      tag_99\n      jump\t// in\n    tag_96:\n      mload(0x40)\n      tag_100\n      swap2\n      swap1\n      tag_31\n      jump\t// in\n    tag_100:\n      mload(0x40)\n      dup1\n      swap2\n      sub\n      swap1\n      return\n        /* \"contracts/ERC20.sol\":4134:4152  string public name */\n    tag_36:\n      0x03\n      dup1\n      sload\n      tag_101\n      swap1\n      tag_102\n      jump\t// in\n    tag_101:\n      dup1\n      0x1f\n      add\n      0x20\n      dup1\n      swap2\n      div\n      mul\n      0x20\n      add\n      mload(0x40)\n      swap1\n      dup2\n      add\n      0x40\n      mstore\n      dup1\n      swap3\n      swap2\n      swap1\n      dup2\n      dup2\n      mstore\n      0x20\n      add\n      dup3\n      dup1\n      sload\n      tag_103\n      swap1\n      tag_102\n      jump\t// in\n    tag_103:\n      dup1\n      iszero\n      tag_104\n      jumpi\n      dup1\n      0x1f\n      lt\n      tag_105\n      jumpi\n      0x0100\n      dup1\n      dup4\n      sload\n      div\n      mul\n      dup4\n      mstore\n      swap2\n      0x20\n      add\n      swap2\n      jump(tag_104)\n    tag_105:\n      dup3\n      add\n      swap2\n      swap1\n      0x00\n      mstore\n      keccak256(0x00, 0x20)\n      swap1\n    tag_106:\n      dup2\n      sload\n      dup2\n      mstore\n      swap1\n      0x01\n      add\n      swap1\n      0x20\n      add\n      dup1\n      dup4\n      gt\n      tag_106\n      jumpi\n      dup3\n      swap1\n      sub\n      0x1f\n      and\n      dup3\n      add\n      swap2\n    tag_104:\n      pop\n      pop\n      pop\n      pop\n      pop\n      dup2\n      jump\t// out\n        /* \"contracts/ERC20.sol\":3708:3929  function approve(address _spender, uint256 _value) external override returns (bool success) {... */\n    tag_43:\n        /* \"contracts/ERC20.sol\":3786:3798  bool success */\n      0x00\n        /* \"contracts/ERC20.sol\":3842:3848  _value */\n      dup2\n        /* \"contracts/ERC20.sol\":3810:3817  allowed */\n      0x01\n        /* \"contracts/ERC20.sol\":3810:3829  allowed[msg.sender] */\n      0x00\n        /* \"contracts/ERC20.sol\":3818:3828  msg.sender */\n      caller\n        /* \"contracts/ERC20.sol\":3810:3829  allowed[msg.sender] */\n      0xffffffffffffffffffffffffffffffffffffffff\n      and\n      0xffffffffffffffffffffffffffffffffffffffff\n      and\n      dup2\n      mstore\n      0x20\n      add\n      swap1\n      dup2\n      mstore\n      0x20\n      add\n      0x00\n      keccak256\n        /* \"contracts/ERC20.sol\":3810:3839  allowed[msg.sender][_spender] */\n      0x00\n        /* \"contracts/ERC20.sol\":3830:3838  _spender */\n      dup6\n        /* \"contracts/ERC20.sol\":3810:3839  allowed[msg.sender][_spender] */\n      0xffffffffffffffffffffffffffffffffffffffff\n      and\n      0xffffffffffffffffffffffffffffffffffffffff\n      and\n      dup2\n      mstore\n      0x20\n      add\n      swap1\n      dup2\n      mstore\n      0x20\n      add\n      0x00\n      keccak256\n        /* \"contracts/ERC20.sol\":3810:3848  allowed[msg.sender][_spender] = _value */\n      dup2\n      swap1\n      sstore\n      pop\n        /* \"contracts/ERC20.sol\":3884:3892  _spender */\n      dup3\n        /* \"contracts/ERC20.sol\":3863:3901  Approval(msg.sender, _spender, _value) */\n      0xffffffffffffffffffffffffffffffffffffffff\n      and\n        /* \"contracts/ERC20.sol\":3872:3882  msg.sender */\n      caller\n        /* \"contracts/ERC20.sol\":3863:3901  Approval(msg.sender, _spender, _value) */\n      0xffffffffffffffffffffffffffffffffffffffff\n      and\n      0x8c5be1e5ebec7d5bd14f71427d1e84f3dd0314c0f7b2291e5b200ac8c7c3b925\n        /* \"contracts/ERC20.sol\":3894:3900  _value */\n      dup5\n        /* \"contracts/ERC20.sol\":3863:3901  Approval(msg.sender, _spender, _value) */\n      mload(0x40)\n      tag_108\n      swap2\n      swap1\n      tag_31\n      jump\t// in\n    tag_108:\n      mload(0x40)\n      dup1\n      swap2\n      sub\n      swap1\n      log3\n        /* \"contracts/ERC20.sol\":3918:3922  true */\n      0x01\n        /* \"contracts/ERC20.sol\":3911:3922  return true */\n      swap1\n      pop\n        /* \"contracts/ERC20.sol\":3708:3929  function approve(address _spender, uint256 _value) external override returns (bool success) {... */\n      swap3\n      swap2\n      pop\n      pop\n      jump\t// out\n        /* \"contracts/ERC20.sol\":136:200  function totalSupply() external view returns (uint256 supply) {} */\n    tag_48:\n        /* \"contracts/ERC20.sol\":182:196  uint256 supply */\n      0x00\n        /* \"contracts/ERC20.sol\":136:200  function totalSupply() external view returns (uint256 supply) {} */\n      swap1\n      jump\t// out\n        /* \"contracts/ERC20.sol\":4601:4627  address public fundsWallet */\n    tag_52:\n      0x08\n      0x00\n      swap1\n      sload\n      swap1\n      0x0100\n      exp\n      swap1\n      div\n      0xffffffffffffffffffffffffffffffffffffffff\n      and\n      dup2\n      jump\t// out\n        /* \"contracts/ERC20.sol\":2898:3572  function transferFrom(address _from, address _to, uint256 _value) external override returns (bool success) {... */\n    tag_59:\n        /* \"contracts/ERC20.sol\":2991:3003  bool success */\n      0x00\n        /* \"contracts/ERC20.sol\":3272:3278  _value */\n      dup2\n        /* \"contracts/ERC20.sol\":3253:3261  balances */\n      0x00\n        /* \"contracts/ERC20.sol\":3253:3268  balances[_from] */\n      dup1\n        /* \"contracts/ERC20.sol\":3262:3267  _from */\n      dup7\n        /* \"contracts/ERC20.sol\":3253:3268  balances[_from] */\n      0xffffffffffffffffffffffffffffffffffffffff\n      and\n      0xffffffffffffffffffffffffffffffffffffffff\n      and\n      dup2\n      mstore\n      0x20\n      add\n      swap1\n      dup2\n      mstore\n      0x20\n      add\n      0x00\n      keccak256\n      sload\n        /* \"contracts/ERC20.sol\":3253:3278  balances[_from] >= _value */\n      lt\n      iszero\n        /* \"contracts/ERC20.sol\":3253:3318  balances[_from] >= _value && allowed[_from][msg.sender] >= _value */\n      dup1\n      iszero\n      tag_111\n      jumpi\n      pop\n        /* \"contracts/ERC20.sol\":3312:3318  _value */\n      dup2\n        /* \"contracts/ERC20.sol\":3282:3289  allowed */\n      0x01\n        /* \"contracts/ERC20.sol\":3282:3296  allowed[_from] */\n      0x00\n        /* \"contracts/ERC20.sol\":3290:3295  _from */\n      dup7\n        /* \"contracts/ERC20.sol\":3282:3296  allowed[_from] */\n      0xffffffffffffffffffffffffffffffffffffffff\n      and\n      0xffffffffffffffffffffffffffffffffffffffff\n      and\n      dup2\n      mstore\n      0x20\n      add\n      swap1\n      dup2\n      mstore\n      0x20\n      add\n      0x00\n      keccak256\n        /* \"contracts/ERC20.sol\":3282:3308  allowed[_from][msg.sender] */\n      0x00\n        /* \"contracts/ERC20.sol\":3297:3307  msg.sender */\n      caller\n        /* \"contracts/ERC20.sol\":3282:3308  allowed[_from][msg.sender] */\n      0xffffffffffffffffffffffffffffffffffffffff\n      and\n      0xffffffffffffffffffffffffffffffffffffffff\n      and\n      dup2\n      mstore\n      0x20\n      add\n      swap1\n      dup2\n      mstore\n      0x20\n      add\n      0x00\n      keccak256\n      sload\n        /* \"contracts/ERC20.sol\":3282:3318  allowed[_from][msg.sender] >= _value */\n      lt\n      iszero\n        /* \"contracts/ERC20.sol\":3253:3318  balances[_from] >= _value && allowed[_from][msg.sender] >= _value */\n    tag_111:\n        /* \"contracts/ERC20.sol\":3253:3332  balances[_from] >= _value && allowed[_from][msg.sender] >= _value && _value > 0 */\n      dup1\n      iszero\n      tag_112\n      jumpi\n      pop\n        /* \"contracts/ERC20.sol\":3331:3332  0 */\n      0x00\n        /* \"contracts/ERC20.sol\":3322:3328  _value */\n      dup3\n        /* \"contracts/ERC20.sol\":3322:3332  _value > 0 */\n      gt\n        /* \"contracts/ERC20.sol\":3253:3332  balances[_from] >= _value && allowed[_from][msg.sender] >= _value && _value > 0 */\n    tag_112:\n        /* \"contracts/ERC20.sol\":3249:3566  if (balances[_from] >= _value && allowed[_from][msg.sender] >= _value && _value > 0) {... */\n      iszero\n      tag_113\n      jumpi\n        /* \"contracts/ERC20.sol\":3365:3371  _value */\n      dup2\n        /* \"contracts/ERC20.sol\":3348:3356  balances */\n      0x00\n        /* \"contracts/ERC20.sol\":3348:3361  balances[_to] */\n      dup1\n        /* \"contracts/ERC20.sol\":3357:3360  _to */\n      dup6\n        /* \"contracts/ERC20.sol\":3348:3361  balances[_to] */\n      0xffffffffffffffffffffffffffffffffffffffff\n      and\n      0xffffffffffffffffffffffffffffffffffffffff\n      and\n      dup2\n      mstore\n      0x20\n      add\n      swap1\n      dup2\n      mstore\n      0x20\n      add\n      0x00\n      keccak256\n      0x00\n        /* \"contracts/ERC20.sol\":3348:3371  balances[_to] += _value */\n      dup3\n      dup3\n      sload\n      tag_114\n      swap2\n      swap1\n      tag_21\n      jump\t// in\n    tag_114:\n      swap3\n      pop\n      pop\n      dup2\n      swap1\n      sstore\n      pop\n        /* \"contracts/ERC20.sol\":3404:3410  _value */\n      dup2\n        /* \"contracts/ERC20.sol\":3385:3393  balances */\n      0x00\n        /* \"contracts/ERC20.sol\":3385:3400  balances[_from] */\n      dup1\n        /* \"contracts/ERC20.sol\":3394:3399  _from */\n      dup7\n        /* \"contracts/ERC20.sol\":3385:3400  balances[_from] */\n      0xffffffffffffffffffffffffffffffffffffffff\n      and\n      0xffffffffffffffffffffffffffffffffffffffff\n      and\n      dup2\n      mstore\n      0x20\n      add\n      swap1\n      dup2\n      mstore\n      0x20\n      add\n      0x00\n      keccak256\n      0x00\n        /* \"contracts/ERC20.sol\":3385:3410  balances[_from] -= _value */\n      dup3\n      dup3\n      sload\n      tag_115\n      swap2\n      swap1\n      tag_28\n      jump\t// in\n    tag_115:\n      swap3\n      pop\n      pop\n      dup2\n      swap1\n      sstore\n      pop\n        /* \"contracts/ERC20.sol\":3454:3460  _value */\n      dup2\n        /* \"contracts/ERC20.sol\":3424:3431  allowed */\n      0x01\n        /* \"contracts/ERC20.sol\":3424:3438  allowed[_from] */\n      0x00\n        /* \"contracts/ERC20.sol\":3432:3437  _from */\n      dup7\n        /* \"contracts/ERC20.sol\":3424:3438  allowed[_from] */\n      0xffffffffffffffffffffffffffffffffffffffff\n      and\n      0xffffffffffffffffffffffffffffffffffffffff\n      and\n      dup2\n      mstore\n      0x20\n      add\n      swap1\n      dup2\n      mstore\n      0x20\n      add\n      0x00\n      keccak256\n        /* \"contracts/ERC20.sol\":3424:3450  allowed[_from][msg.sender] */\n      0x00\n        /* \"contracts/ERC20.sol\":3439:3449  msg.sender */\n      caller\n        /* \"contracts/ERC20.sol\":3424:3450  allowed[_from][msg.sender] */\n      0xffffffffffffffffffffffffffffffffffffffff\n      and\n      0xffffffffffffffffffffffffffffffffffffffff\n      and\n      dup2\n      mstore\n      0x20\n      add\n      swap1\n      dup2\n      mstore\n      0x20\n      add\n      0x00\n      keccak256\n      0x00\n        /* \"contracts/ERC20.sol\":3424:3460  allowed[_from][msg.sender] -= _value */\n      dup3\n      dup3\n      sload\n      tag_116\n      swap2\n      swap1\n      tag_28\n      jump\t// in\n    tag_116:\n      swap3\n      pop\n      pop\n      dup2\n      swap1\n      sstore\n      pop\n        /* \"contracts/ERC20.sol\":3495:3498  _to */\n      dup3\n        /* \"contracts/ERC20.sol\":3479:3507  Transfer(_from, _to, _value) */\n      0xffffffffffffffffffffffffffffffffffffffff\n      and\n        /* \"contracts/ERC20.sol\":3488:3493  _from */\n      dup5\n        /* \"contracts/ERC20.sol\":3479:3507  Transfer(_from, _to, _value) */\n      0xffffffffffffffffffffffffffffffffffffffff\n      and\n      0xddf252ad1be2c89b69c2b068fc378daa952ba7f163c4a11628f55a4df523b3ef\n        /* \"contracts/ERC20.sol\":3500:3506  _value */\n      dup5\n        /* \"contracts/ERC20.sol\":3479:3507  Transfer(_from, _to, _value) */\n      mload(0x40)\n      tag_117\n      swap2\n      swap1\n      tag_31\n      jump\t// in\n    tag_117:\n      mload(0x40)\n      dup1\n      swap2\n      sub\n      swap1\n      log3\n        /* \"contracts/ERC20.sol\":3528:3532  true */\n      0x01\n        /* \"contracts/ERC20.sol\":3521:3532  return true */\n      swap1\n      pop\n      jump(tag_110)\n        /* \"contracts/ERC20.sol\":3249:3566  if (balances[_from] >= _value && allowed[_from][msg.sender] >= _value && _value > 0) {... */\n    tag_113:\n        /* \"contracts/ERC20.sol\":3558:3563  false */\n      0x00\n        /* \"contracts/ERC20.sol\":3551:3563  return false */\n      swap1\n      pop\n        /* \"contracts/ERC20.sol\":2898:3572  function transferFrom(address _from, address _to, uint256 _value) external override returns (bool success) {... */\n    tag_110:\n      swap4\n      swap3\n      pop\n      pop\n      pop\n      jump\t// out\n        /* \"contracts/ERC20.sol\":4190:4211  uint8 public decimals */\n    tag_63:\n      0x04\n      0x00\n      swap1\n      sload\n      swap1\n      0x0100\n      exp\n      swap1\n      div\n      0xff\n      and\n      dup2\n      jump\t// out\n        /* \"contracts/ERC20.sol\":4377:4409  uint256 public unitsOneEthCanBuy */\n    tag_68:\n      sload(0x06)\n      dup2\n      jump\t// out\n        /* \"contracts/ERC20.sol\":3578:3702  function balanceOf(address _owner) external view override returns (uint256 balance) {... */\n    tag_74:\n        /* \"contracts/ERC20.sol\":3645:3660  uint256 balance */\n      0x00\n        /* \"contracts/ERC20.sol\":3679:3687  balances */\n      dup1\n        /* \"contracts/ERC20.sol\":3679:3695  balances[_owner] */\n      0x00\n        /* \"contracts/ERC20.sol\":3688:3694  _owner */\n      dup4\n        /* \"contracts/ERC20.sol\":3679:3695  balances[_owner] */\n      0xffffffffffffffffffffffffffffffffffffffff\n      and\n      0xffffffffffffffffffffffffffffffffffffffff\n      and\n      dup2\n      mstore\n      0x20\n      add\n      swap1\n      dup2\n      mstore\n      0x20\n      add\n      0x00\n      keccak256\n      sload\n        /* \"contracts/ERC20.sol\":3672:3695  return balances[_owner] */\n      swap1\n      pop\n        /* \"contracts/ERC20.sol\":3578:3702  function balanceOf(address _owner) external view override returns (uint256 balance) {... */\n      swap2\n      swap1\n      pop\n      jump\t// out\n        /* \"contracts/ERC20.sol\":4505:4533  uint256 public totalEthInWei */\n    tag_78:\n      sload(0x07)\n      dup2\n      jump\t// out\n        /* \"contracts/ERC20.sol\":4299:4319  string public symbol */\n    tag_82:\n      0x05\n      dup1\n      sload\n      tag_120\n      swap1\n      tag_102\n      jump\t// in\n    tag_120:\n      dup1\n      0x1f\n      add\n      0x20\n      dup1\n      swap2\n      div\n      mul\n      0x20\n      add\n      mload(0x40)\n      swap1\n      dup2\n      add\n      0x40\n      mstore\n      dup1\n      swap3\n      swap2\n      swap1\n      dup2\n      dup2\n      mstore\n      0x20\n      add\n      dup3\n      dup1\n      sload\n      tag_121\n      swap1\n      tag_102\n      jump\t// in\n    tag_121:\n      dup1\n      iszero\n      tag_122\n      jumpi\n      dup1\n      0x1f\n      lt\n      tag_123\n      jumpi\n      0x0100\n      dup1\n      dup4\n      sload\n      div\n      mul\n      dup4\n      mstore\n      swap2\n      0x20\n      add\n      swap2\n      jump(tag_122)\n    tag_123:\n      dup3\n      add\n      swap2\n      swap1\n      0x00\n      mstore\n      keccak256(0x00, 0x20)\n      swap1\n    tag_124:\n      dup2\n      sload\n      dup2\n      mstore\n      swap1\n      0x01\n      add\n      swap1\n      0x20\n      add\n      dup1\n      dup4\n      gt\n      tag_124\n      jumpi\n      dup3\n      swap1\n      sub\n      0x1f\n      and\n      dup3\n      add\n      swap2\n    tag_122:\n      pop\n      pop\n      pop\n      pop\n      pop\n      dup2\n      jump\t// out\n        /* \"contracts/ERC20.sol\":2210:2891  function transfer(address _to, uint256 _value) external override returns (bool success) {... */\n    tag_87:\n        /* \"contracts/ERC20.sol\":2284:2296  bool success */\n      0x00\n        /* \"contracts/ERC20.sol\":2671:2677  _value */\n      dup2\n        /* \"contracts/ERC20.sol\":2647:2655  balances */\n      0x00\n        /* \"contracts/ERC20.sol\":2647:2667  balances[msg.sender] */\n      dup1\n        /* \"contracts/ERC20.sol\":2656:2666  msg.sender */\n      caller\n        /* \"contracts/ERC20.sol\":2647:2667  balances[msg.sender] */\n      0xffffffffffffffffffffffffffffffffffffffff\n      and\n      0xffffffffffffffffffffffffffffffffffffffff\n      and\n      dup2\n      mstore\n      0x20\n      add\n      swap1\n      dup2\n      mstore\n      0x20\n      add\n      0x00\n      keccak256\n      sload\n        /* \"contracts/ERC20.sol\":2647:2677  balances[msg.sender] >= _value */\n      lt\n      iszero\n        /* \"contracts/ERC20.sol\":2647:2691  balances[msg.sender] >= _value && _value > 0 */\n      dup1\n      iszero\n      tag_126\n      jumpi\n      pop\n        /* \"contracts/ERC20.sol\":2690:2691  0 */\n      0x00\n        /* \"contracts/ERC20.sol\":2681:2687  _value */\n      dup3\n        /* \"contracts/ERC20.sol\":2681:2691  _value > 0 */\n      gt\n        /* \"contracts/ERC20.sol\":2647:2691  balances[msg.sender] >= _value && _value > 0 */\n    tag_126:\n        /* \"contracts/ERC20.sol\":2643:2885  if (balances[msg.sender] >= _value && _value > 0) {... */\n      iszero\n      tag_127\n      jumpi\n        /* \"contracts/ERC20.sol\":2731:2737  _value */\n      dup2\n        /* \"contracts/ERC20.sol\":2707:2715  balances */\n      0x00\n        /* \"contracts/ERC20.sol\":2707:2727  balances[msg.sender] */\n      dup1\n        /* \"contracts/ERC20.sol\":2716:2726  msg.sender */\n      caller\n        /* \"contracts/ERC20.sol\":2707:2727  balances[msg.sender] */\n      0xffffffffffffffffffffffffffffffffffffffff\n      and\n      0xffffffffffffffffffffffffffffffffffffffff\n      and\n      dup2\n      mstore\n      0x20\n      add\n      swap1\n      dup2\n      mstore\n      0x20\n      add\n      0x00\n      keccak256\n      0x00\n        /* \"contracts/ERC20.sol\":2707:2737  balances[msg.sender] -= _value */\n      dup3\n      dup3\n      sload\n      tag_128\n      swap2\n      swap1\n      tag_28\n      jump\t// in\n    tag_128:\n      swap3\n      pop\n      pop\n      dup2\n      swap1\n      sstore\n      pop\n        /* \"contracts/ERC20.sol\":2768:2774  _value */\n      dup2\n        /* \"contracts/ERC20.sol\":2751:2759  balances */\n      0x00\n        /* \"contracts/ERC20.sol\":2751:2764  balances[_to] */\n      dup1\n        /* \"contracts/ERC20.sol\":2760:2763  _to */\n      dup6\n        /* \"contracts/ERC20.sol\":2751:2764  balances[_to] */\n      0xffffffffffffffffffffffffffffffffffffffff\n      and\n      0xffffffffffffffffffffffffffffffffffffffff\n      and\n      dup2\n      mstore\n      0x20\n      add\n      swap1\n      dup2\n      mstore\n      0x20\n      add\n      0x00\n      keccak256\n      0x00\n        /* \"contracts/ERC20.sol\":2751:2774  balances[_to] += _value */\n      dup3\n      dup3\n      sload\n      tag_129\n      swap2\n      swap1\n      tag_21\n      jump\t// in\n    tag_129:\n      swap3\n      pop\n      pop\n      dup2\n      swap1\n      sstore\n      pop\n        /* \"contracts/ERC20.sol\":2814:2817  _to */\n      dup3\n        /* \"contracts/ERC20.sol\":2793:2826  Transfer(msg.sender, _to, _value) */\n      0xffffffffffffffffffffffffffffffffffffffff\n      and\n        /* \"contracts/ERC20.sol\":2802:2812  msg.sender */\n      caller\n        /* \"contracts/ERC20.sol\":2793:2826  Transfer(msg.sender, _to, _value) */\n      0xffffffffffffffffffffffffffffffffffffffff\n      and\n      0xddf252ad1be2c89b69c2b068fc378daa952ba7f163c4a11628f55a4df523b3ef\n        /* \"contracts/ERC20.sol\":2819:2825  _value */\n      dup5\n        /* \"contracts/ERC20.sol\":2793:2826  Transfer(msg.sender, _to, _value) */\n      mload(0x40)\n      tag_130\n      swap2\n      swap1\n      tag_31\n      jump\t// in\n    tag_130:\n      mload(0x40)\n      dup1\n      swap2\n      sub\n      swap1\n      log3\n        /* \"contracts/ERC20.sol\":2847:2851  true */\n      0x01\n        /* \"contracts/ERC20.sol\":2840:2851  return true */\n      swap1\n      pop\n      jump(tag_125)\n        /* \"contracts/ERC20.sol\":2643:2885  if (balances[msg.sender] >= _value && _value > 0) {... */\n    tag_127:\n        /* \"contracts/ERC20.sol\":2877:2882  false */\n      0x00\n        /* \"contracts/ERC20.sol\":2870:2882  return false */\n      swap1\n      pop\n        /* \"contracts/ERC20.sol\":2210:2891  function transfer(address _to, uint256 _value) external override returns (bool success) {... */\n    tag_125:\n      swap3\n      swap2\n      pop\n      pop\n      jump\t// out\n        /* \"contracts/ERC20.sol\":6236:6745  function approveAndCall(address _spender, uint256 _value, bytes calldata _extraData) external returns (bool success) {... */\n    tag_93:\n        /* \"contracts/ERC20.sol\":6339:6351  bool success */\n      0x00\n        /* \"contracts/ERC20.sol\":6395:6401  _value */\n      dup4\n        /* \"contracts/ERC20.sol\":6363:6370  allowed */\n      0x01\n        /* \"contracts/ERC20.sol\":6363:6382  allowed[msg.sender] */\n      0x00\n        /* \"contracts/ERC20.sol\":6371:6381  msg.sender */\n      caller\n        /* \"contracts/ERC20.sol\":6363:6382  allowed[msg.sender] */\n      0xffffffffffffffffffffffffffffffffffffffff\n      and\n      0xffffffffffffffffffffffffffffffffffffffff\n      and\n      dup2\n      mstore\n      0x20\n      add\n      swap1\n      dup2\n      mstore\n      0x20\n      add\n      0x00\n      keccak256\n        /* \"contracts/ERC20.sol\":6363:6392  allowed[msg.sender][_spender] */\n      0x00\n        /* \"contracts/ERC20.sol\":6383:6391  _spender */\n      dup8\n        /* \"contracts/ERC20.sol\":6363:6392  allowed[msg.sender][_spender] */\n      0xffffffffffffffffffffffffffffffffffffffff\n      and\n      0xffffffffffffffffffffffffffffffffffffffff\n      and\n      dup2\n      mstore\n      0x20\n      add\n      swap1\n      dup2\n      mstore\n      0x20\n      add\n      0x00\n      keccak256\n        /* \"contracts/ERC20.sol\":6363:6401  allowed[msg.sender][_spender] = _value */\n      dup2\n      swap1\n      sstore\n      pop\n        /* \"contracts/ERC20.sol\":6437:6445  _spender */\n      dup5\n        /* \"contracts/ERC20.sol\":6416:6454  Approval(msg.sender, _spender, _value) */\n      0xffffffffffffffffffffffffffffffffffffffff\n      and\n        /* \"contracts/ERC20.sol\":6425:6435  msg.sender */\n      caller\n        /* \"contracts/ERC20.sol\":6416:6454  Approval(msg.sender, _spender, _value) */\n      0xffffffffffffffffffffffffffffffffffffffff\n      and\n      0x8c5be1e5ebec7d5bd14f71427d1e84f3dd0314c0f7b2291e5b200ac8c7c3b925\n        /* \"contracts/ERC20.sol\":6447:6453  _value */\n      dup7\n        /* \"contracts/ERC20.sol\":6416:6454  Approval(msg.sender, _spender, _value) */\n      mload(0x40)\n      tag_133\n      swap2\n      swap1\n      tag_31\n      jump\t// in\n    tag_133:\n      mload(0x40)\n      dup1\n      swap2\n      sub\n      swap1\n      log3\n        /* \"contracts/ERC20.sol\":6466:6482  bool successCall */\n      0x00\n        /* \"contracts/ERC20.sol\":6488:6496  _spender */\n      dup6\n        /* \"contracts/ERC20.sol\":6488:6501  _spender.call */\n      0xffffffffffffffffffffffffffffffffffffffff\n      and\n        /* \"contracts/ERC20.sol\":6545:6604  keccak256(\"receiveApproval(address,uint256,address,bytes)\") */\n      0x8f4ffcb1bb44d94232117b8ffa4d02d6690264da1e3430c3916e2c263fa5d3da\n        /* \"contracts/ERC20.sol\":6607:6617  msg.sender */\n      caller\n        /* \"contracts/ERC20.sol\":6619:6625  _value */\n      dup8\n        /* \"contracts/ERC20.sol\":6635:6639  this */\n      address\n        /* \"contracts/ERC20.sol\":6642:6652  _extraData */\n      dup9\n      dup9\n        /* \"contracts/ERC20.sol\":6515:6653  abi.encodeWithSelector(bytes4(keccak256(\"receiveApproval(address,uint256,address,bytes)\")), msg.sender, _value, address(this), _extraData) */\n      add(0x24, mload(0x40))\n      tag_134\n      swap6\n      swap5\n      swap4\n      swap3\n      swap2\n      swap1\n      tag_135\n      jump\t// in\n    tag_134:\n      mload(0x40)\n      0x20\n      dup2\n      dup4\n      sub\n      sub\n      dup2\n      mstore\n      swap1\n      0x40\n      mstore\n      swap1\n      not(0xffffffffffffffffffffffffffffffffffffffffffffffffffffffff)\n      and\n      0x20\n      dup3\n      add\n      dup1\n      mload\n      0xffffffffffffffffffffffffffffffffffffffffffffffffffffffff\n      dup4\n      dup2\n      dup4\n      and\n      or\n      dup4\n      mstore\n      pop\n      pop\n      pop\n      pop\n        /* \"contracts/ERC20.sol\":6488:6663  _spender.call(... */\n      mload(0x40)\n      tag_136\n      swap2\n      swap1\n      tag_137\n      jump\t// in\n    tag_136:\n      0x00\n      mload(0x40)\n      dup1\n      dup4\n      sub\n      dup2\n      0x00\n      dup7\n      gas\n      call\n      swap2\n      pop\n      pop\n      returndatasize\n      dup1\n      0x00\n      dup2\n      eq\n      tag_140\n      jumpi\n      mload(0x40)\n      swap2\n      pop\n      and(add(returndatasize, 0x3f), not(0x1f))\n      dup3\n      add\n      0x40\n      mstore\n      returndatasize\n      dup3\n      mstore\n      returndatasize\n      0x00\n      0x20\n      dup5\n      add\n      returndatacopy\n      jump(tag_139)\n    tag_140:\n      0x60\n      swap2\n      pop\n    tag_139:\n      pop\n        /* \"contracts/ERC20.sol\":6465:6663  (bool successCall, ) = _spender.call(... */\n      pop\n      swap1\n      pop\n        /* \"contracts/ERC20.sol\":6681:6692  successCall */\n      dup1\n        /* \"contracts/ERC20.sol\":6673:6717  require(successCall, \"Approval call failed\") */\n      tag_141\n      jumpi\n      mload(0x40)\n      0x08c379a000000000000000000000000000000000000000000000000000000000\n      dup2\n      mstore\n      0x04\n      add\n      tag_142\n      swap1\n      tag_143\n      jump\t// in\n    tag_142:\n      mload(0x40)\n      dup1\n      swap2\n      sub\n      swap1\n      revert\n    tag_141:\n        /* \"contracts/ERC20.sol\":6734:6738  true */\n      0x01\n        /* \"contracts/ERC20.sol\":6727:6738  return true */\n      swap2\n      pop\n      pop\n        /* \"contracts/ERC20.sol\":6236:6745  function approveAndCall(address _spender, uint256 _value, bytes calldata _extraData) external returns (bool success) {... */\n      swap5\n      swap4\n      pop\n      pop\n      pop\n      pop\n      jump\t// out\n        /* \"contracts/ERC20.sol\":3935:4086  function allowance(address _owner, address _spender) external view override returns (uint256 remaining) {... */\n    tag_99:\n        /* \"contracts/ERC20.sol\":4020:4037  uint256 remaining */\n      0x00\n        /* \"contracts/ERC20.sol\":4054:4061  allowed */\n      0x01\n        /* \"contracts/ERC20.sol\":4054:4069  allowed[_owner] */\n      0x00\n        /* \"contracts/ERC20.sol\":4062:4068  _owner */\n      dup5\n        /* \"contracts/ERC20.sol\":4054:4069  allowed[_owner] */\n      0xffffffffffffffffffffffffffffffffffffffff\n      and\n      0xffffffffffffffffffffffffffffffffffffffff\n      and\n      dup2\n      mstore\n      0x20\n      add\n      swap1\n      dup2\n      mstore\n      0x20\n      add\n      0x00\n      keccak256\n        /* \"contracts/ERC20.sol\":4054:4079  allowed[_owner][_spender] */\n      0x00\n        /* \"contracts/ERC20.sol\":4070:4078  _spender */\n      dup4\n        /* \"contracts/ERC20.sol\":4054:4079  allowed[_owner][_spender] */\n      0xffffffffffffffffffffffffffffffffffffffff\n      and\n      0xffffffffffffffffffffffffffffffffffffffff\n      and\n      dup2\n      mstore\n      0x20\n      add\n      swap1\n      dup2\n      mstore\n      0x20\n      add\n      0x00\n      keccak256\n      sload\n        /* \"contracts/ERC20.sol\":4047:4079  return allowed[_owner][_spender] */\n      swap1\n      pop\n        /* \"contracts/ERC20.sol\":3935:4086  function allowance(address _owner, address _spender) external view override returns (uint256 remaining) {... */\n      swap3\n      swap2\n      pop\n      pop\n      jump\t// out\n        /* \"#utility.yul\":7:84   */\n    tag_145:\n        /* \"#utility.yul\":44:51   */\n      0x00\n        /* \"#utility.yul\":73:78   */\n      dup2\n        /* \"#utility.yul\":62:78   */\n      swap1\n      pop\n        /* \"#utility.yul\":7:84   */\n      swap2\n      swap1\n      pop\n      jump\t// out\n        /* \"#utility.yul\":90:270   */\n    tag_146:\n        /* \"#utility.yul\":138:215   */\n      0x4e487b7100000000000000000000000000000000000000000000000000000000\n        /* \"#utility.yul\":135:136   */\n      0x00\n        /* \"#utility.yul\":128:216   */\n      mstore\n        /* \"#utility.yul\":235:239   */\n      0x11\n        /* \"#utility.yul\":232:233   */\n      0x04\n        /* \"#utility.yul\":225:240   */\n      mstore\n        /* \"#utility.yul\":259:263   */\n      0x24\n        /* \"#utility.yul\":256:257   */\n      0x00\n        /* \"#utility.yul\":249:264   */\n      revert\n        /* \"#utility.yul\":276:467   */\n    tag_21:\n        /* \"#utility.yul\":316:319   */\n      0x00\n        /* \"#utility.yul\":335:355   */\n      tag_186\n        /* \"#utility.yul\":353:354   */\n      dup3\n        /* \"#utility.yul\":335:355   */\n      tag_145\n      jump\t// in\n    tag_186:\n        /* \"#utility.yul\":330:355   */\n      swap2\n      pop\n        /* \"#utility.yul\":369:389   */\n      tag_187\n        /* \"#utility.yul\":387:388   */\n      dup4\n        /* \"#utility.yul\":369:389   */\n      tag_145\n      jump\t// in\n    tag_187:\n        /* \"#utility.yul\":364:389   */\n      swap3\n      pop\n        /* \"#utility.yul\":412:413   */\n      dup3\n        /* \"#utility.yul\":409:410   */\n      dup3\n        /* \"#utility.yul\":405:414   */\n      add\n        /* \"#utility.yul\":398:414   */\n      swap1\n      pop\n        /* \"#utility.yul\":433:436   */\n      dup1\n        /* \"#utility.yul\":430:431   */\n      dup3\n        /* \"#utility.yul\":427:437   */\n      gt\n        /* \"#utility.yul\":424:460   */\n      iszero\n      tag_188\n      jumpi\n        /* \"#utility.yul\":440:458   */\n      tag_189\n      tag_146\n      jump\t// in\n    tag_189:\n        /* \"#utility.yul\":424:460   */\n    tag_188:\n        /* \"#utility.yul\":276:467   */\n      swap3\n      swap2\n      pop\n      pop\n      jump\t// out\n        /* \"#utility.yul\":473:883   */\n    tag_23:\n        /* \"#utility.yul\":513:520   */\n      0x00\n        /* \"#utility.yul\":536:556   */\n      tag_191\n        /* \"#utility.yul\":554:555   */\n      dup3\n        /* \"#utility.yul\":536:556   */\n      tag_145\n      jump\t// in\n    tag_191:\n        /* \"#utility.yul\":531:556   */\n      swap2\n      pop\n        /* \"#utility.yul\":570:590   */\n      tag_192\n        /* \"#utility.yul\":588:589   */\n      dup4\n        /* \"#utility.yul\":570:590   */\n      tag_145\n      jump\t// in\n    tag_192:\n        /* \"#utility.yul\":565:590   */\n      swap3\n      pop\n        /* \"#utility.yul\":625:626   */\n      dup3\n        /* \"#utility.yul\":622:623   */\n      dup3\n        /* \"#utility.yul\":618:627   */\n      mul\n        /* \"#utility.yul\":647:677   */\n      tag_193\n        /* \"#utility.yul\":665:676   */\n      dup2\n        /* \"#utility.yul\":647:677   */\n      tag_145\n      jump\t// in\n    tag_193:\n        /* \"#utility.yul\":636:677   */\n      swap2\n      pop\n        /* \"#utility.yul\":826:827   */\n      dup3\n        /* \"#utility.yul\":817:824   */\n      dup3\n        /* \"#utility.yul\":813:828   */\n      div\n        /* \"#utility.yul\":810:811   */\n      dup5\n        /* \"#utility.yul\":807:829   */\n      eq\n        /* \"#utility.yul\":787:788   */\n      dup4\n        /* \"#utility.yul\":780:789   */\n      iszero\n        /* \"#utility.yul\":760:843   */\n      or\n        /* \"#utility.yul\":737:876   */\n      tag_194\n      jumpi\n        /* \"#utility.yul\":856:874   */\n      tag_195\n      tag_146\n      jump\t// in\n    tag_195:\n        /* \"#utility.yul\":737:876   */\n    tag_194:\n        /* \"#utility.yul\":521:883   */\n      pop\n        /* \"#utility.yul\":473:883   */\n      swap3\n      swap2\n      pop\n      pop\n      jump\t// out\n        /* \"#utility.yul\":889:1058   */\n    tag_147:\n        /* \"#utility.yul\":973:984   */\n      0x00\n        /* \"#utility.yul\":1007:1013   */\n      dup3\n        /* \"#utility.yul\":1002:1005   */\n      dup3\n        /* \"#utility.yul\":995:1014   */\n      mstore\n        /* \"#utility.yul\":1047:1051   */\n      0x20\n        /* \"#utility.yul\":1042:1045   */\n      dup3\n        /* \"#utility.yul\":1038:1052   */\n      add\n        /* \"#utility.yul\":1023:1052   */\n      swap1\n      pop\n        /* \"#utility.yul\":889:1058   */\n      swap3\n      swap2\n      pop\n      pop\n      jump\t// out\n        /* \"#utility.yul\":1064:1287   */\n    tag_148:\n        /* \"#utility.yul\":1204:1238   */\n      0x4e6f7420656e6f75676820746f6b656e7320696e207468652066756e64207761\n        /* \"#utility.yul\":1200:1201   */\n      0x00\n        /* \"#utility.yul\":1192:1198   */\n      dup3\n        /* \"#utility.yul\":1188:1202   */\n      add\n        /* \"#utility.yul\":1181:1239   */\n      mstore\n        /* \"#utility.yul\":1273:1279   */\n      0x6c6c657400000000000000000000000000000000000000000000000000000000\n        /* \"#utility.yul\":1268:1270   */\n      0x20\n        /* \"#utility.yul\":1260:1266   */\n      dup3\n        /* \"#utility.yul\":1256:1271   */\n      add\n        /* \"#utility.yul\":1249:1280   */\n      mstore\n        /* \"#utility.yul\":1064:1287   */\n      pop\n      jump\t// out\n        /* \"#utility.yul\":1293:1659   */\n    tag_149:\n        /* \"#utility.yul\":1435:1438   */\n      0x00\n        /* \"#utility.yul\":1456:1523   */\n      tag_199\n        /* \"#utility.yul\":1520:1522   */\n      0x24\n        /* \"#utility.yul\":1515:1518   */\n      dup4\n        /* \"#utility.yul\":1456:1523   */\n      tag_147\n      jump\t// in\n    tag_199:\n        /* \"#utility.yul\":1449:1523   */\n      swap2\n      pop\n        /* \"#utility.yul\":1532:1625   */\n      tag_200\n        /* \"#utility.yul\":1621:1624   */\n      dup3\n        /* \"#utility.yul\":1532:1625   */\n      tag_148\n      jump\t// in\n    tag_200:\n        /* \"#utility.yul\":1650:1652   */\n      0x40\n        /* \"#utility.yul\":1645:1648   */\n      dup3\n        /* \"#utility.yul\":1641:1653   */\n      add\n        /* \"#utility.yul\":1634:1653   */\n      swap1\n      pop\n        /* \"#utility.yul\":1293:1659   */\n      swap2\n      swap1\n      pop\n      jump\t// out\n        /* \"#utility.yul\":1665:2084   */\n    tag_26:\n        /* \"#utility.yul\":1831:1835   */\n      0x00\n        /* \"#utility.yul\":1869:1871   */\n      0x20\n        /* \"#utility.yul\":1858:1867   */\n      dup3\n        /* \"#utility.yul\":1854:1872   */\n      add\n        /* \"#utility.yul\":1846:1872   */\n      swap1\n      pop\n        /* \"#utility.yul\":1918:1927   */\n      dup2\n        /* \"#utility.yul\":1912:1916   */\n      dup2\n        /* \"#utility.yul\":1908:1928   */\n      sub\n        /* \"#utility.yul\":1904:1905   */\n      0x00\n        /* \"#utility.yul\":1893:1902   */\n      dup4\n        /* \"#utility.yul\":1889:1906   */\n      add\n        /* \"#utility.yul\":1882:1929   */\n      mstore\n        /* \"#utility.yul\":1946:2077   */\n      tag_202\n        /* \"#utility.yul\":2072:2076   */\n      dup2\n        /* \"#utility.yul\":1946:2077   */\n      tag_149\n      jump\t// in\n    tag_202:\n        /* \"#utility.yul\":1938:2077   */\n      swap1\n      pop\n        /* \"#utility.yul\":1665:2084   */\n      swap2\n      swap1\n      pop\n      jump\t// out\n        /* \"#utility.yul\":2090:2284   */\n    tag_28:\n        /* \"#utility.yul\":2130:2134   */\n      0x00\n        /* \"#utility.yul\":2150:2170   */\n      tag_204\n        /* \"#utility.yul\":2168:2169   */\n      dup3\n        /* \"#utility.yul\":2150:2170   */\n      tag_145\n      jump\t// in\n    tag_204:\n        /* \"#utility.yul\":2145:2170   */\n      swap2\n      pop\n        /* \"#utility.yul\":2184:2204   */\n      tag_205\n        /* \"#utility.yul\":2202:2203   */\n      dup4\n        /* \"#utility.yul\":2184:2204   */\n      tag_145\n      jump\t// in\n    tag_205:\n        /* \"#utility.yul\":2179:2204   */\n      swap3\n      pop\n        /* \"#utility.yul\":2228:2229   */\n      dup3\n        /* \"#utility.yul\":2225:2226   */\n      dup3\n        /* \"#utility.yul\":2221:2230   */\n      sub\n        /* \"#utility.yul\":2213:2230   */\n      swap1\n      pop\n        /* \"#utility.yul\":2252:2253   */\n      dup2\n        /* \"#utility.yul\":2246:2250   */\n      dup2\n        /* \"#utility.yul\":2243:2254   */\n      gt\n        /* \"#utility.yul\":2240:2277   */\n      iszero\n      tag_206\n      jumpi\n        /* \"#utility.yul\":2257:2275   */\n      tag_207\n      tag_146\n      jump\t// in\n    tag_207:\n        /* \"#utility.yul\":2240:2277   */\n    tag_206:\n        /* \"#utility.yul\":2090:2284   */\n      swap3\n      swap2\n      pop\n      pop\n      jump\t// out\n        /* \"#utility.yul\":2290:2408   */\n    tag_150:\n        /* \"#utility.yul\":2377:2401   */\n      tag_209\n        /* \"#utility.yul\":2395:2400   */\n      dup2\n        /* \"#utility.yul\":2377:2401   */\n      tag_145\n      jump\t// in\n    tag_209:\n        /* \"#utility.yul\":2372:2375   */\n      dup3\n        /* \"#utility.yul\":2365:2402   */\n      mstore\n        /* \"#utility.yul\":2290:2408   */\n      pop\n      pop\n      jump\t// out\n        /* \"#utility.yul\":2414:2636   */\n    tag_31:\n        /* \"#utility.yul\":2507:2511   */\n      0x00\n        /* \"#utility.yul\":2545:2547   */\n      0x20\n        /* \"#utility.yul\":2534:2543   */\n      dup3\n        /* \"#utility.yul\":2530:2548   */\n      add\n        /* \"#utility.yul\":2522:2548   */\n      swap1\n      pop\n        /* \"#utility.yul\":2558:2629   */\n      tag_211\n        /* \"#utility.yul\":2626:2627   */\n      0x00\n        /* \"#utility.yul\":2615:2624   */\n      dup4\n        /* \"#utility.yul\":2611:2628   */\n      add\n        /* \"#utility.yul\":2602:2608   */\n      dup5\n        /* \"#utility.yul\":2558:2629   */\n      tag_150\n      jump\t// in\n    tag_211:\n        /* \"#utility.yul\":2414:2636   */\n      swap3\n      swap2\n      pop\n      pop\n      jump\t// out\n        /* \"#utility.yul\":2642:2741   */\n    tag_151:\n        /* \"#utility.yul\":2694:2700   */\n      0x00\n        /* \"#utility.yul\":2728:2733   */\n      dup2\n        /* \"#utility.yul\":2722:2734   */\n      mload\n        /* \"#utility.yul\":2712:2734   */\n      swap1\n      pop\n        /* \"#utility.yul\":2642:2741   */\n      swap2\n      swap1\n      pop\n      jump\t// out\n        /* \"#utility.yul\":2747:2886   */\n    tag_152:\n        /* \"#utility.yul\":2836:2842   */\n      dup3\n        /* \"#utility.yul\":2831:2834   */\n      dup2\n        /* \"#utility.yul\":2826:2829   */\n      dup4\n        /* \"#utility.yul\":2820:2843   */\n      mcopy\n        /* \"#utility.yul\":2877:2878   */\n      0x00\n        /* \"#utility.yul\":2868:2874   */\n      dup4\n        /* \"#utility.yul\":2863:2866   */\n      dup4\n        /* \"#utility.yul\":2859:2875   */\n      add\n        /* \"#utility.yul\":2852:2879   */\n      mstore\n        /* \"#utility.yul\":2747:2886   */\n      pop\n      pop\n      pop\n      jump\t// out\n        /* \"#utility.yul\":2892:2994   */\n    tag_153:\n        /* \"#utility.yul\":2933:2939   */\n      0x00\n        /* \"#utility.yul\":2984:2986   */\n      0x1f\n        /* \"#utility.yul\":2980:2987   */\n      not\n        /* \"#utility.yul\":2975:2977   */\n      0x1f\n        /* \"#utility.yul\":2968:2973   */\n      dup4\n        /* \"#utility.yul\":2964:2978   */\n      add\n        /* \"#utility.yul\":2960:2988   */\n      and\n        /* \"#utility.yul\":2950:2988   */\n      swap1\n      pop\n        /* \"#utility.yul\":2892:2994   */\n      swap2\n      swap1\n      pop\n      jump\t// out\n        /* \"#utility.yul\":3000:3377   */\n    tag_154:\n        /* \"#utility.yul\":3088:3091   */\n      0x00\n        /* \"#utility.yul\":3116:3155   */\n      tag_216\n        /* \"#utility.yul\":3149:3154   */\n      dup3\n        /* \"#utility.yul\":3116:3155   */\n      tag_151\n      jump\t// in\n    tag_216:\n        /* \"#utility.yul\":3171:3242   */\n      tag_217\n        /* \"#utility.yul\":3235:3241   */\n      dup2\n        /* \"#utility.yul\":3230:3233   */\n      dup6\n        /* \"#utility.yul\":3171:3242   */\n      tag_147\n      jump\t// in\n    tag_217:\n        /* \"#utility.yul\":3164:3242   */\n      swap4\n      pop\n        /* \"#utility.yul\":3251:3316   */\n      tag_218\n        /* \"#utility.yul\":3309:3315   */\n      dup2\n        /* \"#utility.yul\":3304:3307   */\n      dup6\n        /* \"#utility.yul\":3297:3301   */\n      0x20\n        /* \"#utility.yul\":3290:3295   */\n      dup7\n        /* \"#utility.yul\":3286:3302   */\n      add\n        /* \"#utility.yul\":3251:3316   */\n      tag_152\n      jump\t// in\n    tag_218:\n        /* \"#utility.yul\":3341:3370   */\n      tag_219\n        /* \"#utility.yul\":3363:3369   */\n      dup2\n        /* \"#utility.yul\":3341:3370   */\n      tag_153\n      jump\t// in\n    tag_219:\n        /* \"#utility.yul\":3336:3339   */\n      dup5\n        /* \"#utility.yul\":3332:3371   */\n      add\n        /* \"#utility.yul\":3325:3371   */\n      swap2\n      pop\n        /* \"#utility.yul\":3092:3377   */\n      pop\n        /* \"#utility.yul\":3000:3377   */\n      swap3\n      swap2\n      pop\n      pop\n      jump\t// out\n        /* \"#utility.yul\":3383:3696   */\n    tag_38:\n        /* \"#utility.yul\":3496:3500   */\n      0x00\n        /* \"#utility.yul\":3534:3536   */\n      0x20\n        /* \"#utility.yul\":3523:3532   */\n      dup3\n        /* \"#utility.yul\":3519:3537   */\n      add\n        /* \"#utility.yul\":3511:3537   */\n      swap1\n      pop\n        /* \"#utility.yul\":3583:3592   */\n      dup2\n        /* \"#utility.yul\":3577:3581   */\n      dup2\n        /* \"#utility.yul\":3573:3593   */\n      sub\n        /* \"#utility.yul\":3569:3570   */\n      0x00\n        /* \"#utility.yul\":3558:3567   */\n      dup4\n        /* \"#utility.yul\":3554:3571   */\n      add\n        /* \"#utility.yul\":3547:3594   */\n      mstore\n        /* \"#utility.yul\":3611:3689   */\n      tag_221\n        /* \"#utility.yul\":3684:3688   */\n      dup2\n        /* \"#utility.yul\":3675:3681   */\n      dup5\n        /* \"#utility.yul\":3611:3689   */\n      tag_154\n      jump\t// in\n    tag_221:\n        /* \"#utility.yul\":3603:3689   */\n      swap1\n      pop\n        /* \"#utility.yul\":3383:3696   */\n      swap3\n      swap2\n      pop\n      pop\n      jump\t// out\n        /* \"#utility.yul\":3783:3900   */\n    tag_156:\n        /* \"#utility.yul\":3892:3893   */\n      0x00\n        /* \"#utility.yul\":3889:3890   */\n      dup1\n        /* \"#utility.yul\":3882:3894   */\n      revert\n        /* \"#utility.yul\":3906:4023   */\n    tag_157:\n        /* \"#utility.yul\":4015:4016   */\n      0x00\n        /* \"#utility.yul\":4012:4013   */\n      dup1\n        /* \"#utility.yul\":4005:4017   */\n      revert\n        /* \"#utility.yul\":4029:4155   */\n    tag_158:\n        /* \"#utility.yul\":4066:4073   */\n      0x00\n        /* \"#utility.yul\":4106:4148   */\n      0xffffffffffffffffffffffffffffffffffffffff\n        /* \"#utility.yul\":4099:4104   */\n      dup3\n        /* \"#utility.yul\":4095:4149   */\n      and\n        /* \"#utility.yul\":4084:4149   */\n      swap1\n      pop\n        /* \"#utility.yul\":4029:4155   */\n      swap2\n      swap1\n      pop\n      jump\t// out\n        /* \"#utility.yul\":4161:4257   */\n    tag_159:\n        /* \"#utility.yul\":4198:4205   */\n      0x00\n        /* \"#utility.yul\":4227:4251   */\n      tag_227\n        /* \"#utility.yul\":4245:4250   */\n      dup3\n        /* \"#utility.yul\":4227:4251   */\n      tag_158\n      jump\t// in\n    tag_227:\n        /* \"#utility.yul\":4216:4251   */\n      swap1\n      pop\n        /* \"#utility.yul\":4161:4257   */\n      swap2\n      swap1\n      pop\n      jump\t// out\n        /* \"#utility.yul\":4263:4385   */\n    tag_160:\n        /* \"#utility.yul\":4336:4360   */\n      tag_229\n        /* \"#utility.yul\":4354:4359   */\n      dup2\n        /* \"#utility.yul\":4336:4360   */\n      tag_159\n      jump\t// in\n    tag_229:\n        /* \"#utility.yul\":4329:4334   */\n      dup2\n        /* \"#utility.yul\":4326:4361   */\n      eq\n        /* \"#utility.yul\":4316:4379   */\n      tag_230\n      jumpi\n        /* \"#utility.yul\":4375:4376   */\n      0x00\n        /* \"#utility.yul\":4372:4373   */\n      dup1\n        /* \"#utility.yul\":4365:4377   */\n      revert\n        /* \"#utility.yul\":4316:4379   */\n    tag_230:\n        /* \"#utility.yul\":4263:4385   */\n      pop\n      jump\t// out\n        /* \"#utility.yul\":4391:4530   */\n    tag_161:\n        /* \"#utility.yul\":4437:4442   */\n      0x00\n        /* \"#utility.yul\":4475:4481   */\n      dup2\n        /* \"#utility.yul\":4462:4482   */\n      calldataload\n        /* \"#utility.yul\":4453:4482   */\n      swap1\n      pop\n        /* \"#utility.yul\":4491:4524   */\n      tag_232\n        /* \"#utility.yul\":4518:4523   */\n      dup2\n        /* \"#utility.yul\":4491:4524   */\n      tag_160\n      jump\t// in\n    tag_232:\n        /* \"#utility.yul\":4391:4530   */\n      swap3\n      swap2\n      pop\n      pop\n      jump\t// out\n        /* \"#utility.yul\":4536:4658   */\n    tag_162:\n        /* \"#utility.yul\":4609:4633   */\n      tag_234\n        /* \"#utility.yul\":4627:4632   */\n      dup2\n        /* \"#utility.yul\":4609:4633   */\n      tag_145\n      jump\t// in\n    tag_234:\n        /* \"#utility.yul\":4602:4607   */\n      dup2\n        /* \"#utility.yul\":4599:4634   */\n      eq\n        /* \"#utility.yul\":4589:4652   */\n      tag_235\n      jumpi\n        /* \"#utility.yul\":4648:4649   */\n      0x00\n        /* \"#utility.yul\":4645:4646   */\n      dup1\n        /* \"#utility.yul\":4638:4650   */\n      revert\n        /* \"#utility.yul\":4589:4652   */\n    tag_235:\n        /* \"#utility.yul\":4536:4658   */\n      pop\n      jump\t// out\n        /* \"#utility.yul\":4664:4803   */\n    tag_163:\n        /* \"#utility.yul\":4710:4715   */\n      0x00\n        /* \"#utility.yul\":4748:4754   */\n      dup2\n        /* \"#utility.yul\":4735:4755   */\n      calldataload\n        /* \"#utility.yul\":4726:4755   */\n      swap1\n      pop\n        /* \"#utility.yul\":4764:4797   */\n      tag_237\n        /* \"#utility.yul\":4791:4796   */\n      dup2\n        /* \"#utility.yul\":4764:4797   */\n      tag_162\n      jump\t// in\n    tag_237:\n        /* \"#utility.yul\":4664:4803   */\n      swap3\n      swap2\n      pop\n      pop\n      jump\t// out\n        /* \"#utility.yul\":4809:5283   */\n    tag_42:\n        /* \"#utility.yul\":4877:4883   */\n      0x00\n        /* \"#utility.yul\":4885:4891   */\n      dup1\n        /* \"#utility.yul\":4934:4936   */\n      0x40\n        /* \"#utility.yul\":4922:4931   */\n      dup4\n        /* \"#utility.yul\":4913:4920   */\n      dup6\n        /* \"#utility.yul\":4909:4932   */\n      sub\n        /* \"#utility.yul\":4905:4937   */\n      slt\n        /* \"#utility.yul\":4902:5021   */\n      iszero\n      tag_239\n      jumpi\n        /* \"#utility.yul\":4940:5019   */\n      tag_240\n      tag_156\n      jump\t// in\n    tag_240:\n        /* \"#utility.yul\":4902:5021   */\n    tag_239:\n        /* \"#utility.yul\":5060:5061   */\n      0x00\n        /* \"#utility.yul\":5085:5138   */\n      tag_241\n        /* \"#utility.yul\":5130:5137   */\n      dup6\n        /* \"#utility.yul\":5121:5127   */\n      dup3\n        /* \"#utility.yul\":5110:5119   */\n      dup7\n        /* \"#utility.yul\":5106:5128   */\n      add\n        /* \"#utility.yul\":5085:5138   */\n      tag_161\n      jump\t// in\n    tag_241:\n        /* \"#utility.yul\":5075:5138   */\n      swap3\n      pop\n        /* \"#utility.yul\":5031:5148   */\n      pop\n        /* \"#utility.yul\":5187:5189   */\n      0x20\n        /* \"#utility.yul\":5213:5266   */\n      tag_242\n        /* \"#utility.yul\":5258:5265   */\n      dup6\n        /* \"#utility.yul\":5249:5255   */\n      dup3\n        /* \"#utility.yul\":5238:5247   */\n      dup7\n        /* \"#utility.yul\":5234:5256   */\n      add\n        /* \"#utility.yul\":5213:5266   */\n      tag_163\n      jump\t// in\n    tag_242:\n        /* \"#utility.yul\":5203:5266   */\n      swap2\n      pop\n        /* \"#utility.yul\":5158:5276   */\n      pop\n        /* \"#utility.yul\":4809:5283   */\n      swap3\n      pop\n      swap3\n      swap1\n      pop\n      jump\t// out\n        /* \"#utility.yul\":5289:5379   */\n    tag_164:\n        /* \"#utility.yul\":5323:5330   */\n      0x00\n        /* \"#utility.yul\":5366:5371   */\n      dup2\n        /* \"#utility.yul\":5359:5372   */\n      iszero\n        /* \"#utility.yul\":5352:5373   */\n      iszero\n        /* \"#utility.yul\":5341:5373   */\n      swap1\n      pop\n        /* \"#utility.yul\":5289:5379   */\n      swap2\n      swap1\n      pop\n      jump\t// out\n        /* \"#utility.yul\":5385:5494   */\n    tag_165:\n        /* \"#utility.yul\":5466:5487   */\n      tag_245\n        /* \"#utility.yul\":5481:5486   */\n      dup2\n        /* \"#utility.yul\":5466:5487   */\n      tag_164\n      jump\t// in\n    tag_245:\n        /* \"#utility.yul\":5461:5464   */\n      dup3\n        /* \"#utility.yul\":5454:5488   */\n      mstore\n        /* \"#utility.yul\":5385:5494   */\n      pop\n      pop\n      jump\t// out\n        /* \"#utility.yul\":5500:5710   */\n    tag_45:\n        /* \"#utility.yul\":5587:5591   */\n      0x00\n        /* \"#utility.yul\":5625:5627   */\n      0x20\n        /* \"#utility.yul\":5614:5623   */\n      dup3\n        /* \"#utility.yul\":5610:5628   */\n      add\n        /* \"#utility.yul\":5602:5628   */\n      swap1\n      pop\n        /* \"#utility.yul\":5638:5703   */\n      tag_247\n        /* \"#utility.yul\":5700:5701   */\n      0x00\n        /* \"#utility.yul\":5689:5698   */\n      dup4\n        /* \"#utility.yul\":5685:5702   */\n      add\n        /* \"#utility.yul\":5676:5682   */\n      dup5\n        /* \"#utility.yul\":5638:5703   */\n      tag_165\n      jump\t// in\n    tag_247:\n        /* \"#utility.yul\":5500:5710   */\n      swap3\n      swap2\n      pop\n      pop\n      jump\t// out\n        /* \"#utility.yul\":5716:5834   */\n    tag_166:\n        /* \"#utility.yul\":5803:5827   */\n      tag_249\n        /* \"#utility.yul\":5821:5826   */\n      dup2\n        /* \"#utility.yul\":5803:5827   */\n      tag_159\n      jump\t// in\n    tag_249:\n        /* \"#utility.yul\":5798:5801   */\n      dup3\n        /* \"#utility.yul\":5791:5828   */\n      mstore\n        /* \"#utility.yul\":5716:5834   */\n      pop\n      pop\n      jump\t// out\n        /* \"#utility.yul\":5840:6062   */\n    tag_54:\n        /* \"#utility.yul\":5933:5937   */\n      0x00\n        /* \"#utility.yul\":5971:5973   */\n      0x20\n        /* \"#utility.yul\":5960:5969   */\n      dup3\n        /* \"#utility.yul\":5956:5974   */\n      add\n        /* \"#utility.yul\":5948:5974   */\n      swap1\n      pop\n        /* \"#utility.yul\":5984:6055   */\n      tag_251\n        /* \"#utility.yul\":6052:6053   */\n      0x00\n        /* \"#utility.yul\":6041:6050   */\n      dup4\n        /* \"#utility.yul\":6037:6054   */\n      add\n        /* \"#utility.yul\":6028:6034   */\n      dup5\n        /* \"#utility.yul\":5984:6055   */\n      tag_166\n      jump\t// in\n    tag_251:\n        /* \"#utility.yul\":5840:6062   */\n      swap3\n      swap2\n      pop\n      pop\n      jump\t// out\n        /* \"#utility.yul\":6068:6687   */\n    tag_58:\n        /* \"#utility.yul\":6145:6151   */\n      0x00\n        /* \"#utility.yul\":6153:6159   */\n      dup1\n        /* \"#utility.yul\":6161:6167   */\n      0x00\n        /* \"#utility.yul\":6210:6212   */\n      0x60\n        /* \"#utility.yul\":6198:6207   */\n      dup5\n        /* \"#utility.yul\":6189:6196   */\n      dup7\n        /* \"#utility.yul\":6185:6208   */\n      sub\n        /* \"#utility.yul\":6181:6213   */\n      slt\n        /* \"#utility.yul\":6178:6297   */\n      iszero\n      tag_253\n      jumpi\n        /* \"#utility.yul\":6216:6295   */\n      tag_254\n      tag_156\n      jump\t// in\n    tag_254:\n        /* \"#utility.yul\":6178:6297   */\n    tag_253:\n        /* \"#utility.yul\":6336:6337   */\n      0x00\n        /* \"#utility.yul\":6361:6414   */\n      tag_255\n        /* \"#utility.yul\":6406:6413   */\n      dup7\n        /* \"#utility.yul\":6397:6403   */\n      dup3\n        /* \"#utility.yul\":6386:6395   */\n      dup8\n        /* \"#utility.yul\":6382:6404   */\n      add\n        /* \"#utility.yul\":6361:6414   */\n      tag_161\n      jump\t// in\n    tag_255:\n        /* \"#utility.yul\":6351:6414   */\n      swap4\n      pop\n        /* \"#utility.yul\":6307:6424   */\n      pop\n        /* \"#utility.yul\":6463:6465   */\n      0x20\n        /* \"#utility.yul\":6489:6542   */\n      tag_256\n        /* \"#utility.yul\":6534:6541   */\n      dup7\n        /* \"#utility.yul\":6525:6531   */\n      dup3\n        /* \"#utility.yul\":6514:6523   */\n      dup8\n        /* \"#utility.yul\":6510:6532   */\n      add\n        /* \"#utility.yul\":6489:6542   */\n      tag_161\n      jump\t// in\n    tag_256:\n        /* \"#utility.yul\":6479:6542   */\n      swap3\n      pop\n        /* \"#utility.yul\":6434:6552   */\n      pop\n        /* \"#utility.yul\":6591:6593   */\n      0x40\n        /* \"#utility.yul\":6617:6670   */\n      tag_257\n        /* \"#utility.yul\":6662:6669   */\n      dup7\n        /* \"#utility.yul\":6653:6659   */\n      dup3\n        /* \"#utility.yul\":6642:6651   */\n      dup8\n        /* \"#utility.yul\":6638:6660   */\n      add\n        /* \"#utility.yul\":6617:6670   */\n      tag_163\n      jump\t// in\n    tag_257:\n        /* \"#utility.yul\":6607:6670   */\n      swap2\n      pop\n        /* \"#utility.yul\":6562:6680   */\n      pop\n        /* \"#utility.yul\":6068:6687   */\n      swap3\n      pop\n      swap3\n      pop\n      swap3\n      jump\t// out\n        /* \"#utility.yul\":6693:6779   */\n    tag_167:\n        /* \"#utility.yul\":6728:6735   */\n      0x00\n        /* \"#utility.yul\":6768:6772   */\n      0xff\n        /* \"#utility.yul\":6761:6766   */\n      dup3\n        /* \"#utility.yul\":6757:6773   */\n      and\n        /* \"#utility.yul\":6746:6773   */\n      swap1\n      pop\n        /* \"#utility.yul\":6693:6779   */\n      swap2\n      swap1\n      pop\n      jump\t// out\n        /* \"#utility.yul\":6785:6897   */\n    tag_168:\n        /* \"#utility.yul\":6868:6890   */\n      tag_260\n        /* \"#utility.yul\":6884:6889   */\n      dup2\n        /* \"#utility.yul\":6868:6890   */\n      tag_167\n      jump\t// in\n    tag_260:\n        /* \"#utility.yul\":6863:6866   */\n      dup3\n        /* \"#utility.yul\":6856:6891   */\n      mstore\n        /* \"#utility.yul\":6785:6897   */\n      pop\n      pop\n      jump\t// out\n        /* \"#utility.yul\":6903:7117   */\n    tag_65:\n        /* \"#utility.yul\":6992:6996   */\n      0x00\n        /* \"#utility.yul\":7030:7032   */\n      0x20\n        /* \"#utility.yul\":7019:7028   */\n      dup3\n        /* \"#utility.yul\":7015:7033   */\n      add\n        /* \"#utility.yul\":7007:7033   */\n      swap1\n      pop\n        /* \"#utility.yul\":7043:7110   */\n      tag_262\n        /* \"#utility.yul\":7107:7108   */\n      0x00\n        /* \"#utility.yul\":7096:7105   */\n      dup4\n        /* \"#utility.yul\":7092:7109   */\n      add\n        /* \"#utility.yul\":7083:7089   */\n      dup5\n        /* \"#utility.yul\":7043:7110   */\n      tag_168\n      jump\t// in\n    tag_262:\n        /* \"#utility.yul\":6903:7117   */\n      swap3\n      swap2\n      pop\n      pop\n      jump\t// out\n        /* \"#utility.yul\":7123:7452   */\n    tag_73:\n        /* \"#utility.yul\":7182:7188   */\n      0x00\n        /* \"#utility.yul\":7231:7233   */\n      0x20\n        /* \"#utility.yul\":7219:7228   */\n      dup3\n        /* \"#utility.yul\":7210:7217   */\n      dup5\n        /* \"#utility.yul\":7206:7229   */\n      sub\n        /* \"#utility.yul\":7202:7234   */\n      slt\n        /* \"#utility.yul\":7199:7318   */\n      iszero\n      tag_264\n      jumpi\n        /* \"#utility.yul\":7237:7316   */\n      tag_265\n      tag_156\n      jump\t// in\n    tag_265:\n        /* \"#utility.yul\":7199:7318   */\n    tag_264:\n        /* \"#utility.yul\":7357:7358   */\n      0x00\n        /* \"#utility.yul\":7382:7435   */\n      tag_266\n        /* \"#utility.yul\":7427:7434   */\n      dup5\n        /* \"#utility.yul\":7418:7424   */\n      dup3\n        /* \"#utility.yul\":7407:7416   */\n      dup6\n        /* \"#utility.yul\":7403:7425   */\n      add\n        /* \"#utility.yul\":7382:7435   */\n      tag_161\n      jump\t// in\n    tag_266:\n        /* \"#utility.yul\":7372:7435   */\n      swap2\n      pop\n        /* \"#utility.yul\":7328:7445   */\n      pop\n        /* \"#utility.yul\":7123:7452   */\n      swap3\n      swap2\n      pop\n      pop\n      jump\t// out\n        /* \"#utility.yul\":7458:7575   */\n    tag_169:\n        /* \"#utility.yul\":7567:7568   */\n      0x00\n        /* \"#utility.yul\":7564:7565   */\n      dup1\n        /* \"#utility.yul\":7557:7569   */\n      revert\n        /* \"#utility.yul\":7581:7698   */\n    tag_170:\n        /* \"#utility.yul\":7690:7691   */\n      0x00\n        /* \"#utility.yul\":7687:7688   */\n      dup1\n        /* \"#utility.yul\":7680:7692   */\n      revert\n        /* \"#utility.yul\":7704:7821   */\n    tag_171:\n        /* \"#utility.yul\":7813:7814   */\n      0x00\n        /* \"#utility.yul\":7810:7811   */\n      dup1\n        /* \"#utility.yul\":7803:7815   */\n      revert\n        /* \"#utility.yul\":7840:8392   */\n    tag_172:\n        /* \"#utility.yul\":7897:7905   */\n      0x00\n        /* \"#utility.yul\":7907:7913   */\n      dup1\n        /* \"#utility.yul\":7957:7960   */\n      dup4\n        /* \"#utility.yul\":7950:7954   */\n      0x1f\n        /* \"#utility.yul\":7942:7948   */\n      dup5\n        /* \"#utility.yul\":7938:7955   */\n      add\n        /* \"#utility.yul\":7934:7961   */\n      slt\n        /* \"#utility.yul\":7924:8046   */\n      tag_271\n      jumpi\n        /* \"#utility.yul\":7965:8044   */\n      tag_272\n      tag_169\n      jump\t// in\n    tag_272:\n        /* \"#utility.yul\":7924:8046   */\n    tag_271:\n        /* \"#utility.yul\":8078:8084   */\n      dup3\n        /* \"#utility.yul\":8065:8085   */\n      calldataload\n        /* \"#utility.yul\":8055:8085   */\n      swap1\n      pop\n        /* \"#utility.yul\":8108:8126   */\n      0xffffffffffffffff\n        /* \"#utility.yul\":8100:8106   */\n      dup2\n        /* \"#utility.yul\":8097:8127   */\n      gt\n        /* \"#utility.yul\":8094:8211   */\n      iszero\n      tag_273\n      jumpi\n        /* \"#utility.yul\":8130:8209   */\n      tag_274\n      tag_170\n      jump\t// in\n    tag_274:\n        /* \"#utility.yul\":8094:8211   */\n    tag_273:\n        /* \"#utility.yul\":8244:8248   */\n      0x20\n        /* \"#utility.yul\":8236:8242   */\n      dup4\n        /* \"#utility.yul\":8232:8249   */\n      add\n        /* \"#utility.yul\":8220:8249   */\n      swap2\n      pop\n        /* \"#utility.yul\":8298:8301   */\n      dup4\n        /* \"#utility.yul\":8290:8294   */\n      0x01\n        /* \"#utility.yul\":8282:8288   */\n      dup3\n        /* \"#utility.yul\":8278:8295   */\n      mul\n        /* \"#utility.yul\":8268:8276   */\n      dup4\n        /* \"#utility.yul\":8264:8296   */\n      add\n        /* \"#utility.yul\":8261:8302   */\n      gt\n        /* \"#utility.yul\":8258:8386   */\n      iszero\n      tag_275\n      jumpi\n        /* \"#utility.yul\":8305:8384   */\n      tag_276\n      tag_171\n      jump\t// in\n    tag_276:\n        /* \"#utility.yul\":8258:8386   */\n    tag_275:\n        /* \"#utility.yul\":7840:8392   */\n      swap3\n      pop\n      swap3\n      swap1\n      pop\n      jump\t// out\n        /* \"#utility.yul\":8398:9215   */\n    tag_92:\n        /* \"#utility.yul\":8486:8492   */\n      0x00\n        /* \"#utility.yul\":8494:8500   */\n      dup1\n        /* \"#utility.yul\":8502:8508   */\n      0x00\n        /* \"#utility.yul\":8510:8516   */\n      dup1\n        /* \"#utility.yul\":8559:8561   */\n      0x60\n        /* \"#utility.yul\":8547:8556   */\n      dup6\n        /* \"#utility.yul\":8538:8545   */\n      dup8\n        /* \"#utility.yul\":8534:8557   */\n      sub\n        /* \"#utility.yul\":8530:8562   */\n      slt\n        /* \"#utility.yul\":8527:8646   */\n      iszero\n      tag_278\n      jumpi\n        /* \"#utility.yul\":8565:8644   */\n      tag_279\n      tag_156\n      jump\t// in\n    tag_279:\n        /* \"#utility.yul\":8527:8646   */\n    tag_278:\n        /* \"#utility.yul\":8685:8686   */\n      0x00\n        /* \"#utility.yul\":8710:8763   */\n      tag_280\n        /* \"#utility.yul\":8755:8762   */\n      dup8\n        /* \"#utility.yul\":8746:8752   */\n      dup3\n        /* \"#utility.yul\":8735:8744   */\n      dup9\n        /* \"#utility.yul\":8731:8753   */\n      add\n        /* \"#utility.yul\":8710:8763   */\n      tag_161\n      jump\t// in\n    tag_280:\n        /* \"#utility.yul\":8700:8763   */\n      swap5\n      pop\n        /* \"#utility.yul\":8656:8773   */\n      pop\n        /* \"#utility.yul\":8812:8814   */\n      0x20\n        /* \"#utility.yul\":8838:8891   */\n      tag_281\n        /* \"#utility.yul\":8883:8890   */\n      dup8\n        /* \"#utility.yul\":8874:8880   */\n      dup3\n        /* \"#utility.yul\":8863:8872   */\n      dup9\n        /* \"#utility.yul\":8859:8881   */\n      add\n        /* \"#utility.yul\":8838:8891   */\n      tag_163\n      jump\t// in\n    tag_281:\n        /* \"#utility.yul\":8828:8891   */\n      swap4\n      pop\n        /* \"#utility.yul\":8783:8901   */\n      pop\n        /* \"#utility.yul\":8968:8970   */\n      0x40\n        /* \"#utility.yul\":8957:8966   */\n      dup6\n        /* \"#utility.yul\":8953:8971   */\n      add\n        /* \"#utility.yul\":8940:8972   */\n      calldataload\n        /* \"#utility.yul\":8999:9017   */\n      0xffffffffffffffff\n        /* \"#utility.yul\":8991:8997   */\n      dup2\n        /* \"#utility.yul\":8988:9018   */\n      gt\n        /* \"#utility.yul\":8985:9102   */\n      iszero\n      tag_282\n      jumpi\n        /* \"#utility.yul\":9021:9100   */\n      tag_283\n      tag_157\n      jump\t// in\n    tag_283:\n        /* \"#utility.yul\":8985:9102   */\n    tag_282:\n        /* \"#utility.yul\":9134:9198   */\n      tag_284\n        /* \"#utility.yul\":9190:9197   */\n      dup8\n        /* \"#utility.yul\":9181:9187   */\n      dup3\n        /* \"#utility.yul\":9170:9179   */\n      dup9\n        /* \"#utility.yul\":9166:9188   */\n      add\n        /* \"#utility.yul\":9134:9198   */\n      tag_172\n      jump\t// in\n    tag_284:\n        /* \"#utility.yul\":9116:9198   */\n      swap3\n      pop\n      swap3\n      pop\n        /* \"#utility.yul\":8911:9208   */\n      pop\n        /* \"#utility.yul\":8398:9215   */\n      swap3\n      swap6\n      swap2\n      swap5\n      pop\n      swap3\n      pop\n      jump\t// out\n        /* \"#utility.yul\":9221:9695   */\n    tag_98:\n        /* \"#utility.yul\":9289:9295   */\n      0x00\n        /* \"#utility.yul\":9297:9303   */\n      dup1\n        /* \"#utility.yul\":9346:9348   */\n      0x40\n        /* \"#utility.yul\":9334:9343   */\n      dup4\n        /* \"#utility.yul\":9325:9332   */\n      dup6\n        /* \"#utility.yul\":9321:9344   */\n      sub\n        /* \"#utility.yul\":9317:9349   */\n      slt\n        /* \"#utility.yul\":9314:9433   */\n      iszero\n      tag_286\n      jumpi\n        /* \"#utility.yul\":9352:9431   */\n      tag_287\n      tag_156\n      jump\t// in\n    tag_287:\n        /* \"#utility.yul\":9314:9433   */\n    tag_286:\n        /* \"#utility.yul\":9472:9473   */\n      0x00\n        /* \"#utility.yul\":9497:9550   */\n      tag_288\n        /* \"#utility.yul\":9542:9549   */\n      dup6\n        /* \"#utility.yul\":9533:9539   */\n      dup3\n        /* \"#utility.yul\":9522:9531   */\n      dup7\n        /* \"#utility.yul\":9518:9540   */\n      add\n        /* \"#utility.yul\":9497:9550   */\n      tag_161\n      jump\t// in\n    tag_288:\n        /* \"#utility.yul\":9487:9550   */\n      swap3\n      pop\n        /* \"#utility.yul\":9443:9560   */\n      pop\n        /* \"#utility.yul\":9599:9601   */\n      0x20\n        /* \"#utility.yul\":9625:9678   */\n      tag_289\n        /* \"#utility.yul\":9670:9677   */\n      dup6\n        /* \"#utility.yul\":9661:9667   */\n      dup3\n        /* \"#utility.yul\":9650:9659   */\n      dup7\n        /* \"#utility.yul\":9646:9668   */\n      add\n        /* \"#utility.yul\":9625:9678   */\n      tag_161\n      jump\t// in\n    tag_289:\n        /* \"#utility.yul\":9615:9678   */\n      swap2\n      pop\n        /* \"#utility.yul\":9570:9688   */\n      pop\n        /* \"#utility.yul\":9221:9695   */\n      swap3\n      pop\n      swap3\n      swap1\n      pop\n      jump\t// out\n        /* \"#utility.yul\":9701:9881   */\n    tag_173:\n        /* \"#utility.yul\":9749:9826   */\n      0x4e487b7100000000000000000000000000000000000000000000000000000000\n        /* \"#utility.yul\":9746:9747   */\n      0x00\n        /* \"#utility.yul\":9739:9827   */\n      mstore\n        /* \"#utility.yul\":9846:9850   */\n      0x22\n        /* \"#utility.yul\":9843:9844   */\n      0x04\n        /* \"#utility.yul\":9836:9851   */\n      mstore\n        /* \"#utility.yul\":9870:9874   */\n      0x24\n        /* \"#utility.yul\":9867:9868   */\n      0x00\n        /* \"#utility.yul\":9860:9875   */\n      revert\n        /* \"#utility.yul\":9887:10207   */\n    tag_102:\n        /* \"#utility.yul\":9931:9937   */\n      0x00\n        /* \"#utility.yul\":9968:9969   */\n      0x02\n        /* \"#utility.yul\":9962:9966   */\n      dup3\n        /* \"#utility.yul\":9958:9970   */\n      div\n        /* \"#utility.yul\":9948:9970   */\n      swap1\n      pop\n        /* \"#utility.yul\":10015:10016   */\n      0x01\n        /* \"#utility.yul\":10009:10013   */\n      dup3\n        /* \"#utility.yul\":10005:10017   */\n      and\n        /* \"#utility.yul\":10036:10054   */\n      dup1\n        /* \"#utility.yul\":10026:10107   */\n      tag_292\n      jumpi\n        /* \"#utility.yul\":10092:10096   */\n      0x7f\n        /* \"#utility.yul\":10084:10090   */\n      dup3\n        /* \"#utility.yul\":10080:10097   */\n      and\n        /* \"#utility.yul\":10070:10097   */\n      swap2\n      pop\n        /* \"#utility.yul\":10026:10107   */\n    tag_292:\n        /* \"#utility.yul\":10154:10156   */\n      0x20\n        /* \"#utility.yul\":10146:10152   */\n      dup3\n        /* \"#utility.yul\":10143:10157   */\n      lt\n        /* \"#utility.yul\":10123:10141   */\n      dup2\n        /* \"#utility.yul\":10120:10158   */\n      sub\n        /* \"#utility.yul\":10117:10201   */\n      tag_293\n      jumpi\n        /* \"#utility.yul\":10173:10191   */\n      tag_294\n      tag_173\n      jump\t// in\n    tag_294:\n        /* \"#utility.yul\":10117:10201   */\n    tag_293:\n        /* \"#utility.yul\":9938:10207   */\n      pop\n        /* \"#utility.yul\":9887:10207   */\n      swap2\n      swap1\n      pop\n      jump\t// out\n        /* \"#utility.yul\":10213:10381   */\n    tag_174:\n        /* \"#utility.yul\":10296:10307   */\n      0x00\n        /* \"#utility.yul\":10330:10336   */\n      dup3\n        /* \"#utility.yul\":10325:10328   */\n      dup3\n        /* \"#utility.yul\":10318:10337   */\n      mstore\n        /* \"#utility.yul\":10370:10374   */\n      0x20\n        /* \"#utility.yul\":10365:10368   */\n      dup3\n        /* \"#utility.yul\":10361:10375   */\n      add\n        /* \"#utility.yul\":10346:10375   */\n      swap1\n      pop\n        /* \"#utility.yul\":10213:10381   */\n      swap3\n      swap2\n      pop\n      pop\n      jump\t// out\n        /* \"#utility.yul\":10387:10535   */\n    tag_175:\n        /* \"#utility.yul\":10485:10491   */\n      dup3\n        /* \"#utility.yul\":10480:10483   */\n      dup2\n        /* \"#utility.yul\":10475:10478   */\n      dup4\n        /* \"#utility.yul\":10462:10492   */\n      calldatacopy\n        /* \"#utility.yul\":10526:10527   */\n      0x00\n        /* \"#utility.yul\":10517:10523   */\n      dup4\n        /* \"#utility.yul\":10512:10515   */\n      dup4\n        /* \"#utility.yul\":10508:10524   */\n      add\n        /* \"#utility.yul\":10501:10528   */\n      mstore\n        /* \"#utility.yul\":10387:10535   */\n      pop\n      pop\n      pop\n      jump\t// out\n        /* \"#utility.yul\":10563:10877   */\n    tag_176:\n        /* \"#utility.yul\":10659:10662   */\n      0x00\n        /* \"#utility.yul\":10680:10750   */\n      tag_298\n        /* \"#utility.yul\":10743:10749   */\n      dup4\n        /* \"#utility.yul\":10738:10741   */\n      dup6\n        /* \"#utility.yul\":10680:10750   */\n      tag_174\n      jump\t// in\n    tag_298:\n        /* \"#utility.yul\":10673:10750   */\n      swap4\n      pop\n        /* \"#utility.yul\":10760:10816   */\n      tag_299\n        /* \"#utility.yul\":10809:10815   */\n      dup4\n        /* \"#utility.yul\":10804:10807   */\n      dup6\n        /* \"#utility.yul\":10797:10802   */\n      dup5\n        /* \"#utility.yul\":10760:10816   */\n      tag_175\n      jump\t// in\n    tag_299:\n        /* \"#utility.yul\":10841:10870   */\n      tag_300\n        /* \"#utility.yul\":10863:10869   */\n      dup4\n        /* \"#utility.yul\":10841:10870   */\n      tag_153\n      jump\t// in\n    tag_300:\n        /* \"#utility.yul\":10836:10839   */\n      dup5\n        /* \"#utility.yul\":10832:10871   */\n      add\n        /* \"#utility.yul\":10825:10871   */\n      swap1\n      pop\n        /* \"#utility.yul\":10563:10877   */\n      swap4\n      swap3\n      pop\n      pop\n      pop\n      jump\t// out\n        /* \"#utility.yul\":10883:11543   */\n    tag_135:\n        /* \"#utility.yul\":11088:11092   */\n      0x00\n        /* \"#utility.yul\":11126:11129   */\n      0x80\n        /* \"#utility.yul\":11115:11124   */\n      dup3\n        /* \"#utility.yul\":11111:11130   */\n      add\n        /* \"#utility.yul\":11103:11130   */\n      swap1\n      pop\n        /* \"#utility.yul\":11140:11211   */\n      tag_302\n        /* \"#utility.yul\":11208:11209   */\n      0x00\n        /* \"#utility.yul\":11197:11206   */\n      dup4\n        /* \"#utility.yul\":11193:11210   */\n      add\n        /* \"#utility.yul\":11184:11190   */\n      dup9\n        /* \"#utility.yul\":11140:11211   */\n      tag_166\n      jump\t// in\n    tag_302:\n        /* \"#utility.yul\":11221:11293   */\n      tag_303\n        /* \"#utility.yul\":11289:11291   */\n      0x20\n        /* \"#utility.yul\":11278:11287   */\n      dup4\n        /* \"#utility.yul\":11274:11292   */\n      add\n        /* \"#utility.yul\":11265:11271   */\n      dup8\n        /* \"#utility.yul\":11221:11293   */\n      tag_150\n      jump\t// in\n    tag_303:\n        /* \"#utility.yul\":11303:11375   */\n      tag_304\n        /* \"#utility.yul\":11371:11373   */\n      0x40\n        /* \"#utility.yul\":11360:11369   */\n      dup4\n        /* \"#utility.yul\":11356:11374   */\n      add\n        /* \"#utility.yul\":11347:11353   */\n      dup7\n        /* \"#utility.yul\":11303:11375   */\n      tag_166\n      jump\t// in\n    tag_304:\n        /* \"#utility.yul\":11422:11431   */\n      dup2\n        /* \"#utility.yul\":11416:11420   */\n      dup2\n        /* \"#utility.yul\":11412:11432   */\n      sub\n        /* \"#utility.yul\":11407:11409   */\n      0x60\n        /* \"#utility.yul\":11396:11405   */\n      dup4\n        /* \"#utility.yul\":11392:11410   */\n      add\n        /* \"#utility.yul\":11385:11433   */\n      mstore\n        /* \"#utility.yul\":11450:11536   */\n      tag_305\n        /* \"#utility.yul\":11531:11535   */\n      dup2\n        /* \"#utility.yul\":11522:11528   */\n      dup5\n        /* \"#utility.yul\":11514:11520   */\n      dup7\n        /* \"#utility.yul\":11450:11536   */\n      tag_176\n      jump\t// in\n    tag_305:\n        /* \"#utility.yul\":11442:11536   */\n      swap1\n      pop\n        /* \"#utility.yul\":10883:11543   */\n      swap7\n      swap6\n      pop\n      pop\n      pop\n      pop\n      pop\n      pop\n      jump\t// out\n        /* \"#utility.yul\":11549:11647   */\n    tag_177:\n        /* \"#utility.yul\":11600:11606   */\n      0x00\n        /* \"#utility.yul\":11634:11639   */\n      dup2\n        /* \"#utility.yul\":11628:11640   */\n      mload\n        /* \"#utility.yul\":11618:11640   */\n      swap1\n      pop\n        /* \"#utility.yul\":11549:11647   */\n      swap2\n      swap1\n      pop\n      jump\t// out\n        /* \"#utility.yul\":11653:11800   */\n    tag_178:\n        /* \"#utility.yul\":11754:11765   */\n      0x00\n        /* \"#utility.yul\":11791:11794   */\n      dup2\n        /* \"#utility.yul\":11776:11794   */\n      swap1\n      pop\n        /* \"#utility.yul\":11653:11800   */\n      swap3\n      swap2\n      pop\n      pop\n      jump\t// out\n        /* \"#utility.yul\":11806:12192   */\n    tag_179:\n        /* \"#utility.yul\":11910:11913   */\n      0x00\n        /* \"#utility.yul\":11938:11976   */\n      tag_309\n        /* \"#utility.yul\":11970:11975   */\n      dup3\n        /* \"#utility.yul\":11938:11976   */\n      tag_177\n      jump\t// in\n    tag_309:\n        /* \"#utility.yul\":11992:12080   */\n      tag_310\n        /* \"#utility.yul\":12073:12079   */\n      dup2\n        /* \"#utility.yul\":12068:12071   */\n      dup6\n        /* \"#utility.yul\":11992:12080   */\n      tag_178\n      jump\t// in\n    tag_310:\n        /* \"#utility.yul\":11985:12080   */\n      swap4\n      pop\n        /* \"#utility.yul\":12089:12154   */\n      tag_311\n        /* \"#utility.yul\":12147:12153   */\n      dup2\n        /* \"#utility.yul\":12142:12145   */\n      dup6\n        /* \"#utility.yul\":12135:12139   */\n      0x20\n        /* \"#utility.yul\":12128:12133   */\n      dup7\n        /* \"#utility.yul\":12124:12140   */\n      add\n        /* \"#utility.yul\":12089:12154   */\n      tag_152\n      jump\t// in\n    tag_311:\n        /* \"#utility.yul\":12179:12185   */\n      dup1\n        /* \"#utility.yul\":12174:12177   */\n      dup5\n        /* \"#utility.yul\":12170:12186   */\n      add\n        /* \"#utility.yul\":12163:12186   */\n      swap2\n      pop\n        /* \"#utility.yul\":11914:12192   */\n      pop\n        /* \"#utility.yul\":11806:12192   */\n      swap3\n      swap2\n      pop\n      pop\n      jump\t// out\n        /* \"#utility.yul\":12198:12469   */\n    tag_137:\n        /* \"#utility.yul\":12328:12331   */\n      0x00\n        /* \"#utility.yul\":12350:12443   */\n      tag_313\n        /* \"#utility.yul\":12439:12442   */\n      dup3\n        /* \"#utility.yul\":12430:12436   */\n      dup5\n        /* \"#utility.yul\":12350:12443   */\n      tag_179\n      jump\t// in\n    tag_313:\n        /* \"#utility.yul\":12343:12443   */\n      swap2\n      pop\n        /* \"#utility.yul\":12460:12463   */\n      dup2\n        /* \"#utility.yul\":12453:12463   */\n      swap1\n      pop\n        /* \"#utility.yul\":12198:12469   */\n      swap3\n      swap2\n      pop\n      pop\n      jump\t// out\n        /* \"#utility.yul\":12475:12645   */\n    tag_180:\n        /* \"#utility.yul\":12615:12637   */\n      0x417070726f76616c2063616c6c206661696c6564000000000000000000000000\n        /* \"#utility.yul\":12611:12612   */\n      0x00\n        /* \"#utility.yul\":12603:12609   */\n      dup3\n        /* \"#utility.yul\":12599:12613   */\n      add\n        /* \"#utility.yul\":12592:12638   */\n      mstore\n        /* \"#utility.yul\":12475:12645   */\n      pop\n      jump\t// out\n        /* \"#utility.yul\":12651:13017   */\n    tag_181:\n        /* \"#utility.yul\":12793:12796   */\n      0x00\n        /* \"#utility.yul\":12814:12881   */\n      tag_316\n        /* \"#utility.yul\":12878:12880   */\n      0x14\n        /* \"#utility.yul\":12873:12876   */\n      dup4\n        /* \"#utility.yul\":12814:12881   */\n      tag_147\n      jump\t// in\n    tag_316:\n        /* \"#utility.yul\":12807:12881   */\n      swap2\n      pop\n        /* \"#utility.yul\":12890:12983   */\n      tag_317\n        /* \"#utility.yul\":12979:12982   */\n      dup3\n        /* \"#utility.yul\":12890:12983   */\n      tag_180\n      jump\t// in\n    tag_317:\n        /* \"#utility.yul\":13008:13010   */\n      0x20\n        /* \"#utility.yul\":13003:13006   */\n      dup3\n        /* \"#utility.yul\":12999:13011   */\n      add\n        /* \"#utility.yul\":12992:13011   */\n      swap1\n      pop\n        /* \"#utility.yul\":12651:13017   */\n      swap2\n      swap1\n      pop\n      jump\t// out\n        /* \"#utility.yul\":13023:13442   */\n    tag_143:\n        /* \"#utility.yul\":13189:13193   */\n      0x00\n        /* \"#utility.yul\":13227:13229   */\n      0x20\n        /* \"#utility.yul\":13216:13225   */\n      dup3\n        /* \"#utility.yul\":13212:13230   */\n      add\n        /* \"#utility.yul\":13204:13230   */\n      swap1\n      pop\n        /* \"#utility.yul\":13276:13285   */\n      dup2\n        /* \"#utility.yul\":13270:13274   */\n      dup2\n        /* \"#utility.yul\":13266:13286   */\n      sub\n        /* \"#utility.yul\":13262:13263   */\n      0x00\n        /* \"#utility.yul\":13251:13260   */\n      dup4\n        /* \"#utility.yul\":13247:13264   */\n      add\n        /* \"#utility.yul\":13240:13287   */\n      mstore\n        /* \"#utility.yul\":13304:13435   */\n      tag_319\n        /* \"#utility.yul\":13430:13434   */\n      dup2\n        /* \"#utility.yul\":13304:13435   */\n      tag_181\n      jump\t// in\n    tag_319:\n        /* \"#utility.yul\":13296:13435   */\n      swap1\n      pop\n        /* \"#utility.yul\":13023:13442   */\n      swap2\n      swap1\n      pop\n      jump\t// out\n\n    auxdata: 0xa2646970667358221220fe73fc8a2366821ee8f4b8cee63d5f8001bdca68fadf44d0d00cbe438eb3988f64736f6c634300081a0033\n}\n",
				"bytecode": {
					"linkReferences": {},
					"object": "608060405234801561000f575f80fd5b5064174876e8005f803373ffffffffffffffffffffffffffffffffffffffff1673ffffffffffffffffffffffffffffffffffffffff1681526020019081526020015f208190555064174876e8006002819055506040518060400160405280600b81526020017f4d696c6c6572546f6b656e000000000000000000000000000000000000000000815250600390816100a6919061038e565b50601260045f6101000a81548160ff021916908360ff1602179055506040518060400160405280600581526020017f4d434f4b4e00000000000000000000000000000000000000000000000000000081525060059081610106919061038e565b50600a6006819055503360085f6101000a81548173ffffffffffffffffffffffffffffffffffffffff021916908373ffffffffffffffffffffffffffffffffffffffff16021790555061045d565b5f81519050919050565b7f4e487b71000000000000000000000000000000000000000000000000000000005f52604160045260245ffd5b7f4e487b71000000000000000000000000000000000000000000000000000000005f52602260045260245ffd5b5f60028204905060018216806101cf57607f821691505b6020821081036101e2576101e161018b565b5b50919050565b5f819050815f5260205f209050919050565b5f6020601f8301049050919050565b5f82821b905092915050565b5f600883026102447fffffffffffffffffffffffffffffffffffffffffffffffffffffffffffffffff82610209565b61024e8683610209565b95508019841693508086168417925050509392505050565b5f819050919050565b5f819050919050565b5f61029261028d61028884610266565b61026f565b610266565b9050919050565b5f819050919050565b6102ab83610278565b6102bf6102b782610299565b848454610215565b825550505050565b5f90565b6102d36102c7565b6102de8184846102a2565b505050565b5b81811015610301576102f65f826102cb565b6001810190506102e4565b5050565b601f82111561034657610317816101e8565b610320846101fa565b8101602085101561032f578190505b61034361033b856101fa565b8301826102e3565b50505b505050565b5f82821c905092915050565b5f6103665f198460080261034b565b1980831691505092915050565b5f61037e8383610357565b9150826002028217905092915050565b61039782610154565b67ffffffffffffffff8111156103b0576103af61015e565b5b6103ba82546101b8565b6103c5828285610305565b5f60209050601f8311600181146103f6575f84156103e4578287015190505b6103ee8582610373565b865550610455565b601f198416610404866101e8565b5f5b8281101561042b57848901518255600182019150602085019450602081019050610406565b868310156104485784890151610444601f891682610357565b8355505b6001600288020188555050505b505050505050565b6115f68061046a5f395ff3fe6080604052600436106100c5575f3560e01c806365f2bc2e1161007e57806395d89b411161005857806395d89b41146104f8578063a9059cbb14610522578063cae9ca511461055e578063dd62ed3e1461059a57610344565b806365f2bc2e1461046857806370a0823114610492578063933ba413146104ce57610344565b806306fdde0314610348578063095ea7b31461037257806318160ddd146103ae5780632194f3a2146103d857806323b872dd14610402578063313ce5671461043e57610344565b36610344573460075f8282546100db9190610f3a565b925050819055505f600654346100f19190610f6d565b9050805f8060085f9054906101000a900473ffffffffffffffffffffffffffffffffffffffff1673ffffffffffffffffffffffffffffffffffffffff1673ffffffffffffffffffffffffffffffffffffffff1681526020019081526020015f20541015610193576040517f08c379a000000000000000000000000000000000000000000000000000000000815260040161018a9061102e565b60405180910390fd5b805f8060085f9054906101000a900473ffffffffffffffffffffffffffffffffffffffff1673ffffffffffffffffffffffffffffffffffffffff1673ffffffffffffffffffffffffffffffffffffffff1681526020019081526020015f205f8282546101ff919061104c565b92505081905550805f803373ffffffffffffffffffffffffffffffffffffffff1673ffffffffffffffffffffffffffffffffffffffff1681526020019081526020015f205f8282546102519190610f3a565b925050819055503373ffffffffffffffffffffffffffffffffffffffff1660085f9054906101000a900473ffffffffffffffffffffffffffffffffffffffff1673ffffffffffffffffffffffffffffffffffffffff167fddf252ad1be2c89b69c2b068fc378daa952ba7f163c4a11628f55a4df523b3ef836040516102d6919061108e565b60405180910390a360085f9054906101000a900473ffffffffffffffffffffffffffffffffffffffff1673ffffffffffffffffffffffffffffffffffffffff166108fc3490811502906040515f60405180830381858888f19350505050158015610342573d5f803e3d5ffd5b005b5f80fd5b348015610353575f80fd5b5061035c6105d6565b6040516103699190611107565b60405180910390f35b34801561037d575f80fd5b50610398600480360381019061039391906111b3565b610662565b6040516103a5919061120b565b60405180910390f35b3480156103b9575f80fd5b506103c261074f565b6040516103cf919061108e565b60405180910390f35b3480156103e3575f80fd5b506103ec610753565b6040516103f99190611233565b60405180910390f35b34801561040d575f80fd5b506104286004803603810190610423919061124c565b610778565b604051610435919061120b565b60405180910390f35b348015610449575f80fd5b506104526109f8565b60405161045f91906112b7565b60405180910390f35b348015610473575f80fd5b5061047c610a0a565b604051610489919061108e565b60405180910390f35b34801561049d575f80fd5b506104b860048036038101906104b391906112d0565b610a10565b6040516104c5919061108e565b60405180910390f35b3480156104d9575f80fd5b506104e2610a55565b6040516104ef919061108e565b60405180910390f35b348015610503575f80fd5b5061050c610a5b565b6040516105199190611107565b60405180910390f35b34801561052d575f80fd5b50610548600480360381019061054391906111b3565b610ae7565b604051610555919061120b565b60405180910390f35b348015610569575f80fd5b50610584600480360381019061057f919061135c565b610c54565b604051610591919061120b565b60405180910390f35b3480156105a5575f80fd5b506105c060048036038101906105bb91906113cd565b610e82565b6040516105cd919061108e565b60405180910390f35b600380546105e390611438565b80601f016020809104026020016040519081016040528092919081815260200182805461060f90611438565b801561065a5780601f106106315761010080835404028352916020019161065a565b820191905f5260205f20905b81548152906001019060200180831161063d57829003601f168201915b505050505081565b5f8160015f3373ffffffffffffffffffffffffffffffffffffffff1673ffffffffffffffffffffffffffffffffffffffff1681526020019081526020015f205f8573ffffffffffffffffffffffffffffffffffffffff1673ffffffffffffffffffffffffffffffffffffffff1681526020019081526020015f20819055508273ffffffffffffffffffffffffffffffffffffffff163373ffffffffffffffffffffffffffffffffffffffff167f8c5be1e5ebec7d5bd14f71427d1e84f3dd0314c0f7b2291e5b200ac8c7c3b9258460405161073d919061108e565b60405180910390a36001905092915050565b5f90565b60085f9054906101000a900473ffffffffffffffffffffffffffffffffffffffff1681565b5f815f808673ffffffffffffffffffffffffffffffffffffffff1673ffffffffffffffffffffffffffffffffffffffff1681526020019081526020015f20541015801561083d57508160015f8673ffffffffffffffffffffffffffffffffffffffff1673ffffffffffffffffffffffffffffffffffffffff1681526020019081526020015f205f3373ffffffffffffffffffffffffffffffffffffffff1673ffffffffffffffffffffffffffffffffffffffff1681526020019081526020015f205410155b801561084857505f82115b156109ed57815f808573ffffffffffffffffffffffffffffffffffffffff1673ffffffffffffffffffffffffffffffffffffffff1681526020019081526020015f205f8282546108989190610f3a565b92505081905550815f808673ffffffffffffffffffffffffffffffffffffffff1673ffffffffffffffffffffffffffffffffffffffff1681526020019081526020015f205f8282546108ea919061104c565b925050819055508160015f8673ffffffffffffffffffffffffffffffffffffffff1673ffffffffffffffffffffffffffffffffffffffff1681526020019081526020015f205f3373ffffffffffffffffffffffffffffffffffffffff1673ffffffffffffffffffffffffffffffffffffffff1681526020019081526020015f205f828254610978919061104c565b925050819055508273ffffffffffffffffffffffffffffffffffffffff168473ffffffffffffffffffffffffffffffffffffffff167fddf252ad1be2c89b69c2b068fc378daa952ba7f163c4a11628f55a4df523b3ef846040516109dc919061108e565b60405180910390a3600190506109f1565b5f90505b9392505050565b60045f9054906101000a900460ff1681565b60065481565b5f805f8373ffffffffffffffffffffffffffffffffffffffff1673ffffffffffffffffffffffffffffffffffffffff1681526020019081526020015f20549050919050565b60075481565b60058054610a6890611438565b80601f0160208091040260200160405190810160405280929190818152602001828054610a9490611438565b8015610adf5780601f10610ab657610100808354040283529160200191610adf565b820191905f5260205f20905b815481529060010190602001808311610ac257829003601f168201915b505050505081565b5f815f803373ffffffffffffffffffffffffffffffffffffffff1673ffffffffffffffffffffffffffffffffffffffff1681526020019081526020015f205410158015610b3357505f82115b15610c4a57815f803373ffffffffffffffffffffffffffffffffffffffff1673ffffffffffffffffffffffffffffffffffffffff1681526020019081526020015f205f828254610b83919061104c565b92505081905550815f808573ffffffffffffffffffffffffffffffffffffffff1673ffffffffffffffffffffffffffffffffffffffff1681526020019081526020015f205f828254610bd59190610f3a565b925050819055508273ffffffffffffffffffffffffffffffffffffffff163373ffffffffffffffffffffffffffffffffffffffff167fddf252ad1be2c89b69c2b068fc378daa952ba7f163c4a11628f55a4df523b3ef84604051610c39919061108e565b60405180910390a360019050610c4e565b5f90505b92915050565b5f8360015f3373ffffffffffffffffffffffffffffffffffffffff1673ffffffffffffffffffffffffffffffffffffffff1681526020019081526020015f205f8773ffffffffffffffffffffffffffffffffffffffff1673ffffffffffffffffffffffffffffffffffffffff1681526020019081526020015f20819055508473ffffffffffffffffffffffffffffffffffffffff163373ffffffffffffffffffffffffffffffffffffffff167f8c5be1e5ebec7d5bd14f71427d1e84f3dd0314c0f7b2291e5b200ac8c7c3b92586604051610d2f919061108e565b60405180910390a35f8573ffffffffffffffffffffffffffffffffffffffff167f8f4ffcb1bb44d94232117b8ffa4d02d6690264da1e3430c3916e2c263fa5d3da3387308888604051602401610d899594939291906114b2565b604051602081830303815290604052907bffffffffffffffffffffffffffffffffffffffffffffffffffffffff19166020820180517bffffffffffffffffffffffffffffffffffffffffffffffffffffffff8381831617835250505050604051610df39190611542565b5f604051808303815f865af19150503d805f8114610e2c576040519150601f19603f3d011682016040523d82523d5f602084013e610e31565b606091505b5050905080610e75576040517f08c379a0000000000000000000000000000000000000000000000000000000008152600401610e6c906115a2565b60405180910390fd5b6001915050949350505050565b5f60015f8473ffffffffffffffffffffffffffffffffffffffff1673ffffffffffffffffffffffffffffffffffffffff1681526020019081526020015f205f8373ffffffffffffffffffffffffffffffffffffffff1673ffffffffffffffffffffffffffffffffffffffff1681526020019081526020015f2054905092915050565b5f819050919050565b7f4e487b71000000000000000000000000000000000000000000000000000000005f52601160045260245ffd5b5f610f4482610f04565b9150610f4f83610f04565b9250828201905080821115610f6757610f66610f0d565b5b92915050565b5f610f7782610f04565b9150610f8283610f04565b9250828202610f9081610f04565b91508282048414831517610fa757610fa6610f0d565b5b5092915050565b5f82825260208201905092915050565b7f4e6f7420656e6f75676820746f6b656e7320696e207468652066756e642077615f8201527f6c6c657400000000000000000000000000000000000000000000000000000000602082015250565b5f611018602483610fae565b915061102382610fbe565b604082019050919050565b5f6020820190508181035f8301526110458161100c565b9050919050565b5f61105682610f04565b915061106183610f04565b925082820390508181111561107957611078610f0d565b5b92915050565b61108881610f04565b82525050565b5f6020820190506110a15f83018461107f565b92915050565b5f81519050919050565b8281835e5f83830152505050565b5f601f19601f8301169050919050565b5f6110d9826110a7565b6110e38185610fae565b93506110f38185602086016110b1565b6110fc816110bf565b840191505092915050565b5f6020820190508181035f83015261111f81846110cf565b905092915050565b5f80fd5b5f80fd5b5f73ffffffffffffffffffffffffffffffffffffffff82169050919050565b5f6111588261112f565b9050919050565b6111688161114e565b8114611172575f80fd5b50565b5f813590506111838161115f565b92915050565b61119281610f04565b811461119c575f80fd5b50565b5f813590506111ad81611189565b92915050565b5f80604083850312156111c9576111c8611127565b5b5f6111d685828601611175565b92505060206111e78582860161119f565b9150509250929050565b5f8115159050919050565b611205816111f1565b82525050565b5f60208201905061121e5f8301846111fc565b92915050565b61122d8161114e565b82525050565b5f6020820190506112465f830184611224565b92915050565b5f805f6060848603121561126357611262611127565b5b5f61127086828701611175565b935050602061128186828701611175565b92505060406112928682870161119f565b9150509250925092565b5f60ff82169050919050565b6112b18161129c565b82525050565b5f6020820190506112ca5f8301846112a8565b92915050565b5f602082840312156112e5576112e4611127565b5b5f6112f284828501611175565b91505092915050565b5f80fd5b5f80fd5b5f80fd5b5f8083601f84011261131c5761131b6112fb565b5b8235905067ffffffffffffffff811115611339576113386112ff565b5b60208301915083600182028301111561135557611354611303565b5b9250929050565b5f805f806060858703121561137457611373611127565b5b5f61138187828801611175565b94505060206113928782880161119f565b935050604085013567ffffffffffffffff8111156113b3576113b261112b565b5b6113bf87828801611307565b925092505092959194509250565b5f80604083850312156113e3576113e2611127565b5b5f6113f085828601611175565b925050602061140185828601611175565b9150509250929050565b7f4e487b71000000000000000000000000000000000000000000000000000000005f52602260045260245ffd5b5f600282049050600182168061144f57607f821691505b6020821081036114625761146161140b565b5b50919050565b5f82825260208201905092915050565b828183375f83830152505050565b5f6114918385611468565b935061149e838584611478565b6114a7836110bf565b840190509392505050565b5f6080820190506114c55f830188611224565b6114d2602083018761107f565b6114df6040830186611224565b81810360608301526114f2818486611486565b90509695505050505050565b5f81519050919050565b5f81905092915050565b5f61151c826114fe565b6115268185611508565b93506115368185602086016110b1565b80840191505092915050565b5f61154d8284611512565b915081905092915050565b7f417070726f76616c2063616c6c206661696c65640000000000000000000000005f82015250565b5f61158c601483610fae565b915061159782611558565b602082019050919050565b5f6020820190508181035f8301526115b981611580565b905091905056fea2646970667358221220fe73fc8a2366821ee8f4b8cee63d5f8001bdca68fadf44d0d00cbe438eb3988f64736f6c634300081a0033",
					"opcodes": "PUSH1 0x80 PUSH1 0x40 MSTORE CALLVALUE DUP1 ISZERO PUSH2 0xF JUMPI PUSH0 DUP1 REVERT JUMPDEST POP PUSH5 0x174876E800 PUSH0 DUP1 CALLER PUSH20 0xFFFFFFFFFFFFFFFFFFFFFFFFFFFFFFFFFFFFFFFF AND PUSH20 0xFFFFFFFFFFFFFFFFFFFFFFFFFFFFFFFFFFFFFFFF AND DUP2 MSTORE PUSH1 0x20 ADD SWAP1 DUP2 MSTORE PUSH1 0x20 ADD PUSH0 KECCAK256 DUP2 SWAP1 SSTORE POP PUSH5 0x174876E800 PUSH1 0x2 DUP2 SWAP1 SSTORE POP PUSH1 0x40 MLOAD DUP1 PUSH1 0x40 ADD PUSH1 0x40 MSTORE DUP1 PUSH1 0xB DUP2 MSTORE PUSH1 0x20 ADD PUSH32 0x4D696C6C6572546F6B656E000000000000000000000000000000000000000000 DUP2 MSTORE POP PUSH1 0x3 SWAP1 DUP2 PUSH2 0xA6 SWAP2 SWAP1 PUSH2 0x38E JUMP JUMPDEST POP PUSH1 0x12 PUSH1 0x4 PUSH0 PUSH2 0x100 EXP DUP2 SLOAD DUP2 PUSH1 0xFF MUL NOT AND SWAP1 DUP4 PUSH1 0xFF AND MUL OR SWAP1 SSTORE POP PUSH1 0x40 MLOAD DUP1 PUSH1 0x40 ADD PUSH1 0x40 MSTORE DUP1 PUSH1 0x5 DUP2 MSTORE PUSH1 0x20 ADD PUSH32 0x4D434F4B4E000000000000000000000000000000000000000000000000000000 DUP2 MSTORE POP PUSH1 0x5 SWAP1 DUP2 PUSH2 0x106 SWAP2 SWAP1 PUSH2 0x38E JUMP JUMPDEST POP PUSH1 0xA PUSH1 0x6 DUP2 SWAP1 SSTORE POP CALLER PUSH1 0x8 PUSH0 PUSH2 0x100 EXP DUP2 SLOAD DUP2 PUSH20 0xFFFFFFFFFFFFFFFFFFFFFFFFFFFFFFFFFFFFFFFF MUL NOT AND SWAP1 DUP4 PUSH20 0xFFFFFFFFFFFFFFFFFFFFFFFFFFFFFFFFFFFFFFFF AND MUL OR SWAP1 SSTORE POP PUSH2 0x45D JUMP JUMPDEST PUSH0 DUP2 MLOAD SWAP1 POP SWAP2 SWAP1 POP JUMP JUMPDEST PUSH32 0x4E487B7100000000000000000000000000000000000000000000000000000000 PUSH0 MSTORE PUSH1 0x41 PUSH1 0x4 MSTORE PUSH1 0x24 PUSH0 REVERT JUMPDEST PUSH32 0x4E487B7100000000000000000000000000000000000000000000000000000000 PUSH0 MSTORE PUSH1 0x22 PUSH1 0x4 MSTORE PUSH1 0x24 PUSH0 REVERT JUMPDEST PUSH0 PUSH1 0x2 DUP3 DIV SWAP1 POP PUSH1 0x1 DUP3 AND DUP1 PUSH2 0x1CF JUMPI PUSH1 0x7F DUP3 AND SWAP2 POP JUMPDEST PUSH1 0x20 DUP3 LT DUP2 SUB PUSH2 0x1E2 JUMPI PUSH2 0x1E1 PUSH2 0x18B JUMP JUMPDEST JUMPDEST POP SWAP2 SWAP1 POP JUMP JUMPDEST PUSH0 DUP2 SWAP1 POP DUP2 PUSH0 MSTORE PUSH1 0x20 PUSH0 KECCAK256 SWAP1 POP SWAP2 SWAP1 POP JUMP JUMPDEST PUSH0 PUSH1 0x20 PUSH1 0x1F DUP4 ADD DIV SWAP1 POP SWAP2 SWAP1 POP JUMP JUMPDEST PUSH0 DUP3 DUP3 SHL SWAP1 POP SWAP3 SWAP2 POP POP JUMP JUMPDEST PUSH0 PUSH1 0x8 DUP4 MUL PUSH2 0x244 PUSH32 0xFFFFFFFFFFFFFFFFFFFFFFFFFFFFFFFFFFFFFFFFFFFFFFFFFFFFFFFFFFFFFFFF DUP3 PUSH2 0x209 JUMP JUMPDEST PUSH2 0x24E DUP7 DUP4 PUSH2 0x209 JUMP JUMPDEST SWAP6 POP DUP1 NOT DUP5 AND SWAP4 POP DUP1 DUP7 AND DUP5 OR SWAP3 POP POP POP SWAP4 SWAP3 POP POP POP JUMP JUMPDEST PUSH0 DUP2 SWAP1 POP SWAP2 SWAP1 POP JUMP JUMPDEST PUSH0 DUP2 SWAP1 POP SWAP2 SWAP1 POP JUMP JUMPDEST PUSH0 PUSH2 0x292 PUSH2 0x28D PUSH2 0x288 DUP5 PUSH2 0x266 JUMP JUMPDEST PUSH2 0x26F JUMP JUMPDEST PUSH2 0x266 JUMP JUMPDEST SWAP1 POP SWAP2 SWAP1 POP JUMP JUMPDEST PUSH0 DUP2 SWAP1 POP SWAP2 SWAP1 POP JUMP JUMPDEST PUSH2 0x2AB DUP4 PUSH2 0x278 JUMP JUMPDEST PUSH2 0x2BF PUSH2 0x2B7 DUP3 PUSH2 0x299 JUMP JUMPDEST DUP5 DUP5 SLOAD PUSH2 0x215 JUMP JUMPDEST DUP3 SSTORE POP POP POP POP JUMP JUMPDEST PUSH0 SWAP1 JUMP JUMPDEST PUSH2 0x2D3 PUSH2 0x2C7 JUMP JUMPDEST PUSH2 0x2DE DUP2 DUP5 DUP5 PUSH2 0x2A2 JUMP JUMPDEST POP POP POP JUMP JUMPDEST JUMPDEST DUP2 DUP2 LT ISZERO PUSH2 0x301 JUMPI PUSH2 0x2F6 PUSH0 DUP3 PUSH2 0x2CB JUMP JUMPDEST PUSH1 0x1 DUP2 ADD SWAP1 POP PUSH2 0x2E4 JUMP JUMPDEST POP POP JUMP JUMPDEST PUSH1 0x1F DUP3 GT ISZERO PUSH2 0x346 JUMPI PUSH2 0x317 DUP2 PUSH2 0x1E8 JUMP JUMPDEST PUSH2 0x320 DUP5 PUSH2 0x1FA JUMP JUMPDEST DUP2 ADD PUSH1 0x20 DUP6 LT ISZERO PUSH2 0x32F JUMPI DUP2 SWAP1 POP JUMPDEST PUSH2 0x343 PUSH2 0x33B DUP6 PUSH2 0x1FA JUMP JUMPDEST DUP4 ADD DUP3 PUSH2 0x2E3 JUMP JUMPDEST POP POP JUMPDEST POP POP POP JUMP JUMPDEST PUSH0 DUP3 DUP3 SHR SWAP1 POP SWAP3 SWAP2 POP POP JUMP JUMPDEST PUSH0 PUSH2 0x366 PUSH0 NOT DUP5 PUSH1 0x8 MUL PUSH2 0x34B JUMP JUMPDEST NOT DUP1 DUP4 AND SWAP2 POP POP SWAP3 SWAP2 POP POP JUMP JUMPDEST PUSH0 PUSH2 0x37E DUP4 DUP4 PUSH2 0x357 JUMP JUMPDEST SWAP2 POP DUP3 PUSH1 0x2 MUL DUP3 OR SWAP1 POP SWAP3 SWAP2 POP POP JUMP JUMPDEST PUSH2 0x397 DUP3 PUSH2 0x154 JUMP JUMPDEST PUSH8 0xFFFFFFFFFFFFFFFF DUP2 GT ISZERO PUSH2 0x3B0 JUMPI PUSH2 0x3AF PUSH2 0x15E JUMP JUMPDEST JUMPDEST PUSH2 0x3BA DUP3 SLOAD PUSH2 0x1B8 JUMP JUMPDEST PUSH2 0x3C5 DUP3 DUP3 DUP6 PUSH2 0x305 JUMP JUMPDEST PUSH0 PUSH1 0x20 SWAP1 POP PUSH1 0x1F DUP4 GT PUSH1 0x1 DUP2 EQ PUSH2 0x3F6 JUMPI PUSH0 DUP5 ISZERO PUSH2 0x3E4 JUMPI DUP3 DUP8 ADD MLOAD SWAP1 POP JUMPDEST PUSH2 0x3EE DUP6 DUP3 PUSH2 0x373 JUMP JUMPDEST DUP7 SSTORE POP PUSH2 0x455 JUMP JUMPDEST PUSH1 0x1F NOT DUP5 AND PUSH2 0x404 DUP7 PUSH2 0x1E8 JUMP JUMPDEST PUSH0 JUMPDEST DUP3 DUP2 LT ISZERO PUSH2 0x42B JUMPI DUP5 DUP10 ADD MLOAD DUP3 SSTORE PUSH1 0x1 DUP3 ADD SWAP2 POP PUSH1 0x20 DUP6 ADD SWAP5 POP PUSH1 0x20 DUP2 ADD SWAP1 POP PUSH2 0x406 JUMP JUMPDEST DUP7 DUP4 LT ISZERO PUSH2 0x448 JUMPI DUP5 DUP10 ADD MLOAD PUSH2 0x444 PUSH1 0x1F DUP10 AND DUP3 PUSH2 0x357 JUMP JUMPDEST DUP4 SSTORE POP JUMPDEST PUSH1 0x1 PUSH1 0x2 DUP9 MUL ADD DUP9 SSTORE POP POP POP JUMPDEST POP POP POP POP POP POP JUMP JUMPDEST PUSH2 0x15F6 DUP1 PUSH2 0x46A PUSH0 CODECOPY PUSH0 RETURN INVALID PUSH1 0x80 PUSH1 0x40 MSTORE PUSH1 0x4 CALLDATASIZE LT PUSH2 0xC5 JUMPI PUSH0 CALLDATALOAD PUSH1 0xE0 SHR DUP1 PUSH4 0x65F2BC2E GT PUSH2 0x7E JUMPI DUP1 PUSH4 0x95D89B41 GT PUSH2 0x58 JUMPI DUP1 PUSH4 0x95D89B41 EQ PUSH2 0x4F8 JUMPI DUP1 PUSH4 0xA9059CBB EQ PUSH2 0x522 JUMPI DUP1 PUSH4 0xCAE9CA51 EQ PUSH2 0x55E JUMPI DUP1 PUSH4 0xDD62ED3E EQ PUSH2 0x59A JUMPI PUSH2 0x344 JUMP JUMPDEST DUP1 PUSH4 0x65F2BC2E EQ PUSH2 0x468 JUMPI DUP1 PUSH4 0x70A08231 EQ PUSH2 0x492 JUMPI DUP1 PUSH4 0x933BA413 EQ PUSH2 0x4CE JUMPI PUSH2 0x344 JUMP JUMPDEST DUP1 PUSH4 0x6FDDE03 EQ PUSH2 0x348 JUMPI DUP1 PUSH4 0x95EA7B3 EQ PUSH2 0x372 JUMPI DUP1 PUSH4 0x18160DDD EQ PUSH2 0x3AE JUMPI DUP1 PUSH4 0x2194F3A2 EQ PUSH2 0x3D8 JUMPI DUP1 PUSH4 0x23B872DD EQ PUSH2 0x402 JUMPI DUP1 PUSH4 0x313CE567 EQ PUSH2 0x43E JUMPI PUSH2 0x344 JUMP JUMPDEST CALLDATASIZE PUSH2 0x344 JUMPI CALLVALUE PUSH1 0x7 PUSH0 DUP3 DUP3 SLOAD PUSH2 0xDB SWAP2 SWAP1 PUSH2 0xF3A JUMP JUMPDEST SWAP3 POP POP DUP2 SWAP1 SSTORE POP PUSH0 PUSH1 0x6 SLOAD CALLVALUE PUSH2 0xF1 SWAP2 SWAP1 PUSH2 0xF6D JUMP JUMPDEST SWAP1 POP DUP1 PUSH0 DUP1 PUSH1 0x8 PUSH0 SWAP1 SLOAD SWAP1 PUSH2 0x100 EXP SWAP1 DIV PUSH20 0xFFFFFFFFFFFFFFFFFFFFFFFFFFFFFFFFFFFFFFFF AND PUSH20 0xFFFFFFFFFFFFFFFFFFFFFFFFFFFFFFFFFFFFFFFF AND PUSH20 0xFFFFFFFFFFFFFFFFFFFFFFFFFFFFFFFFFFFFFFFF AND DUP2 MSTORE PUSH1 0x20 ADD SWAP1 DUP2 MSTORE PUSH1 0x20 ADD PUSH0 KECCAK256 SLOAD LT ISZERO PUSH2 0x193 JUMPI PUSH1 0x40 MLOAD PUSH32 0x8C379A000000000000000000000000000000000000000000000000000000000 DUP2 MSTORE PUSH1 0x4 ADD PUSH2 0x18A SWAP1 PUSH2 0x102E JUMP JUMPDEST PUSH1 0x40 MLOAD DUP1 SWAP2 SUB SWAP1 REVERT JUMPDEST DUP1 PUSH0 DUP1 PUSH1 0x8 PUSH0 SWAP1 SLOAD SWAP1 PUSH2 0x100 EXP SWAP1 DIV PUSH20 0xFFFFFFFFFFFFFFFFFFFFFFFFFFFFFFFFFFFFFFFF AND PUSH20 0xFFFFFFFFFFFFFFFFFFFFFFFFFFFFFFFFFFFFFFFF AND PUSH20 0xFFFFFFFFFFFFFFFFFFFFFFFFFFFFFFFFFFFFFFFF AND DUP2 MSTORE PUSH1 0x20 ADD SWAP1 DUP2 MSTORE PUSH1 0x20 ADD PUSH0 KECCAK256 PUSH0 DUP3 DUP3 SLOAD PUSH2 0x1FF SWAP2 SWAP1 PUSH2 0x104C JUMP JUMPDEST SWAP3 POP POP DUP2 SWAP1 SSTORE POP DUP1 PUSH0 DUP1 CALLER PUSH20 0xFFFFFFFFFFFFFFFFFFFFFFFFFFFFFFFFFFFFFFFF AND PUSH20 0xFFFFFFFFFFFFFFFFFFFFFFFFFFFFFFFFFFFFFFFF AND DUP2 MSTORE PUSH1 0x20 ADD SWAP1 DUP2 MSTORE PUSH1 0x20 ADD PUSH0 KECCAK256 PUSH0 DUP3 DUP3 SLOAD PUSH2 0x251 SWAP2 SWAP1 PUSH2 0xF3A JUMP JUMPDEST SWAP3 POP POP DUP2 SWAP1 SSTORE POP CALLER PUSH20 0xFFFFFFFFFFFFFFFFFFFFFFFFFFFFFFFFFFFFFFFF AND PUSH1 0x8 PUSH0 SWAP1 SLOAD SWAP1 PUSH2 0x100 EXP SWAP1 DIV PUSH20 0xFFFFFFFFFFFFFFFFFFFFFFFFFFFFFFFFFFFFFFFF AND PUSH20 0xFFFFFFFFFFFFFFFFFFFFFFFFFFFFFFFFFFFFFFFF AND PUSH32 0xDDF252AD1BE2C89B69C2B068FC378DAA952BA7F163C4A11628F55A4DF523B3EF DUP4 PUSH1 0x40 MLOAD PUSH2 0x2D6 SWAP2 SWAP1 PUSH2 0x108E JUMP JUMPDEST PUSH1 0x40 MLOAD DUP1 SWAP2 SUB SWAP1 LOG3 PUSH1 0x8 PUSH0 SWAP1 SLOAD SWAP1 PUSH2 0x100 EXP SWAP1 DIV PUSH20 0xFFFFFFFFFFFFFFFFFFFFFFFFFFFFFFFFFFFFFFFF AND PUSH20 0xFFFFFFFFFFFFFFFFFFFFFFFFFFFFFFFFFFFFFFFF AND PUSH2 0x8FC CALLVALUE SWAP1 DUP2 ISZERO MUL SWAP1 PUSH1 0x40 MLOAD PUSH0 PUSH1 0x40 MLOAD DUP1 DUP4 SUB DUP2 DUP6 DUP9 DUP9 CALL SWAP4 POP POP POP POP ISZERO DUP1 ISZERO PUSH2 0x342 JUMPI RETURNDATASIZE PUSH0 DUP1 RETURNDATACOPY RETURNDATASIZE PUSH0 REVERT JUMPDEST STOP JUMPDEST PUSH0 DUP1 REVERT JUMPDEST CALLVALUE DUP1 ISZERO PUSH2 0x353 JUMPI PUSH0 DUP1 REVERT JUMPDEST POP PUSH2 0x35C PUSH2 0x5D6 JUMP JUMPDEST PUSH1 0x40 MLOAD PUSH2 0x369 SWAP2 SWAP1 PUSH2 0x1107 JUMP JUMPDEST PUSH1 0x40 MLOAD DUP1 SWAP2 SUB SWAP1 RETURN JUMPDEST CALLVALUE DUP1 ISZERO PUSH2 0x37D JUMPI PUSH0 DUP1 REVERT JUMPDEST POP PUSH2 0x398 PUSH1 0x4 DUP1 CALLDATASIZE SUB DUP2 ADD SWAP1 PUSH2 0x393 SWAP2 SWAP1 PUSH2 0x11B3 JUMP JUMPDEST PUSH2 0x662 JUMP JUMPDEST PUSH1 0x40 MLOAD PUSH2 0x3A5 SWAP2 SWAP1 PUSH2 0x120B JUMP JUMPDEST PUSH1 0x40 MLOAD DUP1 SWAP2 SUB SWAP1 RETURN JUMPDEST CALLVALUE DUP1 ISZERO PUSH2 0x3B9 JUMPI PUSH0 DUP1 REVERT JUMPDEST POP PUSH2 0x3C2 PUSH2 0x74F JUMP JUMPDEST PUSH1 0x40 MLOAD PUSH2 0x3CF SWAP2 SWAP1 PUSH2 0x108E JUMP JUMPDEST PUSH1 0x40 MLOAD DUP1 SWAP2 SUB SWAP1 RETURN JUMPDEST CALLVALUE DUP1 ISZERO PUSH2 0x3E3 JUMPI PUSH0 DUP1 REVERT JUMPDEST POP PUSH2 0x3EC PUSH2 0x753 JUMP JUMPDEST PUSH1 0x40 MLOAD PUSH2 0x3F9 SWAP2 SWAP1 PUSH2 0x1233 JUMP JUMPDEST PUSH1 0x40 MLOAD DUP1 SWAP2 SUB SWAP1 RETURN JUMPDEST CALLVALUE DUP1 ISZERO PUSH2 0x40D JUMPI PUSH0 DUP1 REVERT JUMPDEST POP PUSH2 0x428 PUSH1 0x4 DUP1 CALLDATASIZE SUB DUP2 ADD SWAP1 PUSH2 0x423 SWAP2 SWAP1 PUSH2 0x124C JUMP JUMPDEST PUSH2 0x778 JUMP JUMPDEST PUSH1 0x40 MLOAD PUSH2 0x435 SWAP2 SWAP1 PUSH2 0x120B JUMP JUMPDEST PUSH1 0x40 MLOAD DUP1 SWAP2 SUB SWAP1 RETURN JUMPDEST CALLVALUE DUP1 ISZERO PUSH2 0x449 JUMPI PUSH0 DUP1 REVERT JUMPDEST POP PUSH2 0x452 PUSH2 0x9F8 JUMP JUMPDEST PUSH1 0x40 MLOAD PUSH2 0x45F SWAP2 SWAP1 PUSH2 0x12B7 JUMP JUMPDEST PUSH1 0x40 MLOAD DUP1 SWAP2 SUB SWAP1 RETURN JUMPDEST CALLVALUE DUP1 ISZERO PUSH2 0x473 JUMPI PUSH0 DUP1 REVERT JUMPDEST POP PUSH2 0x47C PUSH2 0xA0A JUMP JUMPDEST PUSH1 0x40 MLOAD PUSH2 0x489 SWAP2 SWAP1 PUSH2 0x108E JUMP JUMPDEST PUSH1 0x40 MLOAD DUP1 SWAP2 SUB SWAP1 RETURN JUMPDEST CALLVALUE DUP1 ISZERO PUSH2 0x49D JUMPI PUSH0 DUP1 REVERT JUMPDEST POP PUSH2 0x4B8 PUSH1 0x4 DUP1 CALLDATASIZE SUB DUP2 ADD SWAP1 PUSH2 0x4B3 SWAP2 SWAP1 PUSH2 0x12D0 JUMP JUMPDEST PUSH2 0xA10 JUMP JUMPDEST PUSH1 0x40 MLOAD PUSH2 0x4C5 SWAP2 SWAP1 PUSH2 0x108E JUMP JUMPDEST PUSH1 0x40 MLOAD DUP1 SWAP2 SUB SWAP1 RETURN JUMPDEST CALLVALUE DUP1 ISZERO PUSH2 0x4D9 JUMPI PUSH0 DUP1 REVERT JUMPDEST POP PUSH2 0x4E2 PUSH2 0xA55 JUMP JUMPDEST PUSH1 0x40 MLOAD PUSH2 0x4EF SWAP2 SWAP1 PUSH2 0x108E JUMP JUMPDEST PUSH1 0x40 MLOAD DUP1 SWAP2 SUB SWAP1 RETURN JUMPDEST CALLVALUE DUP1 ISZERO PUSH2 0x503 JUMPI PUSH0 DUP1 REVERT JUMPDEST POP PUSH2 0x50C PUSH2 0xA5B JUMP JUMPDEST PUSH1 0x40 MLOAD PUSH2 0x519 SWAP2 SWAP1 PUSH2 0x1107 JUMP JUMPDEST PUSH1 0x40 MLOAD DUP1 SWAP2 SUB SWAP1 RETURN JUMPDEST CALLVALUE DUP1 ISZERO PUSH2 0x52D JUMPI PUSH0 DUP1 REVERT JUMPDEST POP PUSH2 0x548 PUSH1 0x4 DUP1 CALLDATASIZE SUB DUP2 ADD SWAP1 PUSH2 0x543 SWAP2 SWAP1 PUSH2 0x11B3 JUMP JUMPDEST PUSH2 0xAE7 JUMP JUMPDEST PUSH1 0x40 MLOAD PUSH2 0x555 SWAP2 SWAP1 PUSH2 0x120B JUMP JUMPDEST PUSH1 0x40 MLOAD DUP1 SWAP2 SUB SWAP1 RETURN JUMPDEST CALLVALUE DUP1 ISZERO PUSH2 0x569 JUMPI PUSH0 DUP1 REVERT JUMPDEST POP PUSH2 0x584 PUSH1 0x4 DUP1 CALLDATASIZE SUB DUP2 ADD SWAP1 PUSH2 0x57F SWAP2 SWAP1 PUSH2 0x135C JUMP JUMPDEST PUSH2 0xC54 JUMP JUMPDEST PUSH1 0x40 MLOAD PUSH2 0x591 SWAP2 SWAP1 PUSH2 0x120B JUMP JUMPDEST PUSH1 0x40 MLOAD DUP1 SWAP2 SUB SWAP1 RETURN JUMPDEST CALLVALUE DUP1 ISZERO PUSH2 0x5A5 JUMPI PUSH0 DUP1 REVERT JUMPDEST POP PUSH2 0x5C0 PUSH1 0x4 DUP1 CALLDATASIZE SUB DUP2 ADD SWAP1 PUSH2 0x5BB SWAP2 SWAP1 PUSH2 0x13CD JUMP JUMPDEST PUSH2 0xE82 JUMP JUMPDEST PUSH1 0x40 MLOAD PUSH2 0x5CD SWAP2 SWAP1 PUSH2 0x108E JUMP JUMPDEST PUSH1 0x40 MLOAD DUP1 SWAP2 SUB SWAP1 RETURN JUMPDEST PUSH1 0x3 DUP1 SLOAD PUSH2 0x5E3 SWAP1 PUSH2 0x1438 JUMP JUMPDEST DUP1 PUSH1 0x1F ADD PUSH1 0x20 DUP1 SWAP2 DIV MUL PUSH1 0x20 ADD PUSH1 0x40 MLOAD SWAP1 DUP2 ADD PUSH1 0x40 MSTORE DUP1 SWAP3 SWAP2 SWAP1 DUP2 DUP2 MSTORE PUSH1 0x20 ADD DUP3 DUP1 SLOAD PUSH2 0x60F SWAP1 PUSH2 0x1438 JUMP JUMPDEST DUP1 ISZERO PUSH2 0x65A JUMPI DUP1 PUSH1 0x1F LT PUSH2 0x631 JUMPI PUSH2 0x100 DUP1 DUP4 SLOAD DIV MUL DUP4 MSTORE SWAP2 PUSH1 0x20 ADD SWAP2 PUSH2 0x65A JUMP JUMPDEST DUP3 ADD SWAP2 SWAP1 PUSH0 MSTORE PUSH1 0x20 PUSH0 KECCAK256 SWAP1 JUMPDEST DUP2 SLOAD DUP2 MSTORE SWAP1 PUSH1 0x1 ADD SWAP1 PUSH1 0x20 ADD DUP1 DUP4 GT PUSH2 0x63D JUMPI DUP3 SWAP1 SUB PUSH1 0x1F AND DUP3 ADD SWAP2 JUMPDEST POP POP POP POP POP DUP2 JUMP JUMPDEST PUSH0 DUP2 PUSH1 0x1 PUSH0 CALLER PUSH20 0xFFFFFFFFFFFFFFFFFFFFFFFFFFFFFFFFFFFFFFFF AND PUSH20 0xFFFFFFFFFFFFFFFFFFFFFFFFFFFFFFFFFFFFFFFF AND DUP2 MSTORE PUSH1 0x20 ADD SWAP1 DUP2 MSTORE PUSH1 0x20 ADD PUSH0 KECCAK256 PUSH0 DUP6 PUSH20 0xFFFFFFFFFFFFFFFFFFFFFFFFFFFFFFFFFFFFFFFF AND PUSH20 0xFFFFFFFFFFFFFFFFFFFFFFFFFFFFFFFFFFFFFFFF AND DUP2 MSTORE PUSH1 0x20 ADD SWAP1 DUP2 MSTORE PUSH1 0x20 ADD PUSH0 KECCAK256 DUP2 SWAP1 SSTORE POP DUP3 PUSH20 0xFFFFFFFFFFFFFFFFFFFFFFFFFFFFFFFFFFFFFFFF AND CALLER PUSH20 0xFFFFFFFFFFFFFFFFFFFFFFFFFFFFFFFFFFFFFFFF AND PUSH32 0x8C5BE1E5EBEC7D5BD14F71427D1E84F3DD0314C0F7B2291E5B200AC8C7C3B925 DUP5 PUSH1 0x40 MLOAD PUSH2 0x73D SWAP2 SWAP1 PUSH2 0x108E JUMP JUMPDEST PUSH1 0x40 MLOAD DUP1 SWAP2 SUB SWAP1 LOG3 PUSH1 0x1 SWAP1 POP SWAP3 SWAP2 POP POP JUMP JUMPDEST PUSH0 SWAP1 JUMP JUMPDEST PUSH1 0x8 PUSH0 SWAP1 SLOAD SWAP1 PUSH2 0x100 EXP SWAP1 DIV PUSH20 0xFFFFFFFFFFFFFFFFFFFFFFFFFFFFFFFFFFFFFFFF AND DUP2 JUMP JUMPDEST PUSH0 DUP2 PUSH0 DUP1 DUP7 PUSH20 0xFFFFFFFFFFFFFFFFFFFFFFFFFFFFFFFFFFFFFFFF AND PUSH20 0xFFFFFFFFFFFFFFFFFFFFFFFFFFFFFFFFFFFFFFFF AND DUP2 MSTORE PUSH1 0x20 ADD SWAP1 DUP2 MSTORE PUSH1 0x20 ADD PUSH0 KECCAK256 SLOAD LT ISZERO DUP1 ISZERO PUSH2 0x83D JUMPI POP DUP2 PUSH1 0x1 PUSH0 DUP7 PUSH20 0xFFFFFFFFFFFFFFFFFFFFFFFFFFFFFFFFFFFFFFFF AND PUSH20 0xFFFFFFFFFFFFFFFFFFFFFFFFFFFFFFFFFFFFFFFF AND DUP2 MSTORE PUSH1 0x20 ADD SWAP1 DUP2 MSTORE PUSH1 0x20 ADD PUSH0 KECCAK256 PUSH0 CALLER PUSH20 0xFFFFFFFFFFFFFFFFFFFFFFFFFFFFFFFFFFFFFFFF AND PUSH20 0xFFFFFFFFFFFFFFFFFFFFFFFFFFFFFFFFFFFFFFFF AND DUP2 MSTORE PUSH1 0x20 ADD SWAP1 DUP2 MSTORE PUSH1 0x20 ADD PUSH0 KECCAK256 SLOAD LT ISZERO JUMPDEST DUP1 ISZERO PUSH2 0x848 JUMPI POP PUSH0 DUP3 GT JUMPDEST ISZERO PUSH2 0x9ED JUMPI DUP2 PUSH0 DUP1 DUP6 PUSH20 0xFFFFFFFFFFFFFFFFFFFFFFFFFFFFFFFFFFFFFFFF AND PUSH20 0xFFFFFFFFFFFFFFFFFFFFFFFFFFFFFFFFFFFFFFFF AND DUP2 MSTORE PUSH1 0x20 ADD SWAP1 DUP2 MSTORE PUSH1 0x20 ADD PUSH0 KECCAK256 PUSH0 DUP3 DUP3 SLOAD PUSH2 0x898 SWAP2 SWAP1 PUSH2 0xF3A JUMP JUMPDEST SWAP3 POP POP DUP2 SWAP1 SSTORE POP DUP2 PUSH0 DUP1 DUP7 PUSH20 0xFFFFFFFFFFFFFFFFFFFFFFFFFFFFFFFFFFFFFFFF AND PUSH20 0xFFFFFFFFFFFFFFFFFFFFFFFFFFFFFFFFFFFFFFFF AND DUP2 MSTORE PUSH1 0x20 ADD SWAP1 DUP2 MSTORE PUSH1 0x20 ADD PUSH0 KECCAK256 PUSH0 DUP3 DUP3 SLOAD PUSH2 0x8EA SWAP2 SWAP1 PUSH2 0x104C JUMP JUMPDEST SWAP3 POP POP DUP2 SWAP1 SSTORE POP DUP2 PUSH1 0x1 PUSH0 DUP7 PUSH20 0xFFFFFFFFFFFFFFFFFFFFFFFFFFFFFFFFFFFFFFFF AND PUSH20 0xFFFFFFFFFFFFFFFFFFFFFFFFFFFFFFFFFFFFFFFF AND DUP2 MSTORE PUSH1 0x20 ADD SWAP1 DUP2 MSTORE PUSH1 0x20 ADD PUSH0 KECCAK256 PUSH0 CALLER PUSH20 0xFFFFFFFFFFFFFFFFFFFFFFFFFFFFFFFFFFFFFFFF AND PUSH20 0xFFFFFFFFFFFFFFFFFFFFFFFFFFFFFFFFFFFFFFFF AND DUP2 MSTORE PUSH1 0x20 ADD SWAP1 DUP2 MSTORE PUSH1 0x20 ADD PUSH0 KECCAK256 PUSH0 DUP3 DUP3 SLOAD PUSH2 0x978 SWAP2 SWAP1 PUSH2 0x104C JUMP JUMPDEST SWAP3 POP POP DUP2 SWAP1 SSTORE POP DUP3 PUSH20 0xFFFFFFFFFFFFFFFFFFFFFFFFFFFFFFFFFFFFFFFF AND DUP5 PUSH20 0xFFFFFFFFFFFFFFFFFFFFFFFFFFFFFFFFFFFFFFFF AND PUSH32 0xDDF252AD1BE2C89B69C2B068FC378DAA952BA7F163C4A11628F55A4DF523B3EF DUP5 PUSH1 0x40 MLOAD PUSH2 0x9DC SWAP2 SWAP1 PUSH2 0x108E JUMP JUMPDEST PUSH1 0x40 MLOAD DUP1 SWAP2 SUB SWAP1 LOG3 PUSH1 0x1 SWAP1 POP PUSH2 0x9F1 JUMP JUMPDEST PUSH0 SWAP1 POP JUMPDEST SWAP4 SWAP3 POP POP POP JUMP JUMPDEST PUSH1 0x4 PUSH0 SWAP1 SLOAD SWAP1 PUSH2 0x100 EXP SWAP1 DIV PUSH1 0xFF AND DUP2 JUMP JUMPDEST PUSH1 0x6 SLOAD DUP2 JUMP JUMPDEST PUSH0 DUP1 PUSH0 DUP4 PUSH20 0xFFFFFFFFFFFFFFFFFFFFFFFFFFFFFFFFFFFFFFFF AND PUSH20 0xFFFFFFFFFFFFFFFFFFFFFFFFFFFFFFFFFFFFFFFF AND DUP2 MSTORE PUSH1 0x20 ADD SWAP1 DUP2 MSTORE PUSH1 0x20 ADD PUSH0 KECCAK256 SLOAD SWAP1 POP SWAP2 SWAP1 POP JUMP JUMPDEST PUSH1 0x7 SLOAD DUP2 JUMP JUMPDEST PUSH1 0x5 DUP1 SLOAD PUSH2 0xA68 SWAP1 PUSH2 0x1438 JUMP JUMPDEST DUP1 PUSH1 0x1F ADD PUSH1 0x20 DUP1 SWAP2 DIV MUL PUSH1 0x20 ADD PUSH1 0x40 MLOAD SWAP1 DUP2 ADD PUSH1 0x40 MSTORE DUP1 SWAP3 SWAP2 SWAP1 DUP2 DUP2 MSTORE PUSH1 0x20 ADD DUP3 DUP1 SLOAD PUSH2 0xA94 SWAP1 PUSH2 0x1438 JUMP JUMPDEST DUP1 ISZERO PUSH2 0xADF JUMPI DUP1 PUSH1 0x1F LT PUSH2 0xAB6 JUMPI PUSH2 0x100 DUP1 DUP4 SLOAD DIV MUL DUP4 MSTORE SWAP2 PUSH1 0x20 ADD SWAP2 PUSH2 0xADF JUMP JUMPDEST DUP3 ADD SWAP2 SWAP1 PUSH0 MSTORE PUSH1 0x20 PUSH0 KECCAK256 SWAP1 JUMPDEST DUP2 SLOAD DUP2 MSTORE SWAP1 PUSH1 0x1 ADD SWAP1 PUSH1 0x20 ADD DUP1 DUP4 GT PUSH2 0xAC2 JUMPI DUP3 SWAP1 SUB PUSH1 0x1F AND DUP3 ADD SWAP2 JUMPDEST POP POP POP POP POP DUP2 JUMP JUMPDEST PUSH0 DUP2 PUSH0 DUP1 CALLER PUSH20 0xFFFFFFFFFFFFFFFFFFFFFFFFFFFFFFFFFFFFFFFF AND PUSH20 0xFFFFFFFFFFFFFFFFFFFFFFFFFFFFFFFFFFFFFFFF AND DUP2 MSTORE PUSH1 0x20 ADD SWAP1 DUP2 MSTORE PUSH1 0x20 ADD PUSH0 KECCAK256 SLOAD LT ISZERO DUP1 ISZERO PUSH2 0xB33 JUMPI POP PUSH0 DUP3 GT JUMPDEST ISZERO PUSH2 0xC4A JUMPI DUP2 PUSH0 DUP1 CALLER PUSH20 0xFFFFFFFFFFFFFFFFFFFFFFFFFFFFFFFFFFFFFFFF AND PUSH20 0xFFFFFFFFFFFFFFFFFFFFFFFFFFFFFFFFFFFFFFFF AND DUP2 MSTORE PUSH1 0x20 ADD SWAP1 DUP2 MSTORE PUSH1 0x20 ADD PUSH0 KECCAK256 PUSH0 DUP3 DUP3 SLOAD PUSH2 0xB83 SWAP2 SWAP1 PUSH2 0x104C JUMP JUMPDEST SWAP3 POP POP DUP2 SWAP1 SSTORE POP DUP2 PUSH0 DUP1 DUP6 PUSH20 0xFFFFFFFFFFFFFFFFFFFFFFFFFFFFFFFFFFFFFFFF AND PUSH20 0xFFFFFFFFFFFFFFFFFFFFFFFFFFFFFFFFFFFFFFFF AND DUP2 MSTORE PUSH1 0x20 ADD SWAP1 DUP2 MSTORE PUSH1 0x20 ADD PUSH0 KECCAK256 PUSH0 DUP3 DUP3 SLOAD PUSH2 0xBD5 SWAP2 SWAP1 PUSH2 0xF3A JUMP JUMPDEST SWAP3 POP POP DUP2 SWAP1 SSTORE POP DUP3 PUSH20 0xFFFFFFFFFFFFFFFFFFFFFFFFFFFFFFFFFFFFFFFF AND CALLER PUSH20 0xFFFFFFFFFFFFFFFFFFFFFFFFFFFFFFFFFFFFFFFF AND PUSH32 0xDDF252AD1BE2C89B69C2B068FC378DAA952BA7F163C4A11628F55A4DF523B3EF DUP5 PUSH1 0x40 MLOAD PUSH2 0xC39 SWAP2 SWAP1 PUSH2 0x108E JUMP JUMPDEST PUSH1 0x40 MLOAD DUP1 SWAP2 SUB SWAP1 LOG3 PUSH1 0x1 SWAP1 POP PUSH2 0xC4E JUMP JUMPDEST PUSH0 SWAP1 POP JUMPDEST SWAP3 SWAP2 POP POP JUMP JUMPDEST PUSH0 DUP4 PUSH1 0x1 PUSH0 CALLER PUSH20 0xFFFFFFFFFFFFFFFFFFFFFFFFFFFFFFFFFFFFFFFF AND PUSH20 0xFFFFFFFFFFFFFFFFFFFFFFFFFFFFFFFFFFFFFFFF AND DUP2 MSTORE PUSH1 0x20 ADD SWAP1 DUP2 MSTORE PUSH1 0x20 ADD PUSH0 KECCAK256 PUSH0 DUP8 PUSH20 0xFFFFFFFFFFFFFFFFFFFFFFFFFFFFFFFFFFFFFFFF AND PUSH20 0xFFFFFFFFFFFFFFFFFFFFFFFFFFFFFFFFFFFFFFFF AND DUP2 MSTORE PUSH1 0x20 ADD SWAP1 DUP2 MSTORE PUSH1 0x20 ADD PUSH0 KECCAK256 DUP2 SWAP1 SSTORE POP DUP5 PUSH20 0xFFFFFFFFFFFFFFFFFFFFFFFFFFFFFFFFFFFFFFFF AND CALLER PUSH20 0xFFFFFFFFFFFFFFFFFFFFFFFFFFFFFFFFFFFFFFFF AND PUSH32 0x8C5BE1E5EBEC7D5BD14F71427D1E84F3DD0314C0F7B2291E5B200AC8C7C3B925 DUP7 PUSH1 0x40 MLOAD PUSH2 0xD2F SWAP2 SWAP1 PUSH2 0x108E JUMP JUMPDEST PUSH1 0x40 MLOAD DUP1 SWAP2 SUB SWAP1 LOG3 PUSH0 DUP6 PUSH20 0xFFFFFFFFFFFFFFFFFFFFFFFFFFFFFFFFFFFFFFFF AND PUSH32 0x8F4FFCB1BB44D94232117B8FFA4D02D6690264DA1E3430C3916E2C263FA5D3DA CALLER DUP8 ADDRESS DUP9 DUP9 PUSH1 0x40 MLOAD PUSH1 0x24 ADD PUSH2 0xD89 SWAP6 SWAP5 SWAP4 SWAP3 SWAP2 SWAP1 PUSH2 0x14B2 JUMP JUMPDEST PUSH1 0x40 MLOAD PUSH1 0x20 DUP2 DUP4 SUB SUB DUP2 MSTORE SWAP1 PUSH1 0x40 MSTORE SWAP1 PUSH28 0xFFFFFFFFFFFFFFFFFFFFFFFFFFFFFFFFFFFFFFFFFFFFFFFFFFFFFFFF NOT AND PUSH1 0x20 DUP3 ADD DUP1 MLOAD PUSH28 0xFFFFFFFFFFFFFFFFFFFFFFFFFFFFFFFFFFFFFFFFFFFFFFFFFFFFFFFF DUP4 DUP2 DUP4 AND OR DUP4 MSTORE POP POP POP POP PUSH1 0x40 MLOAD PUSH2 0xDF3 SWAP2 SWAP1 PUSH2 0x1542 JUMP JUMPDEST PUSH0 PUSH1 0x40 MLOAD DUP1 DUP4 SUB DUP2 PUSH0 DUP7 GAS CALL SWAP2 POP POP RETURNDATASIZE DUP1 PUSH0 DUP2 EQ PUSH2 0xE2C JUMPI PUSH1 0x40 MLOAD SWAP2 POP PUSH1 0x1F NOT PUSH1 0x3F RETURNDATASIZE ADD AND DUP3 ADD PUSH1 0x40 MSTORE RETURNDATASIZE DUP3 MSTORE RETURNDATASIZE PUSH0 PUSH1 0x20 DUP5 ADD RETURNDATACOPY PUSH2 0xE31 JUMP JUMPDEST PUSH1 0x60 SWAP2 POP JUMPDEST POP POP SWAP1 POP DUP1 PUSH2 0xE75 JUMPI PUSH1 0x40 MLOAD PUSH32 0x8C379A000000000000000000000000000000000000000000000000000000000 DUP2 MSTORE PUSH1 0x4 ADD PUSH2 0xE6C SWAP1 PUSH2 0x15A2 JUMP JUMPDEST PUSH1 0x40 MLOAD DUP1 SWAP2 SUB SWAP1 REVERT JUMPDEST PUSH1 0x1 SWAP2 POP POP SWAP5 SWAP4 POP POP POP POP JUMP JUMPDEST PUSH0 PUSH1 0x1 PUSH0 DUP5 PUSH20 0xFFFFFFFFFFFFFFFFFFFFFFFFFFFFFFFFFFFFFFFF AND PUSH20 0xFFFFFFFFFFFFFFFFFFFFFFFFFFFFFFFFFFFFFFFF AND DUP2 MSTORE PUSH1 0x20 ADD SWAP1 DUP2 MSTORE PUSH1 0x20 ADD PUSH0 KECCAK256 PUSH0 DUP4 PUSH20 0xFFFFFFFFFFFFFFFFFFFFFFFFFFFFFFFFFFFFFFFF AND PUSH20 0xFFFFFFFFFFFFFFFFFFFFFFFFFFFFFFFFFFFFFFFF AND DUP2 MSTORE PUSH1 0x20 ADD SWAP1 DUP2 MSTORE PUSH1 0x20 ADD PUSH0 KECCAK256 SLOAD SWAP1 POP SWAP3 SWAP2 POP POP JUMP JUMPDEST PUSH0 DUP2 SWAP1 POP SWAP2 SWAP1 POP JUMP JUMPDEST PUSH32 0x4E487B7100000000000000000000000000000000000000000000000000000000 PUSH0 MSTORE PUSH1 0x11 PUSH1 0x4 MSTORE PUSH1 0x24 PUSH0 REVERT JUMPDEST PUSH0 PUSH2 0xF44 DUP3 PUSH2 0xF04 JUMP JUMPDEST SWAP2 POP PUSH2 0xF4F DUP4 PUSH2 0xF04 JUMP JUMPDEST SWAP3 POP DUP3 DUP3 ADD SWAP1 POP DUP1 DUP3 GT ISZERO PUSH2 0xF67 JUMPI PUSH2 0xF66 PUSH2 0xF0D JUMP JUMPDEST JUMPDEST SWAP3 SWAP2 POP POP JUMP JUMPDEST PUSH0 PUSH2 0xF77 DUP3 PUSH2 0xF04 JUMP JUMPDEST SWAP2 POP PUSH2 0xF82 DUP4 PUSH2 0xF04 JUMP JUMPDEST SWAP3 POP DUP3 DUP3 MUL PUSH2 0xF90 DUP2 PUSH2 0xF04 JUMP JUMPDEST SWAP2 POP DUP3 DUP3 DIV DUP5 EQ DUP4 ISZERO OR PUSH2 0xFA7 JUMPI PUSH2 0xFA6 PUSH2 0xF0D JUMP JUMPDEST JUMPDEST POP SWAP3 SWAP2 POP POP JUMP JUMPDEST PUSH0 DUP3 DUP3 MSTORE PUSH1 0x20 DUP3 ADD SWAP1 POP SWAP3 SWAP2 POP POP JUMP JUMPDEST PUSH32 0x4E6F7420656E6F75676820746F6B656E7320696E207468652066756E64207761 PUSH0 DUP3 ADD MSTORE PUSH32 0x6C6C657400000000000000000000000000000000000000000000000000000000 PUSH1 0x20 DUP3 ADD MSTORE POP JUMP JUMPDEST PUSH0 PUSH2 0x1018 PUSH1 0x24 DUP4 PUSH2 0xFAE JUMP JUMPDEST SWAP2 POP PUSH2 0x1023 DUP3 PUSH2 0xFBE JUMP JUMPDEST PUSH1 0x40 DUP3 ADD SWAP1 POP SWAP2 SWAP1 POP JUMP JUMPDEST PUSH0 PUSH1 0x20 DUP3 ADD SWAP1 POP DUP2 DUP2 SUB PUSH0 DUP4 ADD MSTORE PUSH2 0x1045 DUP2 PUSH2 0x100C JUMP JUMPDEST SWAP1 POP SWAP2 SWAP1 POP JUMP JUMPDEST PUSH0 PUSH2 0x1056 DUP3 PUSH2 0xF04 JUMP JUMPDEST SWAP2 POP PUSH2 0x1061 DUP4 PUSH2 0xF04 JUMP JUMPDEST SWAP3 POP DUP3 DUP3 SUB SWAP1 POP DUP2 DUP2 GT ISZERO PUSH2 0x1079 JUMPI PUSH2 0x1078 PUSH2 0xF0D JUMP JUMPDEST JUMPDEST SWAP3 SWAP2 POP POP JUMP JUMPDEST PUSH2 0x1088 DUP2 PUSH2 0xF04 JUMP JUMPDEST DUP3 MSTORE POP POP JUMP JUMPDEST PUSH0 PUSH1 0x20 DUP3 ADD SWAP1 POP PUSH2 0x10A1 PUSH0 DUP4 ADD DUP5 PUSH2 0x107F JUMP JUMPDEST SWAP3 SWAP2 POP POP JUMP JUMPDEST PUSH0 DUP2 MLOAD SWAP1 POP SWAP2 SWAP1 POP JUMP JUMPDEST DUP3 DUP2 DUP4 MCOPY PUSH0 DUP4 DUP4 ADD MSTORE POP POP POP JUMP JUMPDEST PUSH0 PUSH1 0x1F NOT PUSH1 0x1F DUP4 ADD AND SWAP1 POP SWAP2 SWAP1 POP JUMP JUMPDEST PUSH0 PUSH2 0x10D9 DUP3 PUSH2 0x10A7 JUMP JUMPDEST PUSH2 0x10E3 DUP2 DUP6 PUSH2 0xFAE JUMP JUMPDEST SWAP4 POP PUSH2 0x10F3 DUP2 DUP6 PUSH1 0x20 DUP7 ADD PUSH2 0x10B1 JUMP JUMPDEST PUSH2 0x10FC DUP2 PUSH2 0x10BF JUMP JUMPDEST DUP5 ADD SWAP2 POP POP SWAP3 SWAP2 POP POP JUMP JUMPDEST PUSH0 PUSH1 0x20 DUP3 ADD SWAP1 POP DUP2 DUP2 SUB PUSH0 DUP4 ADD MSTORE PUSH2 0x111F DUP2 DUP5 PUSH2 0x10CF JUMP JUMPDEST SWAP1 POP SWAP3 SWAP2 POP POP JUMP JUMPDEST PUSH0 DUP1 REVERT JUMPDEST PUSH0 DUP1 REVERT JUMPDEST PUSH0 PUSH20 0xFFFFFFFFFFFFFFFFFFFFFFFFFFFFFFFFFFFFFFFF DUP3 AND SWAP1 POP SWAP2 SWAP1 POP JUMP JUMPDEST PUSH0 PUSH2 0x1158 DUP3 PUSH2 0x112F JUMP JUMPDEST SWAP1 POP SWAP2 SWAP1 POP JUMP JUMPDEST PUSH2 0x1168 DUP2 PUSH2 0x114E JUMP JUMPDEST DUP2 EQ PUSH2 0x1172 JUMPI PUSH0 DUP1 REVERT JUMPDEST POP JUMP JUMPDEST PUSH0 DUP2 CALLDATALOAD SWAP1 POP PUSH2 0x1183 DUP2 PUSH2 0x115F JUMP JUMPDEST SWAP3 SWAP2 POP POP JUMP JUMPDEST PUSH2 0x1192 DUP2 PUSH2 0xF04 JUMP JUMPDEST DUP2 EQ PUSH2 0x119C JUMPI PUSH0 DUP1 REVERT JUMPDEST POP JUMP JUMPDEST PUSH0 DUP2 CALLDATALOAD SWAP1 POP PUSH2 0x11AD DUP2 PUSH2 0x1189 JUMP JUMPDEST SWAP3 SWAP2 POP POP JUMP JUMPDEST PUSH0 DUP1 PUSH1 0x40 DUP4 DUP6 SUB SLT ISZERO PUSH2 0x11C9 JUMPI PUSH2 0x11C8 PUSH2 0x1127 JUMP JUMPDEST JUMPDEST PUSH0 PUSH2 0x11D6 DUP6 DUP3 DUP7 ADD PUSH2 0x1175 JUMP JUMPDEST SWAP3 POP POP PUSH1 0x20 PUSH2 0x11E7 DUP6 DUP3 DUP7 ADD PUSH2 0x119F JUMP JUMPDEST SWAP2 POP POP SWAP3 POP SWAP3 SWAP1 POP JUMP JUMPDEST PUSH0 DUP2 ISZERO ISZERO SWAP1 POP SWAP2 SWAP1 POP JUMP JUMPDEST PUSH2 0x1205 DUP2 PUSH2 0x11F1 JUMP JUMPDEST DUP3 MSTORE POP POP JUMP JUMPDEST PUSH0 PUSH1 0x20 DUP3 ADD SWAP1 POP PUSH2 0x121E PUSH0 DUP4 ADD DUP5 PUSH2 0x11FC JUMP JUMPDEST SWAP3 SWAP2 POP POP JUMP JUMPDEST PUSH2 0x122D DUP2 PUSH2 0x114E JUMP JUMPDEST DUP3 MSTORE POP POP JUMP JUMPDEST PUSH0 PUSH1 0x20 DUP3 ADD SWAP1 POP PUSH2 0x1246 PUSH0 DUP4 ADD DUP5 PUSH2 0x1224 JUMP JUMPDEST SWAP3 SWAP2 POP POP JUMP JUMPDEST PUSH0 DUP1 PUSH0 PUSH1 0x60 DUP5 DUP7 SUB SLT ISZERO PUSH2 0x1263 JUMPI PUSH2 0x1262 PUSH2 0x1127 JUMP JUMPDEST JUMPDEST PUSH0 PUSH2 0x1270 DUP7 DUP3 DUP8 ADD PUSH2 0x1175 JUMP JUMPDEST SWAP4 POP POP PUSH1 0x20 PUSH2 0x1281 DUP7 DUP3 DUP8 ADD PUSH2 0x1175 JUMP JUMPDEST SWAP3 POP POP PUSH1 0x40 PUSH2 0x1292 DUP7 DUP3 DUP8 ADD PUSH2 0x119F JUMP JUMPDEST SWAP2 POP POP SWAP3 POP SWAP3 POP SWAP3 JUMP JUMPDEST PUSH0 PUSH1 0xFF DUP3 AND SWAP1 POP SWAP2 SWAP1 POP JUMP JUMPDEST PUSH2 0x12B1 DUP2 PUSH2 0x129C JUMP JUMPDEST DUP3 MSTORE POP POP JUMP JUMPDEST PUSH0 PUSH1 0x20 DUP3 ADD SWAP1 POP PUSH2 0x12CA PUSH0 DUP4 ADD DUP5 PUSH2 0x12A8 JUMP JUMPDEST SWAP3 SWAP2 POP POP JUMP JUMPDEST PUSH0 PUSH1 0x20 DUP3 DUP5 SUB SLT ISZERO PUSH2 0x12E5 JUMPI PUSH2 0x12E4 PUSH2 0x1127 JUMP JUMPDEST JUMPDEST PUSH0 PUSH2 0x12F2 DUP5 DUP3 DUP6 ADD PUSH2 0x1175 JUMP JUMPDEST SWAP2 POP POP SWAP3 SWAP2 POP POP JUMP JUMPDEST PUSH0 DUP1 REVERT JUMPDEST PUSH0 DUP1 REVERT JUMPDEST PUSH0 DUP1 REVERT JUMPDEST PUSH0 DUP1 DUP4 PUSH1 0x1F DUP5 ADD SLT PUSH2 0x131C JUMPI PUSH2 0x131B PUSH2 0x12FB JUMP JUMPDEST JUMPDEST DUP3 CALLDATALOAD SWAP1 POP PUSH8 0xFFFFFFFFFFFFFFFF DUP2 GT ISZERO PUSH2 0x1339 JUMPI PUSH2 0x1338 PUSH2 0x12FF JUMP JUMPDEST JUMPDEST PUSH1 0x20 DUP4 ADD SWAP2 POP DUP4 PUSH1 0x1 DUP3 MUL DUP4 ADD GT ISZERO PUSH2 0x1355 JUMPI PUSH2 0x1354 PUSH2 0x1303 JUMP JUMPDEST JUMPDEST SWAP3 POP SWAP3 SWAP1 POP JUMP JUMPDEST PUSH0 DUP1 PUSH0 DUP1 PUSH1 0x60 DUP6 DUP8 SUB SLT ISZERO PUSH2 0x1374 JUMPI PUSH2 0x1373 PUSH2 0x1127 JUMP JUMPDEST JUMPDEST PUSH0 PUSH2 0x1381 DUP8 DUP3 DUP9 ADD PUSH2 0x1175 JUMP JUMPDEST SWAP5 POP POP PUSH1 0x20 PUSH2 0x1392 DUP8 DUP3 DUP9 ADD PUSH2 0x119F JUMP JUMPDEST SWAP4 POP POP PUSH1 0x40 DUP6 ADD CALLDATALOAD PUSH8 0xFFFFFFFFFFFFFFFF DUP2 GT ISZERO PUSH2 0x13B3 JUMPI PUSH2 0x13B2 PUSH2 0x112B JUMP JUMPDEST JUMPDEST PUSH2 0x13BF DUP8 DUP3 DUP9 ADD PUSH2 0x1307 JUMP JUMPDEST SWAP3 POP SWAP3 POP POP SWAP3 SWAP6 SWAP2 SWAP5 POP SWAP3 POP JUMP JUMPDEST PUSH0 DUP1 PUSH1 0x40 DUP4 DUP6 SUB SLT ISZERO PUSH2 0x13E3 JUMPI PUSH2 0x13E2 PUSH2 0x1127 JUMP JUMPDEST JUMPDEST PUSH0 PUSH2 0x13F0 DUP6 DUP3 DUP7 ADD PUSH2 0x1175 JUMP JUMPDEST SWAP3 POP POP PUSH1 0x20 PUSH2 0x1401 DUP6 DUP3 DUP7 ADD PUSH2 0x1175 JUMP JUMPDEST SWAP2 POP POP SWAP3 POP SWAP3 SWAP1 POP JUMP JUMPDEST PUSH32 0x4E487B7100000000000000000000000000000000000000000000000000000000 PUSH0 MSTORE PUSH1 0x22 PUSH1 0x4 MSTORE PUSH1 0x24 PUSH0 REVERT JUMPDEST PUSH0 PUSH1 0x2 DUP3 DIV SWAP1 POP PUSH1 0x1 DUP3 AND DUP1 PUSH2 0x144F JUMPI PUSH1 0x7F DUP3 AND SWAP2 POP JUMPDEST PUSH1 0x20 DUP3 LT DUP2 SUB PUSH2 0x1462 JUMPI PUSH2 0x1461 PUSH2 0x140B JUMP JUMPDEST JUMPDEST POP SWAP2 SWAP1 POP JUMP JUMPDEST PUSH0 DUP3 DUP3 MSTORE PUSH1 0x20 DUP3 ADD SWAP1 POP SWAP3 SWAP2 POP POP JUMP JUMPDEST DUP3 DUP2 DUP4 CALLDATACOPY PUSH0 DUP4 DUP4 ADD MSTORE POP POP POP JUMP JUMPDEST PUSH0 PUSH2 0x1491 DUP4 DUP6 PUSH2 0x1468 JUMP JUMPDEST SWAP4 POP PUSH2 0x149E DUP4 DUP6 DUP5 PUSH2 0x1478 JUMP JUMPDEST PUSH2 0x14A7 DUP4 PUSH2 0x10BF JUMP JUMPDEST DUP5 ADD SWAP1 POP SWAP4 SWAP3 POP POP POP JUMP JUMPDEST PUSH0 PUSH1 0x80 DUP3 ADD SWAP1 POP PUSH2 0x14C5 PUSH0 DUP4 ADD DUP9 PUSH2 0x1224 JUMP JUMPDEST PUSH2 0x14D2 PUSH1 0x20 DUP4 ADD DUP8 PUSH2 0x107F JUMP JUMPDEST PUSH2 0x14DF PUSH1 0x40 DUP4 ADD DUP7 PUSH2 0x1224 JUMP JUMPDEST DUP2 DUP2 SUB PUSH1 0x60 DUP4 ADD MSTORE PUSH2 0x14F2 DUP2 DUP5 DUP7 PUSH2 0x1486 JUMP JUMPDEST SWAP1 POP SWAP7 SWAP6 POP POP POP POP POP POP JUMP JUMPDEST PUSH0 DUP2 MLOAD SWAP1 POP SWAP2 SWAP1 POP JUMP JUMPDEST PUSH0 DUP2 SWAP1 POP SWAP3 SWAP2 POP POP JUMP JUMPDEST PUSH0 PUSH2 0x151C DUP3 PUSH2 0x14FE JUMP JUMPDEST PUSH2 0x1526 DUP2 DUP6 PUSH2 0x1508 JUMP JUMPDEST SWAP4 POP PUSH2 0x1536 DUP2 DUP6 PUSH1 0x20 DUP7 ADD PUSH2 0x10B1 JUMP JUMPDEST DUP1 DUP5 ADD SWAP2 POP POP SWAP3 SWAP2 POP POP JUMP JUMPDEST PUSH0 PUSH2 0x154D DUP3 DUP5 PUSH2 0x1512 JUMP JUMPDEST SWAP2 POP DUP2 SWAP1 POP SWAP3 SWAP2 POP POP JUMP JUMPDEST PUSH32 0x417070726F76616C2063616C6C206661696C6564000000000000000000000000 PUSH0 DUP3 ADD MSTORE POP JUMP JUMPDEST PUSH0 PUSH2 0x158C PUSH1 0x14 DUP4 PUSH2 0xFAE JUMP JUMPDEST SWAP2 POP PUSH2 0x1597 DUP3 PUSH2 0x1558 JUMP JUMPDEST PUSH1 0x20 DUP3 ADD SWAP1 POP SWAP2 SWAP1 POP JUMP JUMPDEST PUSH0 PUSH1 0x20 DUP3 ADD SWAP1 POP DUP2 DUP2 SUB PUSH0 DUP4 ADD MSTORE PUSH2 0x15B9 DUP2 PUSH2 0x1580 JUMP JUMPDEST SWAP1 POP SWAP2 SWAP1 POP JUMP INVALID LOG2 PUSH5 0x6970667358 0x22 SLT KECCAK256 INVALID PUSH20 0xFC8A2366821EE8F4B8CEE63D5F8001BDCA68FADF PREVRANDAO 0xD0 0xD0 0xC 0xBE NUMBER DUP15 0xB3 SWAP9 DUP16 PUSH5 0x736F6C6343 STOP ADDMOD BYTE STOP CALLER "
				},
				"gasEstimates": {
					"creation": {
						"codeDepositCost": "1124400",
						"executionCost": "infinite",
						"totalCost": "infinite"
					},
					"external": {
						"allowance(address,address)": "infinite",
						"approve(address,uint256)": "infinite",
						"approveAndCall(address,uint256,bytes)": "infinite",
						"balanceOf(address)": "2874",
						"decimals()": "2577",
						"fundsWallet()": "2575",
						"name()": "infinite",
						"symbol()": "infinite",
						"totalEthInWei()": "2492",
						"totalSupply()": "369",
						"transfer(address,uint256)": "infinite",
						"transferFrom(address,address,uint256)": "infinite",
						"unitsOneEthCanBuy()": "2448"
					}
				},
				"methodIdentifiers": {
					"allowance(address,address)": "dd62ed3e",
					"approve(address,uint256)": "095ea7b3",
					"approveAndCall(address,uint256,bytes)": "cae9ca51",
					"balanceOf(address)": "70a08231",
					"decimals()": "313ce567",
					"fundsWallet()": "2194f3a2",
					"name()": "06fdde03",
					"symbol()": "95d89b41",
					"totalEthInWei()": "933ba413",
					"totalSupply()": "18160ddd",
					"transfer(address,uint256)": "a9059cbb",
					"transferFrom(address,address,uint256)": "23b872dd",
					"unitsOneEthCanBuy()": "65f2bc2e"
				}
			},
			"storageLayout": {
				"storage": [
					{
						"astId": 81,
						"contract": "contracts/ERC20.sol:MillerToken",
						"label": "balances",
						"offset": 0,
						"slot": "0",
						"type": "t_mapping(t_address,t_uint256)"
					},
					{
						"astId": 87,
						"contract": "contracts/ERC20.sol:MillerToken",
						"label": "allowed",
						"offset": 0,
						"slot": "1",
						"type": "t_mapping(t_address,t_mapping(t_address,t_uint256))"
					},
					{
						"astId": 89,
						"contract": "contracts/ERC20.sol:MillerToken",
						"label": "totalSupply",
						"offset": 0,
						"slot": "2",
						"type": "t_uint256"
					},
					{
						"astId": 266,
						"contract": "contracts/ERC20.sol:MillerToken",
						"label": "name",
						"offset": 0,
						"slot": "3",
						"type": "t_string_storage"
					},
					{
						"astId": 268,
						"contract": "contracts/ERC20.sol:MillerToken",
						"label": "decimals",
						"offset": 0,
						"slot": "4",
						"type": "t_uint8"
					},
					{
						"astId": 270,
						"contract": "contracts/ERC20.sol:MillerToken",
						"label": "symbol",
						"offset": 0,
						"slot": "5",
						"type": "t_string_storage"
					},
					{
						"astId": 272,
						"contract": "contracts/ERC20.sol:MillerToken",
						"label": "unitsOneEthCanBuy",
						"offset": 0,
						"slot": "6",
						"type": "t_uint256"
					},
					{
						"astId": 274,
						"contract": "contracts/ERC20.sol:MillerToken",
						"label": "totalEthInWei",
						"offset": 0,
						"slot": "7",
						"type": "t_uint256"
					},
					{
						"astId": 276,
						"contract": "contracts/ERC20.sol:MillerToken",
						"label": "fundsWallet",
						"offset": 0,
						"slot": "8",
						"type": "t_address"
					}
				],
				"types": {
					"t_address": {
						"encoding": "inplace",
						"label": "address",
						"numberOfBytes": "20"
					},
					"t_mapping(t_address,t_mapping(t_address,t_uint256))": {
						"encoding": "mapping",
						"key": "t_address",
						"label": "mapping(address => mapping(address => uint256))",
						"numberOfBytes": "32",
						"value": "t_mapping(t_address,t_uint256)"
					},
					"t_mapping(t_address,t_uint256)": {
						"encoding": "mapping",
						"key": "t_address",
						"label": "mapping(address => uint256)",
						"numberOfBytes": "32",
						"value": "t_uint256"
					},
					"t_string_storage": {
						"encoding": "bytes",
						"label": "string",
						"numberOfBytes": "32"
					},
					"t_uint256": {
						"encoding": "inplace",
						"label": "uint256",
						"numberOfBytes": "32"
					},
					"t_uint8": {
						"encoding": "inplace",
						"label": "uint8",
						"numberOfBytes": "1"
					}
				}
			},
			"userdoc": {
				"kind": "user",
				"methods": {
					"approve(address,uint256)": {
						"notice": "`msg.sender` approves `_addr` to spend `_value` tokens"
					},
					"transfer(address,uint256)": {
						"notice": "send `_value` token to `_to` from `msg.sender`"
					},
					"transferFrom(address,address,uint256)": {
						"notice": "send `_value` token to `_to` from `_from` on the condition it is approved by `_from`"
					}
				},
				"version": 1
			}
		}
	}
}