{
	"contracts/PriceFeeds.sol": {
		"PriceConsumerV3": {
			"abi": [
				{
					"inputs": [],
					"stateMutability": "nonpayable",
					"type": "constructor"
				},
				{
					"inputs": [],
					"name": "getLatestPrice",
					"outputs": [
						{
							"internalType": "int256",
							"name": "",
							"type": "int256"
						}
					],
					"stateMutability": "view",
					"type": "function"
				},
				{
					"inputs": [],
					"name": "getTimestamp",
					"outputs": [
						{
							"internalType": "uint256",
							"name": "",
							"type": "uint256"
						}
					],
					"stateMutability": "view",
					"type": "function"
				}
			],
			"devdoc": {
				"kind": "dev",
				"methods": {},
				"version": 1
			},
			"evm": {
				"assembly": "    /* \"contracts/PriceFeeds.sol\":143:1166  contract PriceConsumerV3 {... */\n  mstore(0x40, 0x80)\n    /* \"contracts/PriceFeeds.sol\":438:553  constructor() public {... */\n  callvalue\n  dup1\n  iszero\n  tag_1\n  jumpi\n  0x00\n  dup1\n  revert\ntag_1:\n  pop\n    /* \"contracts/PriceFeeds.sol\":503:545  0x694AA1769357215DE4FAC081bf1f309aDC325306 */\n  0x694aa1769357215de4fac081bf1f309adc325306\n    /* \"contracts/PriceFeeds.sol\":469:478  priceFeed */\n  0x00\n  dup1\n    /* \"contracts/PriceFeeds.sol\":469:546  priceFeed = AggregatorV3Interface(0x694AA1769357215DE4FAC081bf1f309aDC325306) */\n  0x0100\n  exp\n  dup2\n  sload\n  dup2\n  0xffffffffffffffffffffffffffffffffffffffff\n  mul\n  not\n  and\n  swap1\n  dup4\n  0xffffffffffffffffffffffffffffffffffffffff\n  and\n  mul\n  or\n  swap1\n  sstore\n  pop\n    /* \"contracts/PriceFeeds.sol\":143:1166  contract PriceConsumerV3 {... */\n  dataSize(sub_0)\n  dup1\n  dataOffset(sub_0)\n  0x00\n  codecopy\n  0x00\n  return\nstop\n\nsub_0: assembly {\n        /* \"contracts/PriceFeeds.sol\":143:1166  contract PriceConsumerV3 {... */\n      mstore(0x40, 0x80)\n      callvalue\n      dup1\n      iszero\n      tag_1\n      jumpi\n      0x00\n      dup1\n      revert\n    tag_1:\n      pop\n      jumpi(tag_2, lt(calldatasize, 0x04))\n      shr(0xe0, calldataload(0x00))\n      dup1\n      0x188ec356\n      eq\n      tag_3\n      jumpi\n      dup1\n      0x8e15f473\n      eq\n      tag_4\n      jumpi\n    tag_2:\n      0x00\n      dup1\n      revert\n        /* \"contracts/PriceFeeds.sol\":886:1164  function getTimestamp() public view returns  (uint) {... */\n    tag_3:\n      tag_5\n      tag_6\n      jump\t// in\n    tag_5:\n      mload(0x40)\n      tag_7\n      swap2\n      swap1\n      tag_8\n      jump\t// in\n    tag_7:\n      mload(0x40)\n      dup1\n      swap2\n      sub\n      swap1\n      return\n        /* \"contracts/PriceFeeds.sol\":605:880  function getLatestPrice() public view returns  (int) {... */\n    tag_4:\n      tag_9\n      tag_10\n      jump\t// in\n    tag_9:\n      mload(0x40)\n      tag_11\n      swap2\n      swap1\n      tag_12\n      jump\t// in\n    tag_11:\n      mload(0x40)\n      dup1\n      swap2\n      sub\n      swap1\n      return\n        /* \"contracts/PriceFeeds.sol\":886:1164  function getTimestamp() public view returns  (uint) {... */\n    tag_6:\n        /* \"contracts/PriceFeeds.sol\":932:936  uint */\n      0x00\n        /* \"contracts/PriceFeeds.sol\":962:976  uint80 roundId */\n      dup1\n        /* \"contracts/PriceFeeds.sol\":990:999  int price */\n      0x00\n        /* \"contracts/PriceFeeds.sol\":1013:1027  uint startedAt */\n      dup1\n        /* \"contracts/PriceFeeds.sol\":1041:1055  uint timeStamp */\n      0x00\n        /* \"contracts/PriceFeeds.sol\":1069:1090  uint80 answerdInRound */\n      dup1\n        /* \"contracts/PriceFeeds.sol\":1103:1112  priceFeed */\n      0x00\n      dup1\n      sload\n      swap1\n      0x0100\n      exp\n      swap1\n      div\n      0xffffffffffffffffffffffffffffffffffffffff\n      and\n        /* \"contracts/PriceFeeds.sol\":1103:1128  priceFeed.latestRoundData */\n      0xffffffffffffffffffffffffffffffffffffffff\n      and\n      0xfeaf968c\n        /* \"contracts/PriceFeeds.sol\":1103:1130  priceFeed.latestRoundData() */\n      mload(0x40)\n      dup2\n      0xffffffff\n      and\n      0xe0\n      shl\n      dup2\n      mstore\n      0x04\n      add\n      0xa0\n      mload(0x40)\n      dup1\n      dup4\n      sub\n      dup2\n      dup7\n      gas\n      staticcall\n      iszero\n      dup1\n      iszero\n      tag_15\n      jumpi\n      returndatasize\n      0x00\n      dup1\n      returndatacopy\n      revert(0x00, returndatasize)\n    tag_15:\n      pop\n      pop\n      pop\n      pop\n      mload(0x40)\n      returndatasize\n      not(0x1f)\n      0x1f\n      dup3\n      add\n      and\n      dup3\n      add\n      dup1\n      0x40\n      mstore\n      pop\n      dup2\n      add\n      swap1\n      tag_16\n      swap2\n      swap1\n      tag_17\n      jump\t// in\n    tag_16:\n        /* \"contracts/PriceFeeds.sol\":948:1130  (... */\n      swap5\n      pop\n      swap5\n      pop\n      swap5\n      pop\n      swap5\n      pop\n      swap5\n      pop\n        /* \"contracts/PriceFeeds.sol\":1148:1157  timeStamp */\n      dup2\n        /* \"contracts/PriceFeeds.sol\":1141:1157  return timeStamp */\n      swap6\n      pop\n      pop\n      pop\n      pop\n      pop\n      pop\n        /* \"contracts/PriceFeeds.sol\":886:1164  function getTimestamp() public view returns  (uint) {... */\n      swap1\n      jump\t// out\n        /* \"contracts/PriceFeeds.sol\":605:880  function getLatestPrice() public view returns  (int) {... */\n    tag_10:\n        /* \"contracts/PriceFeeds.sol\":653:656  int */\n      0x00\n        /* \"contracts/PriceFeeds.sol\":682:696  uint80 roundId */\n      dup1\n        /* \"contracts/PriceFeeds.sol\":710:719  int price */\n      0x00\n        /* \"contracts/PriceFeeds.sol\":733:747  uint startedAt */\n      dup1\n        /* \"contracts/PriceFeeds.sol\":761:775  uint timeStamp */\n      0x00\n        /* \"contracts/PriceFeeds.sol\":789:810  uint80 answerdInRound */\n      dup1\n        /* \"contracts/PriceFeeds.sol\":823:832  priceFeed */\n      0x00\n      dup1\n      sload\n      swap1\n      0x0100\n      exp\n      swap1\n      div\n      0xffffffffffffffffffffffffffffffffffffffff\n      and\n        /* \"contracts/PriceFeeds.sol\":823:848  priceFeed.latestRoundData */\n      0xffffffffffffffffffffffffffffffffffffffff\n      and\n      0xfeaf968c\n        /* \"contracts/PriceFeeds.sol\":823:850  priceFeed.latestRoundData() */\n      mload(0x40)\n      dup2\n      0xffffffff\n      and\n      0xe0\n      shl\n      dup2\n      mstore\n      0x04\n      add\n      0xa0\n      mload(0x40)\n      dup1\n      dup4\n      sub\n      dup2\n      dup7\n      gas\n      staticcall\n      iszero\n      dup1\n      iszero\n      tag_20\n      jumpi\n      returndatasize\n      0x00\n      dup1\n      returndatacopy\n      revert(0x00, returndatasize)\n    tag_20:\n      pop\n      pop\n      pop\n      pop\n      mload(0x40)\n      returndatasize\n      not(0x1f)\n      0x1f\n      dup3\n      add\n      and\n      dup3\n      add\n      dup1\n      0x40\n      mstore\n      pop\n      dup2\n      add\n      swap1\n      tag_21\n      swap2\n      swap1\n      tag_17\n      jump\t// in\n    tag_21:\n        /* \"contracts/PriceFeeds.sol\":668:850  (... */\n      swap5\n      pop\n      swap5\n      pop\n      swap5\n      pop\n      swap5\n      pop\n      swap5\n      pop\n        /* \"contracts/PriceFeeds.sol\":868:873  price */\n      dup4\n        /* \"contracts/PriceFeeds.sol\":861:873  return price */\n      swap6\n      pop\n      pop\n      pop\n      pop\n      pop\n      pop\n        /* \"contracts/PriceFeeds.sol\":605:880  function getLatestPrice() public view returns  (int) {... */\n      swap1\n      jump\t// out\n        /* \"#utility.yul\":7:84   */\n    tag_22:\n        /* \"#utility.yul\":44:51   */\n      0x00\n        /* \"#utility.yul\":73:78   */\n      dup2\n        /* \"#utility.yul\":62:78   */\n      swap1\n      pop\n        /* \"#utility.yul\":7:84   */\n      swap2\n      swap1\n      pop\n      jump\t// out\n        /* \"#utility.yul\":90:208   */\n    tag_23:\n        /* \"#utility.yul\":177:201   */\n      tag_39\n        /* \"#utility.yul\":195:200   */\n      dup2\n        /* \"#utility.yul\":177:201   */\n      tag_22\n      jump\t// in\n    tag_39:\n        /* \"#utility.yul\":172:175   */\n      dup3\n        /* \"#utility.yul\":165:202   */\n      mstore\n        /* \"#utility.yul\":90:208   */\n      pop\n      pop\n      jump\t// out\n        /* \"#utility.yul\":214:436   */\n    tag_8:\n        /* \"#utility.yul\":307:311   */\n      0x00\n        /* \"#utility.yul\":345:347   */\n      0x20\n        /* \"#utility.yul\":334:343   */\n      dup3\n        /* \"#utility.yul\":330:348   */\n      add\n        /* \"#utility.yul\":322:348   */\n      swap1\n      pop\n        /* \"#utility.yul\":358:429   */\n      tag_41\n        /* \"#utility.yul\":426:427   */\n      0x00\n        /* \"#utility.yul\":415:424   */\n      dup4\n        /* \"#utility.yul\":411:428   */\n      add\n        /* \"#utility.yul\":402:408   */\n      dup5\n        /* \"#utility.yul\":358:429   */\n      tag_23\n      jump\t// in\n    tag_41:\n        /* \"#utility.yul\":214:436   */\n      swap3\n      swap2\n      pop\n      pop\n      jump\t// out\n        /* \"#utility.yul\":442:518   */\n    tag_24:\n        /* \"#utility.yul\":478:485   */\n      0x00\n        /* \"#utility.yul\":507:512   */\n      dup2\n        /* \"#utility.yul\":496:512   */\n      swap1\n      pop\n        /* \"#utility.yul\":442:518   */\n      swap2\n      swap1\n      pop\n      jump\t// out\n        /* \"#utility.yul\":524:639   */\n    tag_25:\n        /* \"#utility.yul\":609:632   */\n      tag_44\n        /* \"#utility.yul\":626:631   */\n      dup2\n        /* \"#utility.yul\":609:632   */\n      tag_24\n      jump\t// in\n    tag_44:\n        /* \"#utility.yul\":604:607   */\n      dup3\n        /* \"#utility.yul\":597:633   */\n      mstore\n        /* \"#utility.yul\":524:639   */\n      pop\n      pop\n      jump\t// out\n        /* \"#utility.yul\":645:863   */\n    tag_12:\n        /* \"#utility.yul\":736:740   */\n      0x00\n        /* \"#utility.yul\":774:776   */\n      0x20\n        /* \"#utility.yul\":763:772   */\n      dup3\n        /* \"#utility.yul\":759:777   */\n      add\n        /* \"#utility.yul\":751:777   */\n      swap1\n      pop\n        /* \"#utility.yul\":787:856   */\n      tag_46\n        /* \"#utility.yul\":853:854   */\n      0x00\n        /* \"#utility.yul\":842:851   */\n      dup4\n        /* \"#utility.yul\":838:855   */\n      add\n        /* \"#utility.yul\":829:835   */\n      dup5\n        /* \"#utility.yul\":787:856   */\n      tag_25\n      jump\t// in\n    tag_46:\n        /* \"#utility.yul\":645:863   */\n      swap3\n      swap2\n      pop\n      pop\n      jump\t// out\n        /* \"#utility.yul\":950:1067   */\n    tag_27:\n        /* \"#utility.yul\":1059:1060   */\n      0x00\n        /* \"#utility.yul\":1056:1057   */\n      dup1\n        /* \"#utility.yul\":1049:1061   */\n      revert\n        /* \"#utility.yul\":1196:1301   */\n    tag_29:\n        /* \"#utility.yul\":1232:1239   */\n      0x00\n        /* \"#utility.yul\":1272:1294   */\n      0xffffffffffffffffffff\n        /* \"#utility.yul\":1265:1270   */\n      dup3\n        /* \"#utility.yul\":1261:1295   */\n      and\n        /* \"#utility.yul\":1250:1295   */\n      swap1\n      pop\n        /* \"#utility.yul\":1196:1301   */\n      swap2\n      swap1\n      pop\n      jump\t// out\n        /* \"#utility.yul\":1307:1427   */\n    tag_30:\n        /* \"#utility.yul\":1379:1402   */\n      tag_52\n        /* \"#utility.yul\":1396:1401   */\n      dup2\n        /* \"#utility.yul\":1379:1402   */\n      tag_29\n      jump\t// in\n    tag_52:\n        /* \"#utility.yul\":1372:1377   */\n      dup2\n        /* \"#utility.yul\":1369:1403   */\n      eq\n        /* \"#utility.yul\":1359:1421   */\n      tag_53\n      jumpi\n        /* \"#utility.yul\":1417:1418   */\n      0x00\n        /* \"#utility.yul\":1414:1415   */\n      dup1\n        /* \"#utility.yul\":1407:1419   */\n      revert\n        /* \"#utility.yul\":1359:1421   */\n    tag_53:\n        /* \"#utility.yul\":1307:1427   */\n      pop\n      jump\t// out\n        /* \"#utility.yul\":1433:1574   */\n    tag_31:\n        /* \"#utility.yul\":1489:1494   */\n      0x00\n        /* \"#utility.yul\":1520:1526   */\n      dup2\n        /* \"#utility.yul\":1514:1527   */\n      mload\n        /* \"#utility.yul\":1505:1527   */\n      swap1\n      pop\n        /* \"#utility.yul\":1536:1568   */\n      tag_55\n        /* \"#utility.yul\":1562:1567   */\n      dup2\n        /* \"#utility.yul\":1536:1568   */\n      tag_30\n      jump\t// in\n    tag_55:\n        /* \"#utility.yul\":1433:1574   */\n      swap3\n      swap2\n      pop\n      pop\n      jump\t// out\n        /* \"#utility.yul\":1580:1700   */\n    tag_32:\n        /* \"#utility.yul\":1652:1675   */\n      tag_57\n        /* \"#utility.yul\":1669:1674   */\n      dup2\n        /* \"#utility.yul\":1652:1675   */\n      tag_24\n      jump\t// in\n    tag_57:\n        /* \"#utility.yul\":1645:1650   */\n      dup2\n        /* \"#utility.yul\":1642:1676   */\n      eq\n        /* \"#utility.yul\":1632:1694   */\n      tag_58\n      jumpi\n        /* \"#utility.yul\":1690:1691   */\n      0x00\n        /* \"#utility.yul\":1687:1688   */\n      dup1\n        /* \"#utility.yul\":1680:1692   */\n      revert\n        /* \"#utility.yul\":1632:1694   */\n    tag_58:\n        /* \"#utility.yul\":1580:1700   */\n      pop\n      jump\t// out\n        /* \"#utility.yul\":1706:1847   */\n    tag_33:\n        /* \"#utility.yul\":1762:1767   */\n      0x00\n        /* \"#utility.yul\":1793:1799   */\n      dup2\n        /* \"#utility.yul\":1787:1800   */\n      mload\n        /* \"#utility.yul\":1778:1800   */\n      swap1\n      pop\n        /* \"#utility.yul\":1809:1841   */\n      tag_60\n        /* \"#utility.yul\":1835:1840   */\n      dup2\n        /* \"#utility.yul\":1809:1841   */\n      tag_32\n      jump\t// in\n    tag_60:\n        /* \"#utility.yul\":1706:1847   */\n      swap3\n      swap2\n      pop\n      pop\n      jump\t// out\n        /* \"#utility.yul\":1853:1975   */\n    tag_34:\n        /* \"#utility.yul\":1926:1950   */\n      tag_62\n        /* \"#utility.yul\":1944:1949   */\n      dup2\n        /* \"#utility.yul\":1926:1950   */\n      tag_22\n      jump\t// in\n    tag_62:\n        /* \"#utility.yul\":1919:1924   */\n      dup2\n        /* \"#utility.yul\":1916:1951   */\n      eq\n        /* \"#utility.yul\":1906:1969   */\n      tag_63\n      jumpi\n        /* \"#utility.yul\":1965:1966   */\n      0x00\n        /* \"#utility.yul\":1962:1963   */\n      dup1\n        /* \"#utility.yul\":1955:1967   */\n      revert\n        /* \"#utility.yul\":1906:1969   */\n    tag_63:\n        /* \"#utility.yul\":1853:1975   */\n      pop\n      jump\t// out\n        /* \"#utility.yul\":1981:2124   */\n    tag_35:\n        /* \"#utility.yul\":2038:2043   */\n      0x00\n        /* \"#utility.yul\":2069:2075   */\n      dup2\n        /* \"#utility.yul\":2063:2076   */\n      mload\n        /* \"#utility.yul\":2054:2076   */\n      swap1\n      pop\n        /* \"#utility.yul\":2085:2118   */\n      tag_65\n        /* \"#utility.yul\":2112:2117   */\n      dup2\n        /* \"#utility.yul\":2085:2118   */\n      tag_34\n      jump\t// in\n    tag_65:\n        /* \"#utility.yul\":1981:2124   */\n      swap3\n      swap2\n      pop\n      pop\n      jump\t// out\n        /* \"#utility.yul\":2130:3101   */\n    tag_17:\n        /* \"#utility.yul\":2233:2239   */\n      0x00\n        /* \"#utility.yul\":2241:2247   */\n      dup1\n        /* \"#utility.yul\":2249:2255   */\n      0x00\n        /* \"#utility.yul\":2257:2263   */\n      dup1\n        /* \"#utility.yul\":2265:2271   */\n      0x00\n        /* \"#utility.yul\":2314:2317   */\n      0xa0\n        /* \"#utility.yul\":2302:2311   */\n      dup7\n        /* \"#utility.yul\":2293:2300   */\n      dup9\n        /* \"#utility.yul\":2289:2312   */\n      sub\n        /* \"#utility.yul\":2285:2318   */\n      slt\n        /* \"#utility.yul\":2282:2402   */\n      iszero\n      tag_67\n      jumpi\n        /* \"#utility.yul\":2321:2400   */\n      tag_68\n      tag_27\n      jump\t// in\n    tag_68:\n        /* \"#utility.yul\":2282:2402   */\n    tag_67:\n        /* \"#utility.yul\":2441:2442   */\n      0x00\n        /* \"#utility.yul\":2466:2529   */\n      tag_69\n        /* \"#utility.yul\":2521:2528   */\n      dup9\n        /* \"#utility.yul\":2512:2518   */\n      dup3\n        /* \"#utility.yul\":2501:2510   */\n      dup10\n        /* \"#utility.yul\":2497:2519   */\n      add\n        /* \"#utility.yul\":2466:2529   */\n      tag_31\n      jump\t// in\n    tag_69:\n        /* \"#utility.yul\":2456:2529   */\n      swap6\n      pop\n        /* \"#utility.yul\":2412:2539   */\n      pop\n        /* \"#utility.yul\":2578:2580   */\n      0x20\n        /* \"#utility.yul\":2604:2667   */\n      tag_70\n        /* \"#utility.yul\":2659:2666   */\n      dup9\n        /* \"#utility.yul\":2650:2656   */\n      dup3\n        /* \"#utility.yul\":2639:2648   */\n      dup10\n        /* \"#utility.yul\":2635:2657   */\n      add\n        /* \"#utility.yul\":2604:2667   */\n      tag_33\n      jump\t// in\n    tag_70:\n        /* \"#utility.yul\":2594:2667   */\n      swap5\n      pop\n        /* \"#utility.yul\":2549:2677   */\n      pop\n        /* \"#utility.yul\":2716:2718   */\n      0x40\n        /* \"#utility.yul\":2742:2806   */\n      tag_71\n        /* \"#utility.yul\":2798:2805   */\n      dup9\n        /* \"#utility.yul\":2789:2795   */\n      dup3\n        /* \"#utility.yul\":2778:2787   */\n      dup10\n        /* \"#utility.yul\":2774:2796   */\n      add\n        /* \"#utility.yul\":2742:2806   */\n      tag_35\n      jump\t// in\n    tag_71:\n        /* \"#utility.yul\":2732:2806   */\n      swap4\n      pop\n        /* \"#utility.yul\":2687:2816   */\n      pop\n        /* \"#utility.yul\":2855:2857   */\n      0x60\n        /* \"#utility.yul\":2881:2945   */\n      tag_72\n        /* \"#utility.yul\":2937:2944   */\n      dup9\n        /* \"#utility.yul\":2928:2934   */\n      dup3\n        /* \"#utility.yul\":2917:2926   */\n      dup10\n        /* \"#utility.yul\":2913:2935   */\n      add\n        /* \"#utility.yul\":2881:2945   */\n      tag_35\n      jump\t// in\n    tag_72:\n        /* \"#utility.yul\":2871:2945   */\n      swap3\n      pop\n        /* \"#utility.yul\":2826:2955   */\n      pop\n        /* \"#utility.yul\":2994:2997   */\n      0x80\n        /* \"#utility.yul\":3021:3084   */\n      tag_73\n        /* \"#utility.yul\":3076:3083   */\n      dup9\n        /* \"#utility.yul\":3067:3073   */\n      dup3\n        /* \"#utility.yul\":3056:3065   */\n      dup10\n        /* \"#utility.yul\":3052:3074   */\n      add\n        /* \"#utility.yul\":3021:3084   */\n      tag_31\n      jump\t// in\n    tag_73:\n        /* \"#utility.yul\":3011:3084   */\n      swap2\n      pop\n        /* \"#utility.yul\":2965:3094   */\n      pop\n        /* \"#utility.yul\":2130:3101   */\n      swap3\n      swap6\n      pop\n      swap3\n      swap6\n      swap1\n      swap4\n      pop\n      jump\t// out\n\n    auxdata: 0xa2646970667358221220621da0dcf87ebf1e0318661be0a1995dc59103b52d373cfd702bf8d28f09fc0164736f6c634300080d0033\n}\n",
				"bytecode": {
					"linkReferences": {},
					"object": "608060405234801561001057600080fd5b5073694aa1769357215de4fac081bf1f309adc3253066000806101000a81548173ffffffffffffffffffffffffffffffffffffffff021916908373ffffffffffffffffffffffffffffffffffffffff160217905550610389806100746000396000f3fe608060405234801561001057600080fd5b50600436106100365760003560e01c8063188ec3561461003b5780638e15f47314610059575b600080fd5b610043610077565b60405161005091906101ea565b60405180910390f35b610061610124565b60405161006e919061021e565b60405180910390f35b60008060008060008060008054906101000a900473ffffffffffffffffffffffffffffffffffffffff1673ffffffffffffffffffffffffffffffffffffffff1663feaf968c6040518163ffffffff1660e01b815260040160a060405180830381865afa1580156100eb573d6000803e3d6000fd5b505050506040513d601f19601f8201168201806040525081019061010f91906102d8565b94509450945094509450819550505050505090565b60008060008060008060008054906101000a900473ffffffffffffffffffffffffffffffffffffffff1673ffffffffffffffffffffffffffffffffffffffff1663feaf968c6040518163ffffffff1660e01b815260040160a060405180830381865afa158015610198573d6000803e3d6000fd5b505050506040513d601f19601f820116820180604052508101906101bc91906102d8565b94509450945094509450839550505050505090565b6000819050919050565b6101e4816101d1565b82525050565b60006020820190506101ff60008301846101db565b92915050565b6000819050919050565b61021881610205565b82525050565b6000602082019050610233600083018461020f565b92915050565b600080fd5b600069ffffffffffffffffffff82169050919050565b61025d8161023e565b811461026857600080fd5b50565b60008151905061027a81610254565b92915050565b61028981610205565b811461029457600080fd5b50565b6000815190506102a681610280565b92915050565b6102b5816101d1565b81146102c057600080fd5b50565b6000815190506102d2816102ac565b92915050565b600080600080600060a086880312156102f4576102f3610239565b5b60006103028882890161026b565b955050602061031388828901610297565b9450506040610324888289016102c3565b9350506060610335888289016102c3565b92505060806103468882890161026b565b915050929550929590935056fea2646970667358221220621da0dcf87ebf1e0318661be0a1995dc59103b52d373cfd702bf8d28f09fc0164736f6c634300080d0033",
					"opcodes": "PUSH1 0x80 PUSH1 0x40 MSTORE CALLVALUE DUP1 ISZERO PUSH2 0x10 JUMPI PUSH1 0x0 DUP1 REVERT JUMPDEST POP PUSH20 0x694AA1769357215DE4FAC081BF1F309ADC325306 PUSH1 0x0 DUP1 PUSH2 0x100 EXP DUP2 SLOAD DUP2 PUSH20 0xFFFFFFFFFFFFFFFFFFFFFFFFFFFFFFFFFFFFFFFF MUL NOT AND SWAP1 DUP4 PUSH20 0xFFFFFFFFFFFFFFFFFFFFFFFFFFFFFFFFFFFFFFFF AND MUL OR SWAP1 SSTORE POP PUSH2 0x389 DUP1 PUSH2 0x74 PUSH1 0x0 CODECOPY PUSH1 0x0 RETURN INVALID PUSH1 0x80 PUSH1 0x40 MSTORE CALLVALUE DUP1 ISZERO PUSH2 0x10 JUMPI PUSH1 0x0 DUP1 REVERT JUMPDEST POP PUSH1 0x4 CALLDATASIZE LT PUSH2 0x36 JUMPI PUSH1 0x0 CALLDATALOAD PUSH1 0xE0 SHR DUP1 PUSH4 0x188EC356 EQ PUSH2 0x3B JUMPI DUP1 PUSH4 0x8E15F473 EQ PUSH2 0x59 JUMPI JUMPDEST PUSH1 0x0 DUP1 REVERT JUMPDEST PUSH2 0x43 PUSH2 0x77 JUMP JUMPDEST PUSH1 0x40 MLOAD PUSH2 0x50 SWAP2 SWAP1 PUSH2 0x1EA JUMP JUMPDEST PUSH1 0x40 MLOAD DUP1 SWAP2 SUB SWAP1 RETURN JUMPDEST PUSH2 0x61 PUSH2 0x124 JUMP JUMPDEST PUSH1 0x40 MLOAD PUSH2 0x6E SWAP2 SWAP1 PUSH2 0x21E JUMP JUMPDEST PUSH1 0x40 MLOAD DUP1 SWAP2 SUB SWAP1 RETURN JUMPDEST PUSH1 0x0 DUP1 PUSH1 0x0 DUP1 PUSH1 0x0 DUP1 PUSH1 0x0 DUP1 SLOAD SWAP1 PUSH2 0x100 EXP SWAP1 DIV PUSH20 0xFFFFFFFFFFFFFFFFFFFFFFFFFFFFFFFFFFFFFFFF AND PUSH20 0xFFFFFFFFFFFFFFFFFFFFFFFFFFFFFFFFFFFFFFFF AND PUSH4 0xFEAF968C PUSH1 0x40 MLOAD DUP2 PUSH4 0xFFFFFFFF AND PUSH1 0xE0 SHL DUP2 MSTORE PUSH1 0x4 ADD PUSH1 0xA0 PUSH1 0x40 MLOAD DUP1 DUP4 SUB DUP2 DUP7 GAS STATICCALL ISZERO DUP1 ISZERO PUSH2 0xEB JUMPI RETURNDATASIZE PUSH1 0x0 DUP1 RETURNDATACOPY RETURNDATASIZE PUSH1 0x0 REVERT JUMPDEST POP POP POP POP PUSH1 0x40 MLOAD RETURNDATASIZE PUSH1 0x1F NOT PUSH1 0x1F DUP3 ADD AND DUP3 ADD DUP1 PUSH1 0x40 MSTORE POP DUP2 ADD SWAP1 PUSH2 0x10F SWAP2 SWAP1 PUSH2 0x2D8 JUMP JUMPDEST SWAP5 POP SWAP5 POP SWAP5 POP SWAP5 POP SWAP5 POP DUP2 SWAP6 POP POP POP POP POP POP SWAP1 JUMP JUMPDEST PUSH1 0x0 DUP1 PUSH1 0x0 DUP1 PUSH1 0x0 DUP1 PUSH1 0x0 DUP1 SLOAD SWAP1 PUSH2 0x100 EXP SWAP1 DIV PUSH20 0xFFFFFFFFFFFFFFFFFFFFFFFFFFFFFFFFFFFFFFFF AND PUSH20 0xFFFFFFFFFFFFFFFFFFFFFFFFFFFFFFFFFFFFFFFF AND PUSH4 0xFEAF968C PUSH1 0x40 MLOAD DUP2 PUSH4 0xFFFFFFFF AND PUSH1 0xE0 SHL DUP2 MSTORE PUSH1 0x4 ADD PUSH1 0xA0 PUSH1 0x40 MLOAD DUP1 DUP4 SUB DUP2 DUP7 GAS STATICCALL ISZERO DUP1 ISZERO PUSH2 0x198 JUMPI RETURNDATASIZE PUSH1 0x0 DUP1 RETURNDATACOPY RETURNDATASIZE PUSH1 0x0 REVERT JUMPDEST POP POP POP POP PUSH1 0x40 MLOAD RETURNDATASIZE PUSH1 0x1F NOT PUSH1 0x1F DUP3 ADD AND DUP3 ADD DUP1 PUSH1 0x40 MSTORE POP DUP2 ADD SWAP1 PUSH2 0x1BC SWAP2 SWAP1 PUSH2 0x2D8 JUMP JUMPDEST SWAP5 POP SWAP5 POP SWAP5 POP SWAP5 POP SWAP5 POP DUP4 SWAP6 POP POP POP POP POP POP SWAP1 JUMP JUMPDEST PUSH1 0x0 DUP2 SWAP1 POP SWAP2 SWAP1 POP JUMP JUMPDEST PUSH2 0x1E4 DUP2 PUSH2 0x1D1 JUMP JUMPDEST DUP3 MSTORE POP POP JUMP JUMPDEST PUSH1 0x0 PUSH1 0x20 DUP3 ADD SWAP1 POP PUSH2 0x1FF PUSH1 0x0 DUP4 ADD DUP5 PUSH2 0x1DB JUMP JUMPDEST SWAP3 SWAP2 POP POP JUMP JUMPDEST PUSH1 0x0 DUP2 SWAP1 POP SWAP2 SWAP1 POP JUMP JUMPDEST PUSH2 0x218 DUP2 PUSH2 0x205 JUMP JUMPDEST DUP3 MSTORE POP POP JUMP JUMPDEST PUSH1 0x0 PUSH1 0x20 DUP3 ADD SWAP1 POP PUSH2 0x233 PUSH1 0x0 DUP4 ADD DUP5 PUSH2 0x20F JUMP JUMPDEST SWAP3 SWAP2 POP POP JUMP JUMPDEST PUSH1 0x0 DUP1 REVERT JUMPDEST PUSH1 0x0 PUSH10 0xFFFFFFFFFFFFFFFFFFFF DUP3 AND SWAP1 POP SWAP2 SWAP1 POP JUMP JUMPDEST PUSH2 0x25D DUP2 PUSH2 0x23E JUMP JUMPDEST DUP2 EQ PUSH2 0x268 JUMPI PUSH1 0x0 DUP1 REVERT JUMPDEST POP JUMP JUMPDEST PUSH1 0x0 DUP2 MLOAD SWAP1 POP PUSH2 0x27A DUP2 PUSH2 0x254 JUMP JUMPDEST SWAP3 SWAP2 POP POP JUMP JUMPDEST PUSH2 0x289 DUP2 PUSH2 0x205 JUMP JUMPDEST DUP2 EQ PUSH2 0x294 JUMPI PUSH1 0x0 DUP1 REVERT JUMPDEST POP JUMP JUMPDEST PUSH1 0x0 DUP2 MLOAD SWAP1 POP PUSH2 0x2A6 DUP2 PUSH2 0x280 JUMP JUMPDEST SWAP3 SWAP2 POP POP JUMP JUMPDEST PUSH2 0x2B5 DUP2 PUSH2 0x1D1 JUMP JUMPDEST DUP2 EQ PUSH2 0x2C0 JUMPI PUSH1 0x0 DUP1 REVERT JUMPDEST POP JUMP JUMPDEST PUSH1 0x0 DUP2 MLOAD SWAP1 POP PUSH2 0x2D2 DUP2 PUSH2 0x2AC JUMP JUMPDEST SWAP3 SWAP2 POP POP JUMP JUMPDEST PUSH1 0x0 DUP1 PUSH1 0x0 DUP1 PUSH1 0x0 PUSH1 0xA0 DUP7 DUP9 SUB SLT ISZERO PUSH2 0x2F4 JUMPI PUSH2 0x2F3 PUSH2 0x239 JUMP JUMPDEST JUMPDEST PUSH1 0x0 PUSH2 0x302 DUP9 DUP3 DUP10 ADD PUSH2 0x26B JUMP JUMPDEST SWAP6 POP POP PUSH1 0x20 PUSH2 0x313 DUP9 DUP3 DUP10 ADD PUSH2 0x297 JUMP JUMPDEST SWAP5 POP POP PUSH1 0x40 PUSH2 0x324 DUP9 DUP3 DUP10 ADD PUSH2 0x2C3 JUMP JUMPDEST SWAP4 POP POP PUSH1 0x60 PUSH2 0x335 DUP9 DUP3 DUP10 ADD PUSH2 0x2C3 JUMP JUMPDEST SWAP3 POP POP PUSH1 0x80 PUSH2 0x346 DUP9 DUP3 DUP10 ADD PUSH2 0x26B JUMP JUMPDEST SWAP2 POP POP SWAP3 SWAP6 POP SWAP3 SWAP6 SWAP1 SWAP4 POP JUMP INVALID LOG2 PUSH5 0x6970667358 0x22 SLT KECCAK256 PUSH3 0x1DA0DC 0xF8 PUSH31 0xBF1E0318661BE0A1995DC59103B52D373CFD702BF8D28F09FC0164736F6C63 NUMBER STOP ADDMOD 0xD STOP CALLER "
				},
				"gasEstimates": {
					"creation": {
						"codeDepositCost": "181000",
						"executionCost": "24493",
						"totalCost": "205493"
					},
					"external": {
						"getLatestPrice()": "infinite",
						"getTimestamp()": "infinite"
					}
				},
				"methodIdentifiers": {
					"getLatestPrice()": "8e15f473",
					"getTimestamp()": "188ec356"
				}
			},
			"storageLayout": {
				"storage": [
					{
						"astId": 51,
						"contract": "contracts/PriceFeeds.sol:PriceConsumerV3",
						"label": "priceFeed",
						"offset": 0,
						"slot": "0",
						"type": "t_contract(AggregatorV3Interface)45"
					}
				],
				"types": {
					"t_contract(AggregatorV3Interface)45": {
						"encoding": "inplace",
						"label": "contract AggregatorV3Interface",
						"numberOfBytes": "20"
					}
				}
			},
			"userdoc": {
				"kind": "user",
				"methods": {
					"constructor": {
						"notice": "Network: Sepolia Aggregator: ETH/USD Address: 0x694AA1769357215DE4FAC081bf1f309aDC325306 More info: https://docs.chain.link/data-feeds/price-feeds/addresses?network=ethereum&page=1"
					},
					"getLatestPrice()": {
						"notice": "Returns the lates price"
					}
				},
				"version": 1
			}
		}
	}
}